{
  "address": "0xb4107fD164F80835968F6ec30AaAfcFe02751288",
  "abi": [
    {
      "inputs": [
        {
          "internalType": "address",
          "name": "_checkpointManager",
          "type": "address"
        },
        {
          "internalType": "address",
          "name": "_fxRoot",
          "type": "address"
        }
      ],
      "stateMutability": "nonpayable",
      "type": "constructor"
    },
    {
      "anonymous": false,
      "inputs": [
        {
          "indexed": true,
          "internalType": "address",
          "name": "owner",
          "type": "address"
        },
        {
          "indexed": true,
          "internalType": "address",
          "name": "approved",
          "type": "address"
        },
        {
          "indexed": true,
          "internalType": "uint256",
          "name": "tokenId",
          "type": "uint256"
        }
      ],
      "name": "Approval",
      "type": "event"
    },
    {
      "anonymous": false,
      "inputs": [
        {
          "indexed": true,
          "internalType": "address",
          "name": "owner",
          "type": "address"
        },
        {
          "indexed": true,
          "internalType": "address",
          "name": "operator",
          "type": "address"
        },
        {
          "indexed": false,
          "internalType": "bool",
          "name": "approved",
          "type": "bool"
        }
      ],
      "name": "ApprovalForAll",
      "type": "event"
    },
    {
      "anonymous": false,
      "inputs": [
        {
          "indexed": true,
          "internalType": "address",
          "name": "previousOwner",
          "type": "address"
        },
        {
          "indexed": true,
          "internalType": "address",
          "name": "newOwner",
          "type": "address"
        }
      ],
      "name": "OwnershipTransferred",
      "type": "event"
    },
    {
      "anonymous": false,
      "inputs": [
        {
          "indexed": true,
          "internalType": "address",
          "name": "from",
          "type": "address"
        },
        {
          "indexed": true,
          "internalType": "address",
          "name": "to",
          "type": "address"
        },
        {
          "indexed": true,
          "internalType": "uint256",
          "name": "tokenId",
          "type": "uint256"
        }
      ],
      "name": "Transfer",
      "type": "event"
    },
    {
      "inputs": [],
      "name": "SEND_MESSAGE_EVENT_SIG",
      "outputs": [
        {
          "internalType": "bytes32",
          "name": "",
          "type": "bytes32"
        }
      ],
      "stateMutability": "view",
      "type": "function"
    },
    {
      "inputs": [
        {
          "internalType": "address",
          "name": "to",
          "type": "address"
        },
        {
          "internalType": "uint256",
          "name": "tokenId",
          "type": "uint256"
        }
      ],
      "name": "approve",
      "outputs": [],
      "stateMutability": "nonpayable",
      "type": "function"
    },
    {
      "inputs": [
        {
          "internalType": "address",
          "name": "owner",
          "type": "address"
        }
      ],
      "name": "balanceOf",
      "outputs": [
        {
          "internalType": "uint256",
          "name": "",
          "type": "uint256"
        }
      ],
      "stateMutability": "view",
      "type": "function"
    },
    {
      "inputs": [],
      "name": "checkpointManager",
      "outputs": [
        {
          "internalType": "contract ICheckpointManager",
          "name": "",
          "type": "address"
        }
      ],
      "stateMutability": "view",
      "type": "function"
    },
    {
      "inputs": [],
      "name": "fxChildTunnel",
      "outputs": [
        {
          "internalType": "address",
          "name": "",
          "type": "address"
        }
      ],
      "stateMutability": "view",
      "type": "function"
    },
    {
      "inputs": [],
      "name": "fxRoot",
      "outputs": [
        {
          "internalType": "contract IFxStateSender",
          "name": "",
          "type": "address"
        }
      ],
      "stateMutability": "view",
      "type": "function"
    },
    {
      "inputs": [
        {
          "internalType": "uint256",
          "name": "tokenId",
          "type": "uint256"
        }
      ],
      "name": "getApproved",
      "outputs": [
        {
          "internalType": "address",
          "name": "",
          "type": "address"
        }
      ],
      "stateMutability": "view",
      "type": "function"
    },
    {
      "inputs": [
        {
          "internalType": "address",
          "name": "owner",
          "type": "address"
        },
        {
          "internalType": "address",
          "name": "operator",
          "type": "address"
        }
      ],
      "name": "isApprovedForAll",
      "outputs": [
        {
          "internalType": "bool",
          "name": "",
          "type": "bool"
        }
      ],
      "stateMutability": "view",
      "type": "function"
    },
    {
      "inputs": [],
      "name": "mintPrice",
      "outputs": [
        {
          "internalType": "uint256",
          "name": "",
          "type": "uint256"
        }
      ],
      "stateMutability": "view",
      "type": "function"
    },
    {
      "inputs": [
        {
          "internalType": "bytes",
          "name": "inputData",
          "type": "bytes"
        }
      ],
      "name": "mintWithProof",
      "outputs": [],
      "stateMutability": "payable",
      "type": "function"
    },
    {
      "inputs": [],
      "name": "name",
      "outputs": [
        {
          "internalType": "string",
          "name": "",
          "type": "string"
        }
      ],
      "stateMutability": "view",
      "type": "function"
    },
    {
      "inputs": [],
      "name": "owner",
      "outputs": [
        {
          "internalType": "address",
          "name": "",
          "type": "address"
        }
      ],
      "stateMutability": "view",
      "type": "function"
    },
    {
      "inputs": [
        {
          "internalType": "uint256",
          "name": "tokenId",
          "type": "uint256"
        }
      ],
      "name": "ownerOf",
      "outputs": [
        {
          "internalType": "address",
          "name": "",
          "type": "address"
        }
      ],
      "stateMutability": "view",
      "type": "function"
    },
    {
      "inputs": [
        {
          "internalType": "bytes32",
          "name": "",
          "type": "bytes32"
        }
      ],
      "name": "processedExits",
      "outputs": [
        {
          "internalType": "bool",
          "name": "",
          "type": "bool"
        }
      ],
      "stateMutability": "view",
      "type": "function"
    },
    {
      "inputs": [
        {
          "internalType": "bytes",
          "name": "inputData",
          "type": "bytes"
        }
      ],
      "name": "receiveMessage",
      "outputs": [],
      "stateMutability": "nonpayable",
      "type": "function"
    },
    {
      "inputs": [],
      "name": "remainingTokens",
      "outputs": [
        {
          "internalType": "uint256",
          "name": "",
          "type": "uint256"
        }
      ],
      "stateMutability": "view",
      "type": "function"
    },
    {
      "inputs": [],
      "name": "renounceOwnership",
      "outputs": [],
      "stateMutability": "nonpayable",
      "type": "function"
    },
    {
      "inputs": [
        {
          "internalType": "address",
          "name": "from",
          "type": "address"
        },
        {
          "internalType": "address",
          "name": "to",
          "type": "address"
        },
        {
          "internalType": "uint256",
          "name": "tokenId",
          "type": "uint256"
        }
      ],
      "name": "safeTransferFrom",
      "outputs": [],
      "stateMutability": "nonpayable",
      "type": "function"
    },
    {
      "inputs": [
        {
          "internalType": "address",
          "name": "from",
          "type": "address"
        },
        {
          "internalType": "address",
          "name": "to",
          "type": "address"
        },
        {
          "internalType": "uint256",
          "name": "tokenId",
          "type": "uint256"
        },
        {
          "internalType": "bytes",
          "name": "_data",
          "type": "bytes"
        }
      ],
      "name": "safeTransferFrom",
      "outputs": [],
      "stateMutability": "nonpayable",
      "type": "function"
    },
    {
      "inputs": [
        {
          "internalType": "address",
          "name": "operator",
          "type": "address"
        },
        {
          "internalType": "bool",
          "name": "approved",
          "type": "bool"
        }
      ],
      "name": "setApprovalForAll",
      "outputs": [],
      "stateMutability": "nonpayable",
      "type": "function"
    },
    {
      "inputs": [
        {
          "internalType": "address",
          "name": "_fxChildTunnel",
          "type": "address"
        }
      ],
      "name": "setFxChildTunnel",
      "outputs": [],
      "stateMutability": "nonpayable",
      "type": "function"
    },
    {
      "inputs": [
        {
          "internalType": "uint256",
          "name": "price",
          "type": "uint256"
        }
      ],
      "name": "setPrice",
      "outputs": [],
      "stateMutability": "nonpayable",
      "type": "function"
    },
    {
      "inputs": [
        {
          "internalType": "bytes4",
          "name": "interfaceId",
          "type": "bytes4"
        }
      ],
      "name": "supportsInterface",
      "outputs": [
        {
          "internalType": "bool",
          "name": "",
          "type": "bool"
        }
      ],
      "stateMutability": "view",
      "type": "function"
    },
    {
      "inputs": [],
      "name": "symbol",
      "outputs": [
        {
          "internalType": "string",
          "name": "",
          "type": "string"
        }
      ],
      "stateMutability": "view",
      "type": "function"
    },
    {
      "inputs": [
        {
          "internalType": "uint256",
          "name": "tokenId",
          "type": "uint256"
        }
      ],
      "name": "tokenURI",
      "outputs": [
        {
          "internalType": "string",
          "name": "",
          "type": "string"
        }
      ],
      "stateMutability": "view",
      "type": "function"
    },
    {
      "inputs": [
        {
          "internalType": "address",
          "name": "from",
          "type": "address"
        },
        {
          "internalType": "address",
          "name": "to",
          "type": "address"
        },
        {
          "internalType": "uint256",
          "name": "tokenId",
          "type": "uint256"
        }
      ],
      "name": "transferFrom",
      "outputs": [],
      "stateMutability": "nonpayable",
      "type": "function"
    },
    {
      "inputs": [
        {
          "internalType": "address",
          "name": "newOwner",
          "type": "address"
        }
      ],
      "name": "transferOwnership",
      "outputs": [],
      "stateMutability": "nonpayable",
      "type": "function"
    },
    {
      "inputs": [],
      "name": "withdraw",
      "outputs": [],
      "stateMutability": "nonpayable",
      "type": "function"
    },
    {
      "stateMutability": "payable",
      "type": "receive"
    }
  ],
  "transactionHash": "0x1adecdd12209a4c4372751dbc4404253d6302a77e0e0a6d2d17cf0fe4d968687",
  "args": [
    "0x2890bA17EfE978480615e330ecB65333b880928e",
    "0x3d1d3E34f7fB6D26245E6640E1c50710eFFf15bA"
  ],
  "solcInputHash": "754a6bb1a3b053daaa50d0aec4161dd5",
  "bytecode": "0x608060405267016345785d8a0000600c556005600d553480156200002257600080fd5b5060405162003a5a38038062003a5a83398101604081905262000045916200022c565b604080518082018252601481527f3078457373656e7469616c204661697244726f7000000000000000000000000060208083019182528351808501909452600884526704641495244524f560c41b90840152815185938593929091620000ae9160009162000169565b508051620000c490600190602084019062000169565b5050600780546001600160a01b039485166001600160a01b0319918216179091556006805493909416921691909117909155506200010b6200010562000113565b62000117565b5050620002a0565b3390565b600a80546001600160a01b038381166001600160a01b0319831681179093556040519116919082907f8be0079c531659141344cd1fd0a4f28419497f9722a3daafe3b4186f6b6457e090600090a35050565b828054620001779062000263565b90600052602060002090601f0160209004810192826200019b5760008555620001e6565b82601f10620001b657805160ff1916838001178555620001e6565b82800160010185558215620001e6579182015b82811115620001e6578251825591602001919060010190620001c9565b50620001f4929150620001f8565b5090565b5b80821115620001f45760008155600101620001f9565b80516001600160a01b03811681146200022757600080fd5b919050565b600080604083850312156200023f578182fd5b6200024a836200020f565b91506200025a602084016200020f565b90509250929050565b6002810460018216806200027857607f821691505b602082108114156200029a57634e487b7160e01b600052602260045260246000fd5b50919050565b6137aa80620002b06000396000f3fe6080604052600436106101bb5760003560e01c80638da5cb5b116100ec578063bf5839031161008a578063de9b771f11610064578063de9b771f1461048b578063e985e9c5146104a0578063f2fde38b146104c0578063f953cec7146104e0576101c2565b8063bf58390314610441578063c0857ba014610456578063c87b56dd1461046b576101c2565b8063972c4928116100c6578063972c4928146103cc578063a22cb465146103e1578063aea4e49e14610401578063b88d4fde14610421576101c2565b80638da5cb5b1461038257806391b7f5ed1461039757806395d89b41146103b7576101c2565b80633ccfd60b116101595780636352211e116101335780636352211e146103185780636817c76c1461033857806370a082311461034d578063715018a61461036d576101c2565b80633ccfd60b146102c357806342842e0e146102d8578063607f2d42146102f8576101c2565b8063095ea7b311610195578063095ea7b31461024c5780630e387de61461026e57806323b872dd1461029057806330438e01146102b0576101c2565b806301ffc9a7146101c757806306fdde03146101fd578063081812fc1461021f576101c2565b366101c257005b600080fd5b3480156101d357600080fd5b506101e76101e2366004612b2f565b610500565b6040516101f49190612d51565b60405180910390f35b34801561020957600080fd5b50610212610548565b6040516101f49190612d65565b34801561022b57600080fd5b5061023f61023a366004612acb565b6105da565b6040516101f49190612cdc565b34801561025857600080fd5b5061026c610267366004612aa0565b610626565b005b34801561027a57600080fd5b506102836106be565b6040516101f49190612d5c565b34801561029c57600080fd5b5061026c6102ab3660046129c6565b6106e2565b61026c6102be366004612b67565b61071a565b3480156102cf57600080fd5b5061026c610838565b3480156102e457600080fd5b5061026c6102f33660046129c6565b6108aa565b34801561030457600080fd5b506101e7610313366004612acb565b6108c5565b34801561032457600080fd5b5061023f610333366004612acb565b6108da565b34801561034457600080fd5b5061028361090f565b34801561035957600080fd5b50610283610368366004612956565b610915565b34801561037957600080fd5b5061026c610959565b34801561038e57600080fd5b5061023f6109a4565b3480156103a357600080fd5b5061026c6103b2366004612acb565b6109b3565b3480156103c357600080fd5b506102126109f7565b3480156103d857600080fd5b5061023f610a06565b3480156103ed57600080fd5b5061026c6103fc366004612a6f565b610a15565b34801561040d57600080fd5b5061026c61041c366004612956565b610ae3565b34801561042d57600080fd5b5061026c61043c366004612a06565b610b2e565b34801561044d57600080fd5b50610283610b6d565b34801561046257600080fd5b5061023f610b73565b34801561047757600080fd5b50610212610486366004612acb565b610b82565b34801561049757600080fd5b5061023f610c05565b3480156104ac57600080fd5b506101e76104bb36600461298e565b610c14565b3480156104cc57600080fd5b5061026c6104db366004612956565b610c42565b3480156104ec57600080fd5b5061026c6104fb366004612b67565b610cb3565b60006001600160e01b031982166380ac58cd60e01b148061053157506001600160e01b03198216635b5e139f60e01b145b80610540575061054082610cf2565b90505b919050565b6060600080546105579061363e565b80601f01602080910402602001604051908101604052809291908181526020018280546105839061363e565b80156105d05780601f106105a5576101008083540402835291602001916105d0565b820191906000526020600020905b8154815290600101906020018083116105b357829003601f168201915b5050505050905090565b60006105e582610d0b565b61060a5760405162461bcd60e51b81526004016106019061314c565b60405180910390fd5b506000908152600460205260409020546001600160a01b031690565b6000610631826108da565b9050806001600160a01b0316836001600160a01b031614156106655760405162461bcd60e51b8152600401610601906132f9565b806001600160a01b0316610677610d28565b6001600160a01b031614806106935750610693816104bb610d28565b6106af5760405162461bcd60e51b815260040161060190613003565b6106b98383610d2c565b505050565b7f8c5261668696ce22758910d05bab8f186d6eb247ceac2af2e82c7dc17669b03681565b6106f36106ed610d28565b82610d9a565b61070f5760405162461bcd60e51b815260040161060190613371565b6106b9838383610e1f565b600c54341461073b5760405162461bcd60e51b8152600401610601906130f3565b336000908152600e602052604090205460ff161561076b5760405162461bcd60e51b815260040161060190612ed4565b600061077682610f4c565b905060008180602001905181019061078e9190612972565b90506001600160a01b03811633146107b85760405162461bcd60e51b815260040161060190612ed4565b6107cb816107c6600b61114a565b61114e565b6107d5600b61122d565b6001600d60008282546107e891906135d8565b9091555050600d5460405161081991610805913390602001612c74565b604051602081830303815290604052611236565b5050336000908152600e60205260409020805460ff1916600117905550565b610840610d28565b6001600160a01b03166108516109a4565b6001600160a01b0316146108775760405162461bcd60e51b815260040161060190613198565b6040514790339082156108fc029083906000818181858888f193505050501580156108a6573d6000803e3d6000fd5b5050565b6106b983838360405180602001604052806000815250610b2e565b60096020526000908152604090205460ff1681565b6000818152600260205260408120546001600160a01b0316806105405760405162461bcd60e51b8152600401610601906130aa565b600c5481565b60006001600160a01b03821661093d5760405162461bcd60e51b815260040161060190613060565b506001600160a01b031660009081526003602052604090205490565b610961610d28565b6001600160a01b03166109726109a4565b6001600160a01b0316146109985760405162461bcd60e51b815260040161060190613198565b6109a260006112a1565b565b600a546001600160a01b031690565b6109bb610d28565b6001600160a01b03166109cc6109a4565b6001600160a01b0316146109f25760405162461bcd60e51b815260040161060190613198565b600c55565b6060600180546105579061363e565b6008546001600160a01b031681565b610a1d610d28565b6001600160a01b0316826001600160a01b03161415610a4e5760405162461bcd60e51b815260040161060190612f80565b8060056000610a5b610d28565b6001600160a01b03908116825260208083019390935260409182016000908120918716808252919093529120805460ff191692151592909217909155610a9f610d28565b6001600160a01b03167f17307eab39ab6107e8899845ad3d59bd9653f200f220920489ca2b5937696c3183604051610ad79190612d51565b60405180910390a35050565b6008546001600160a01b031615610b0c5760405162461bcd60e51b815260040161060190612d78565b600880546001600160a01b0319166001600160a01b0392909216919091179055565b610b3f610b39610d28565b83610d9a565b610b5b5760405162461bcd60e51b815260040161060190613371565b610b67848484846112f3565b50505050565b600d5481565b6007546001600160a01b031681565b6060610b8d82610d0b565b610ba95760405162461bcd60e51b815260040161060190613216565b6000610bb3611326565b90506000815111610bd35760405180602001604052806000815250610bfe565b80610bdd84611346565b604051602001610bee929190612c45565b6040516020818303038152906040525b9392505050565b6006546001600160a01b031681565b6001600160a01b03918216600090815260056020908152604080832093909416825291909152205460ff1690565b610c4a610d28565b6001600160a01b0316610c5b6109a4565b6001600160a01b031614610c815760405162461bcd60e51b815260040161060190613198565b6001600160a01b038116610ca75760405162461bcd60e51b815260040161060190612e14565b610cb0816112a1565b50565b610cbb610d28565b6001600160a01b0316610ccc6109a4565b6001600160a01b031614610cb05760405162461bcd60e51b815260040161060190613198565b6001600160e01b031981166301ffc9a760e01b14919050565b6000908152600260205260409020546001600160a01b0316151590565b3390565b600081815260046020526040902080546001600160a01b0319166001600160a01b0384169081179091558190610d61826108da565b6001600160a01b03167f8c5be1e5ebec7d5bd14f71427d1e84f3dd0314c0f7b2291e5b200ac8c7c3b92560405160405180910390a45050565b6000610da582610d0b565b610dc15760405162461bcd60e51b815260040161060190612fb7565b6000610dcc836108da565b9050806001600160a01b0316846001600160a01b03161480610e075750836001600160a01b0316610dfc846105da565b6001600160a01b0316145b80610e175750610e178185610c14565b949350505050565b826001600160a01b0316610e32826108da565b6001600160a01b031614610e585760405162461bcd60e51b8152600401610601906131cd565b6001600160a01b038216610e7e5760405162461bcd60e51b815260040161060190612f3c565b610e898383836106b9565b610e94600082610d2c565b6001600160a01b0383166000908152600360205260408120805460019290610ebd9084906135d8565b90915550506001600160a01b0382166000908152600360205260408120805460019290610eeb908490613457565b909155505060008181526002602052604080822080546001600160a01b0319166001600160a01b0386811691821790925591518493918716917fddf252ad1be2c89b69c2b068fc378daa952ba7f163c4a11628f55a4df523b3ef91a4505050565b60606000610f5983611460565b90506000610f6682611490565b90506000610f73836114c7565b9050600081610f81846114fe565b610f8a866116f3565b604051602001610f9c93929190612c94565b60408051601f1981840301815291815281516020928301206000818152600990935291205490915060ff1615610fe45760405162461bcd60e51b815260040161060190612ef8565b6000818152600960205260408120805460ff191660011790556110068561171d565b905060006110138261182a565b905061101e816118b9565b6008546001600160a01b0390811691161461104b5760405162461bcd60e51b8152600401610601906133c2565b6000611056876118f0565b90506110746110648461191a565b8761106e8a611921565b8461194b565b6110905760405162461bcd60e51b815260040161060190612e91565b6110be8561109d89611c49565b6110a68a611c73565b846110b08c611c9d565b6110b98d611cc7565b611cf1565b5060006110ca83611df9565b90507f8c5261668696ce22758910d05bab8f186d6eb247ceac2af2e82c7dc17669b0366111006110fb836000611e3c565b611e76565b1461111d5760405162461bcd60e51b81526004016106019061333a565b600061112884611ef1565b80602001905181019061113b9190612b99565b9b9a5050505050505050505050565b5490565b6001600160a01b0382166111745760405162461bcd60e51b815260040161060190613117565b61117d81610d0b565b1561119a5760405162461bcd60e51b815260040161060190612e5a565b6111a6600083836106b9565b6001600160a01b03821660009081526003602052604081208054600192906111cf908490613457565b909155505060008181526002602052604080822080546001600160a01b0319166001600160a01b03861690811790915590518392907fddf252ad1be2c89b69c2b068fc378daa952ba7f163c4a11628f55a4df523b3ef908290a45050565b80546001019055565b60065460085460405163b472047760e01b81526001600160a01b039283169263b47204779261126c929116908590600401612d2d565b600060405180830381600087803b15801561128657600080fd5b505af115801561129a573d6000803e3d6000fd5b5050505050565b600a80546001600160a01b038381166001600160a01b0319831681179093556040519116919082907f8be0079c531659141344cd1fd0a4f28419497f9722a3daafe3b4186f6b6457e090600090a35050565b6112fe848484610e1f565b61130a84848484611f1b565b610b675760405162461bcd60e51b815260040161060190612dc2565b606060405180608001604052806043815260200161373260439139905090565b60608161136b57506040805180820190915260018152600360fc1b6020820152610543565b8160005b8115611395578061137f81613673565b915061138e9050600a8361346f565b915061136f565b6000816001600160401b038111156113bd57634e487b7160e01b600052604160045260246000fd5b6040519080825280601f01601f1916602001820160405280156113e7576020820181803683370190505b5090505b8415610e17576113fc6001836135d8565b9150611409600a8661368e565b611414906030613457565b60f81b81838151811061143757634e487b7160e01b600052603260045260246000fd5b60200101906001600160f81b031916908160001a905350611459600a8661346f565b94506113eb565b611468612897565b600061147b61147684612033565b612058565b60408051602081019091529081529392505050565b606061054082600001516008815181106114ba57634e487b7160e01b600052603260045260246000fd5b602002602001015161217d565b600061054082600001516002815181106114f157634e487b7160e01b600052603260045260246000fd5b6020026020010151611e76565b6040805160208101909152600081528151606091901561054057600080611526600086612227565b60f81c9050600181148061153d57508060ff166003145b156116005760018551600261155291906135b9565b61155c91906135d8565b6001600160401b0381111561158157634e487b7160e01b600052604160045260246000fd5b6040519080825280601f01601f1916602001820160405280156115ab576020820181803683370190505b50925060006115bb600187612227565b905080846000815181106115df57634e487b7160e01b600052603260045260246000fd5b60200101906001600160f81b031916908160001a9053506001925050611671565b60028551600261161091906135b9565b61161a91906135d8565b6001600160401b0381111561163f57634e487b7160e01b600052604160045260246000fd5b6040519080825280601f01601f191660200182016040528015611669576020820181803683370190505b509250600091505b60ff82165b83518110156116e9576116a061168f60ff8516836135d8565b61169a906002613457565b87612227565b8482815181106116c057634e487b7160e01b600052603260045260246000fd5b60200101906001600160f81b031916908160001a905350806116e181613673565b915050611676565b5050509050919050565b600061054082600001516009815181106114f157634e487b7160e01b600052603260045260246000fd5b6117256128aa565b61174d82600001516006815181106114ba57634e487b7160e01b600052603260045260246000fd5b6020820181905260009061176090612033565b905061176b816122c4565b156117805761177981612058565b8252611816565b60208201518051600090611796906001906135d8565b6001600160401b038111156117bb57634e487b7160e01b600052604160045260246000fd5b6040519080825280601f01601f1916602001820160405280156117e5576020820181803683370190505b509050600080836021019150826020019050611803828285516122fe565b61180f61147684612033565b8652505050505b61181f836116f3565b604083015250919050565b6118326128cb565b6000611869836000015160038151811061185c57634e487b7160e01b600052603260045260246000fd5b6020026020010151612058565b83604001518151811061188c57634e487b7160e01b600052603260045260246000fd5b6020026020010151905060405180604001604052808281526020016118b083612058565b90529392505050565b600061054082602001516000815181106118e357634e487b7160e01b600052603260045260246000fd5b6020026020010151612377565b600061054082600001516005815181106114f157634e487b7160e01b600052603260045260246000fd5b6020015190565b606061054082600001516007815181106114ba57634e487b7160e01b600052603260045260246000fd5b60008061195784612033565b9050600061196482612058565b9050606080856000806119768b6114fe565b9050805160001415611992576000975050505050505050610e17565b60005b8651811015611c395781518311156119b857600098505050505050505050610e17565b6119e88782815181106119db57634e487b7160e01b600052603260045260246000fd5b6020026020010151612391565b955085805190602001208414611a0957600098505050505050505050610e17565b611a2c87828151811061185c57634e487b7160e01b600052603260045260246000fd5b9450845160111415611b2b578151831415611a9c578c80519060200120611a6d866010815181106114ba57634e487b7160e01b600052603260045260246000fd5b805190602001201415611a8b57600198505050505050505050610e17565b600098505050505050505050610e17565b6000828481518110611abe57634e487b7160e01b600052603260045260246000fd5b016020015160f81c90506010811115611ae35760009950505050505050505050610e17565b611b16868260ff1681518110611b0957634e487b7160e01b600052603260045260246000fd5b602002602001015161241f565b9450611b23600185613457565b935050611c27565b845160021415611a8b576000611b65611b5e876000815181106114ba57634e487b7160e01b600052603260045260246000fd5b848661244d565b8351909150611b748286613457565b1415611bd7578d80519060200120611ba6876001815181106114ba57634e487b7160e01b600052603260045260246000fd5b805190602001201415611bc55760019950505050505050505050610e17565b60009950505050505050505050610e17565b80611bee5760009950505050505050505050610e17565b611bf88185613457565b9350611c1e86600181518110611b0957634e487b7160e01b600052603260045260246000fd5b9450611c279050565b80611c3181613673565b915050611995565b5050505050505050949350505050565b600061054082600001516003815181106114f157634e487b7160e01b600052603260045260246000fd5b600061054082600001516004815181106114f157634e487b7160e01b600052603260045260246000fd5b600061054082600001516000815181106114f157634e487b7160e01b600052603260045260246000fd5b606061054082600001516001815181106114ba57634e487b7160e01b600052603260045260246000fd5b6007546040516320a9cea560e11b81526000918291829182916001600160a01b03909116906341539d4a90611d2a908990600401612d5c565b60a06040518083038186803b158015611d4257600080fd5b505afa158015611d56573d6000803e3d6000fd5b505050506040513d601f19601f82011682018060405250810190611d7a9190612ae3565b5093505092509250611dd0828b611d9191906135d8565b84878d8d8d8d604051602001611daa9493929190612cc1565b6040516020818303038152906040528051906020012061257f909392919063ffffffff16565b611dec5760405162461bcd60e51b8152600401610601906132c2565b9998505050505050505050565b611e01612897565b6040518060200160405280611e34846020015160018151811061185c57634e487b7160e01b600052603260045260246000fd5b905292915050565b611e446128eb565b8251805183908110611e6657634e487b7160e01b600052603260045260246000fd5b6020026020010151905092915050565b805160009015801590611e8b57508151602110155b611e9457600080fd5b6000611ea38360200151612693565b90506000818460000151611eb791906135d8565b9050600080838660200151611ecc9190613457565b9050805191506020831015611ee857826020036101000a820491505b50949350505050565b606061054082602001516002815181106114ba57634e487b7160e01b600052603260045260246000fd5b6000611f2f846001600160a01b031661271e565b1561202b57836001600160a01b031663150b7a02611f4b610d28565b8786866040518563ffffffff1660e01b8152600401611f6d9493929190612cf0565b602060405180830381600087803b158015611f8757600080fd5b505af1925050508015611fb7575060408051601f3d908101601f19168201909252611fb491810190612b4b565b60015b612011573d808015611fe5576040519150601f19603f3d011682016040523d82523d6000602084013e611fea565b606091505b5080516120095760405162461bcd60e51b815260040161060190612dc2565b805181602001fd5b6001600160e01b031916630a85bd0160e11b149050610e17565b506001610e17565b61203b6128eb565b506040805180820190915281518152602082810190820152919050565b6060612063826122c4565b61206c57600080fd5b600061207783612724565b90506000816001600160401b038111156120a157634e487b7160e01b600052604160045260246000fd5b6040519080825280602002602001820160405280156120da57816020015b6120c76128eb565b8152602001906001900390816120bf5790505b50905060006120ec8560200151612693565b85602001516120fb9190613457565b90506000805b8481101561217257612112836127a7565b915060405180604001604052808381526020018481525084828151811061214957634e487b7160e01b600052603260045260246000fd5b602090810291909101015261215e8284613457565b92508061216a81613673565b915050612101565b509195945050505050565b805160609061218b57600080fd5b600061219a8360200151612693565b905060008184600001516121ae91906135d8565b90506000816001600160401b038111156121d857634e487b7160e01b600052604160045260246000fd5b6040519080825280601f01601f191660200182016040528015612202576020820181803683370190505b5090506000816020019050611ee88487602001516122209190613457565b828561284b565b600061223460028461368e565b1561227c5760108261224760028661346f565b8151811061226557634e487b7160e01b600052603260045260246000fd5b0160200151612277919060f81c6136a2565b6122ba565b60108261228a60028661346f565b815181106122a857634e487b7160e01b600052603260045260246000fd5b01602001516122ba919060f81c613483565b60f81b9392505050565b80516000906122d557506000610543565b6020820151805160001a9060c08210156122f457600092505050610543565b5060019392505050565b80612308576106b9565b60208110612340578251825261231f602084613457565b925061232c602083613457565b91506123396020826135d8565b9050612308565b6000600161234f8360206135d8565b61235b906101006134eb565b61236591906135d8565b84518451821691191617835250505050565b805160009060151461238857600080fd5b61054082611e76565b6060600082600001516001600160401b038111156123bf57634e487b7160e01b600052604160045260246000fd5b6040519080825280601f01601f1916602001820160405280156123e9576020820181803683370190505b5090508051600014156123fd579050610543565b6000816020019050612418846020015182866000015161284b565b5092915050565b805160009060211461243057600080fd5b600080836020015160016124449190613457565b51949350505050565b6000808061245a866114fe565b9050600081516001600160401b0381111561248557634e487b7160e01b600052604160045260246000fd5b6040519080825280601f01601f1916602001820160405280156124af576020820181803683370190505b509050845b82516124c09087613457565b81101561254f5760008782815181106124e957634e487b7160e01b600052603260045260246000fd5b01602001516001600160f81b0319169050808361250689856135d8565b8151811061252457634e487b7160e01b600052603260045260246000fd5b60200101906001600160f81b031916908160001a90535050808061254790613673565b9150506124b4565b5080805190602001208280519060200120141561256f5781519250612574565b600092505b509095945050505050565b60006020825161258f919061368e565b156125ac5760405162461bcd60e51b815260040161060190613265565b6000602083516125bc919061346f565b90506125c98160026134eb565b85106125e75760405162461bcd60e51b815260040161060190613293565b60008660205b855181116126855785810151925061260660028961368e565b61263a57818360405160200161261d929190612c37565b604051602081830303815290604052805190602001209150612666565b828260405160200161264d929190612c37565b6040516020818303038152906040528051906020012091505b61267160028961346f565b975061267e602082613457565b90506125ed565b509094149695505050505050565b8051600090811a60808110156126ad576000915050610543565b60b88110806126c8575060c081108015906126c8575060f881105b156126d7576001915050610543565b60c081101561270c576126ec600160b86135ef565b6126f99060ff16826135d8565b612704906001613457565b915050610543565b6126ec600160f86135ef565b50919050565b3b151590565b805160009061273557506000610543565b6000806127458460200151612693565b84602001516127549190613457565b905060008460000151856020015161276c9190613457565b90505b8082101561279e57612780826127a7565b61278a9083613457565b91508261279681613673565b93505061276f565b50909392505050565b80516000908190811a60808110156127c25760019150612418565b60b88110156127e8576127d66080826135d8565b6127e1906001613457565b9150612418565b60c08110156128155760b78103600185019450806020036101000a85510460018201810193505050612418565b60f8811015612829576127d660c0826135d8565b60019390930151602084900360f7016101000a900490920160f5190192915050565b80612855576106b9565b6020811061288d578251825261286c602084613457565b9250612879602083613457565b91506128866020826135d8565b9050612855565b80612340576106b9565b6040518060200160405280606081525090565b60405180606001604052806060815260200160608152602001600081525090565b60405180604001604052806128de6128eb565b8152602001606081525090565b604051806040016040528060008152602001600081525090565b600082601f830112612915578081fd5b813561292861292382613430565b613407565b81815284602083860101111561293c578283fd5b816020850160208301379081016020019190915292915050565b600060208284031215612967578081fd5b8135610bfe81613706565b600060208284031215612983578081fd5b8151610bfe81613706565b600080604083850312156129a0578081fd5b82356129ab81613706565b915060208301356129bb81613706565b809150509250929050565b6000806000606084860312156129da578081fd5b83356129e581613706565b925060208401356129f581613706565b929592945050506040919091013590565b60008060008060808587031215612a1b578081fd5b8435612a2681613706565b93506020850135612a3681613706565b92506040850135915060608501356001600160401b03811115612a57578182fd5b612a6387828801612905565b91505092959194509250565b60008060408385031215612a81578182fd5b8235612a8c81613706565b9150602083013580151581146129bb578182fd5b60008060408385031215612ab2578182fd5b8235612abd81613706565b946020939093013593505050565b600060208284031215612adc578081fd5b5035919050565b600080600080600060a08688031215612afa578081fd5b855194506020860151935060408601519250606086015191506080860151612b2181613706565b809150509295509295909350565b600060208284031215612b40578081fd5b8135610bfe8161371b565b600060208284031215612b5c578081fd5b8151610bfe8161371b565b600060208284031215612b78578081fd5b81356001600160401b03811115612b8d578182fd5b610e1784828501612905565b600060208284031215612baa578081fd5b81516001600160401b03811115612bbf578182fd5b8201601f81018413612bcf578182fd5b8051612bdd61292382613430565b818152856020838501011115612bf1578384fd5b612c02826020830160208601613612565b95945050505050565b60008151808452612c23816020860160208601613612565b601f01601f19169290920160200192915050565b918252602082015260400190565b60008351612c57818460208801613612565b835190830190612c6b818360208801613612565b01949350505050565b91825260601b6bffffffffffffffffffffffff1916602082015260340190565b60008482528351612cac816020850160208801613612565b60209201918201929092526040019392505050565b93845260208401929092526040830152606082015260800190565b6001600160a01b0391909116815260200190565b6001600160a01b0385811682528416602082015260408101839052608060608201819052600090612d2390830184612c0b565b9695505050505050565b6001600160a01b0383168152604060208201819052600090610e1790830184612c0b565b901515815260200190565b90815260200190565b600060208252610bfe6020830184612c0b565b6020808252602a908201527f467842617365526f6f7454756e6e656c3a204348494c445f54554e4e454c5f4160408201526913149150511657d4d15560b21b606082015260800190565b60208082526032908201527f4552433732313a207472616e7366657220746f206e6f6e20455243373231526560408201527131b2b4bb32b91034b6b83632b6b2b73a32b960711b606082015260800190565b60208082526026908201527f4f776e61626c653a206e6577206f776e657220697320746865207a65726f206160408201526564647265737360d01b606082015260800190565b6020808252601c908201527f4552433732313a20746f6b656e20616c7265616479206d696e74656400000000604082015260600190565b60208082526023908201527f4678526f6f7454756e6e656c3a20494e56414c49445f524543454950545f505260408201526227a7a360e91b606082015260800190565b6020808252600a908201526946443a6d57503a34303160b01b604082015260600190565b60208082526024908201527f4678526f6f7454756e6e656c3a20455849545f414c52454144595f50524f434560408201526314d4d15160e21b606082015260800190565b60208082526024908201527f4552433732313a207472616e7366657220746f20746865207a65726f206164646040820152637265737360e01b606082015260800190565b60208082526019908201527f4552433732313a20617070726f766520746f2063616c6c657200000000000000604082015260600190565b6020808252602c908201527f4552433732313a206f70657261746f7220717565727920666f72206e6f6e657860408201526b34b9ba32b73a103a37b5b2b760a11b606082015260800190565b60208082526038908201527f4552433732313a20617070726f76652063616c6c6572206973206e6f74206f7760408201527f6e6572206e6f7220617070726f76656420666f7220616c6c0000000000000000606082015260800190565b6020808252602a908201527f4552433732313a2062616c616e636520717565727920666f7220746865207a65604082015269726f206164647265737360b01b606082015260800190565b60208082526029908201527f4552433732313a206f776e657220717565727920666f72206e6f6e657869737460408201526832b73a103a37b5b2b760b91b606082015260800190565b6020808252600a908201526923221d36aba81d1a181960b11b604082015260600190565b6020808252818101527f4552433732313a206d696e7420746f20746865207a65726f2061646472657373604082015260600190565b6020808252602c908201527f4552433732313a20617070726f76656420717565727920666f72206e6f6e657860408201526b34b9ba32b73a103a37b5b2b760a11b606082015260800190565b6020808252818101527f4f776e61626c653a2063616c6c6572206973206e6f7420746865206f776e6572604082015260600190565b60208082526029908201527f4552433732313a207472616e73666572206f6620746f6b656e2074686174206960408201526839903737ba1037bbb760b91b606082015260800190565b6020808252602f908201527f4552433732314d657461646174613a2055524920717565727920666f72206e6f60408201526e3732bc34b9ba32b73a103a37b5b2b760891b606082015260800190565b602080825260149082015273092dcecc2d8d2c840e0e4dedecc40d8cadccee8d60631b604082015260600190565b6020808252601590820152744c65616620696e64657820697320746f6f2062696760581b604082015260600190565b6020808252601c908201527f4678526f6f7454756e6e656c3a20494e56414c49445f48454144455200000000604082015260600190565b60208082526021908201527f4552433732313a20617070726f76616c20746f2063757272656e74206f776e656040820152603960f91b606082015260800190565b6020808252601f908201527f4678526f6f7454756e6e656c3a20494e56414c49445f5349474e415455524500604082015260600190565b60208082526031908201527f4552433732313a207472616e736665722063616c6c6572206973206e6f74206f6040820152701ddb995c881b9bdc88185c1c1c9bdd9959607a1b606082015260800190565b60208082526025908201527f4678526f6f7454756e6e656c3a20494e56414c49445f46585f4348494c445f54604082015264155393915360da1b606082015260800190565b6040518181016001600160401b0381118282101715613428576134286136f0565b604052919050565b60006001600160401b03821115613449576134496136f0565b50601f01601f191660200190565b6000821982111561346a5761346a6136c4565b500190565b60008261347e5761347e6136da565b500490565b600060ff831680613496576134966136da565b8060ff84160491505092915050565b80825b60018086116134b757506134e2565b8187048211156134c9576134c96136c4565b808616156134d657918102915b9490941c9380026134a8565b94509492505050565b6000610bfe600019848460008261350457506001610bfe565b8161351157506000610bfe565b816001811461352757600281146135315761355e565b6001915050610bfe565b60ff841115613542576135426136c4565b6001841b915084821115613558576135586136c4565b50610bfe565b5060208310610133831016604e8410600b8410161715613591575081810a8381111561358c5761358c6136c4565b610bfe565b61359e84848460016134a5565b8086048211156135b0576135b06136c4565b02949350505050565b60008160001904831182151516156135d3576135d36136c4565b500290565b6000828210156135ea576135ea6136c4565b500390565b600060ff821660ff841680821015613609576136096136c4565b90039392505050565b60005b8381101561362d578181015183820152602001613615565b83811115610b675750506000910152565b60028104600182168061365257607f821691505b6020821081141561271857634e487b7160e01b600052602260045260246000fd5b6000600019821415613687576136876136c4565b5060010190565b60008261369d5761369d6136da565b500690565b600060ff8316806136b5576136b56136da565b8060ff84160691505092915050565b634e487b7160e01b600052601160045260246000fd5b634e487b7160e01b600052601260045260246000fd5b634e487b7160e01b600052604160045260246000fd5b6001600160a01b0381168114610cb057600080fd5b6001600160e01b031981168114610cb057600080fdfe697066733a2f2f62616679626569636f65366f6532796f65756263706c6a717165633376756c346e346c377a7a37616467726a6567696a6c77336e647833347663652fa26469706673582212202c562c8b4c356d960ddec1148bc0d252ad043032bc71948c8a16bb9a1f3bc52964736f6c63430008000033",
  "devdoc": {
    "details": "This contract should be deployed to Ethereum mainnet and is the ERC721 contract for your NFT.",
    "kind": "dev",
    "methods": {
      "approve(address,uint256)": {
        "details": "See {IERC721-approve}."
      },
      "balanceOf(address)": {
        "details": "See {IERC721-balanceOf}."
      },
      "getApproved(uint256)": {
        "details": "See {IERC721-getApproved}."
      },
      "isApprovedForAll(address,address)": {
        "details": "See {IERC721-isApprovedForAll}."
      },
      "mintWithProof(bytes)": {
        "details": "We use Polygon to make registration and random selection inexpensive, then allow eligible minters to generate an L2 proof of bytes. Once the Polygon CheckpointManager indexes the L2 transaction, the proof can be used as a \"mint pass\" in this function. Minting is *expensive* in gas units but users may find this approach preferable to FCFS gas auctions.",
        "params": {
          "inputData": "proof generated for transaction via Matic SDK - see https://docs.polygon.technology/docs/develop/l1-l2-communication/state-transfer"
        }
      },
      "name()": {
        "details": "See {IERC721Metadata-name}."
      },
      "owner()": {
        "details": "Returns the address of the current owner."
      },
      "ownerOf(uint256)": {
        "details": "See {IERC721-ownerOf}."
      },
      "receiveMessage(bytes)": {
        "params": {
          "inputData": "proof generated for transaction - see https://docs.matic.network/docs/develop/l1-l2-communication/state-transfer"
        }
      },
      "renounceOwnership()": {
        "details": "Leaves the contract without owner. It will not be possible to call `onlyOwner` functions anymore. Can only be called by the current owner. NOTE: Renouncing ownership will leave the contract without an owner, thereby removing any functionality that is only available to the owner."
      },
      "safeTransferFrom(address,address,uint256)": {
        "details": "See {IERC721-safeTransferFrom}."
      },
      "safeTransferFrom(address,address,uint256,bytes)": {
        "details": "See {IERC721-safeTransferFrom}."
      },
      "setApprovalForAll(address,bool)": {
        "details": "See {IERC721-setApprovalForAll}."
      },
      "supportsInterface(bytes4)": {
        "details": "See {IERC165-supportsInterface}."
      },
      "symbol()": {
        "details": "See {IERC721Metadata-symbol}."
      },
      "tokenURI(uint256)": {
        "details": "See {IERC721Metadata-tokenURI}."
      },
      "transferFrom(address,address,uint256)": {
        "details": "See {IERC721-transferFrom}."
      },
      "transferOwnership(address)": {
        "details": "Transfers ownership of the contract to a new account (`newOwner`). Can only be called by the current owner."
      }
    },
    "title": "MintWithProof",
    "version": 1
  },
  "userdoc": {
    "kind": "user",
    "methods": {
      "mintWithProof(bytes)": {
        "notice": "Mint token with L2 proof"
      },
      "receiveMessage(bytes)": {
        "notice": "no-op override"
      },
      "setPrice(uint256)": {
        "notice": "I have a regrettable FOMO ramp in my first project so I want to be able to adjust price as I please"
      }
    },
    "notice": "This is a reference implementation for a fair NFT drop.",
    "version": 1
  },
  "storageLayout": {
    "storage": [
      {
        "astId": 3890,
        "contract": "contracts/MintWithProof/MintWithProof.sol:MintWithProof",
        "label": "_name",
        "offset": 0,
        "slot": "0",
        "type": "t_string_storage"
      },
      {
        "astId": 3892,
        "contract": "contracts/MintWithProof/MintWithProof.sol:MintWithProof",
        "label": "_symbol",
        "offset": 0,
        "slot": "1",
        "type": "t_string_storage"
      },
      {
        "astId": 3896,
        "contract": "contracts/MintWithProof/MintWithProof.sol:MintWithProof",
        "label": "_owners",
        "offset": 0,
        "slot": "2",
        "type": "t_mapping(t_uint256,t_address)"
      },
      {
        "astId": 3900,
        "contract": "contracts/MintWithProof/MintWithProof.sol:MintWithProof",
        "label": "_balances",
        "offset": 0,
        "slot": "3",
        "type": "t_mapping(t_address,t_uint256)"
      },
      {
        "astId": 3904,
        "contract": "contracts/MintWithProof/MintWithProof.sol:MintWithProof",
        "label": "_tokenApprovals",
        "offset": 0,
        "slot": "4",
        "type": "t_mapping(t_uint256,t_address)"
      },
      {
        "astId": 3910,
        "contract": "contracts/MintWithProof/MintWithProof.sol:MintWithProof",
        "label": "_operatorApprovals",
        "offset": 0,
        "slot": "5",
        "type": "t_mapping(t_address,t_mapping(t_address,t_bool))"
      },
      {
        "astId": 2353,
        "contract": "contracts/MintWithProof/MintWithProof.sol:MintWithProof",
        "label": "fxRoot",
        "offset": 0,
        "slot": "6",
        "type": "t_contract(IFxStateSender)2303"
      },
      {
        "astId": 2356,
        "contract": "contracts/MintWithProof/MintWithProof.sol:MintWithProof",
        "label": "checkpointManager",
        "offset": 0,
        "slot": "7",
        "type": "t_contract(ICheckpointManager)2321"
      },
      {
        "astId": 2358,
        "contract": "contracts/MintWithProof/MintWithProof.sol:MintWithProof",
        "label": "fxChildTunnel",
        "offset": 0,
        "slot": "8",
        "type": "t_address"
      },
      {
        "astId": 2362,
        "contract": "contracts/MintWithProof/MintWithProof.sol:MintWithProof",
        "label": "processedExits",
        "offset": 0,
        "slot": "9",
        "type": "t_mapping(t_bytes32,t_bool)"
      },
      {
        "astId": 3042,
        "contract": "contracts/MintWithProof/MintWithProof.sol:MintWithProof",
        "label": "_owner",
        "offset": 0,
        "slot": "10",
        "type": "t_address"
      },
      {
        "astId": 6737,
        "contract": "contracts/MintWithProof/MintWithProof.sol:MintWithProof",
        "label": "_tokenIdTracker",
        "offset": 0,
        "slot": "11",
        "type": "t_struct(Counter)5166_storage"
      },
      {
        "astId": 6740,
        "contract": "contracts/MintWithProof/MintWithProof.sol:MintWithProof",
        "label": "mintPrice",
        "offset": 0,
        "slot": "12",
        "type": "t_uint256"
      },
      {
        "astId": 6744,
        "contract": "contracts/MintWithProof/MintWithProof.sol:MintWithProof",
        "label": "remainingTokens",
        "offset": 0,
        "slot": "13",
        "type": "t_uint256"
      },
      {
        "astId": 6748,
        "contract": "contracts/MintWithProof/MintWithProof.sol:MintWithProof",
        "label": "exhaustedMinters",
        "offset": 0,
        "slot": "14",
        "type": "t_mapping(t_address,t_bool)"
      }
    ],
    "types": {
      "t_address": {
        "encoding": "inplace",
        "label": "address",
        "numberOfBytes": "20"
      },
      "t_bool": {
        "encoding": "inplace",
        "label": "bool",
        "numberOfBytes": "1"
      },
      "t_bytes32": {
        "encoding": "inplace",
        "label": "bytes32",
        "numberOfBytes": "32"
      },
      "t_contract(ICheckpointManager)2321": {
        "encoding": "inplace",
        "label": "contract ICheckpointManager",
        "numberOfBytes": "20"
      },
      "t_contract(IFxStateSender)2303": {
        "encoding": "inplace",
        "label": "contract IFxStateSender",
        "numberOfBytes": "20"
      },
      "t_mapping(t_address,t_bool)": {
        "encoding": "mapping",
        "key": "t_address",
        "label": "mapping(address => bool)",
        "numberOfBytes": "32",
        "value": "t_bool"
      },
      "t_mapping(t_address,t_mapping(t_address,t_bool))": {
        "encoding": "mapping",
        "key": "t_address",
        "label": "mapping(address => mapping(address => bool))",
        "numberOfBytes": "32",
        "value": "t_mapping(t_address,t_bool)"
      },
      "t_mapping(t_address,t_uint256)": {
        "encoding": "mapping",
        "key": "t_address",
        "label": "mapping(address => uint256)",
        "numberOfBytes": "32",
        "value": "t_uint256"
      },
      "t_mapping(t_bytes32,t_bool)": {
        "encoding": "mapping",
        "key": "t_bytes32",
        "label": "mapping(bytes32 => bool)",
        "numberOfBytes": "32",
        "value": "t_bool"
      },
      "t_mapping(t_uint256,t_address)": {
        "encoding": "mapping",
        "key": "t_uint256",
        "label": "mapping(uint256 => address)",
        "numberOfBytes": "32",
        "value": "t_address"
      },
      "t_string_storage": {
        "encoding": "bytes",
        "label": "string",
        "numberOfBytes": "32"
      },
      "t_struct(Counter)5166_storage": {
        "encoding": "inplace",
        "label": "struct Counters.Counter",
        "members": [
          {
            "astId": 5165,
            "contract": "contracts/MintWithProof/MintWithProof.sol:MintWithProof",
            "label": "_value",
            "offset": 0,
            "slot": "0",
            "type": "t_uint256"
          }
        ],
        "numberOfBytes": "32"
      },
      "t_uint256": {
        "encoding": "inplace",
        "label": "uint256",
        "numberOfBytes": "32"
      }
    }
  }
}