{
  "address": "0xAD4E886B924d849656AcB2b2cBDdBC619BEaCdc4",
  "abi": [
    {
      "inputs": [
        {
          "internalType": "address",
          "name": "_checkpointManager",
          "type": "address"
        },
        {
          "internalType": "address",
          "name": "_fxRoot",
          "type": "address"
        }
      ],
      "stateMutability": "nonpayable",
      "type": "constructor"
    },
    {
      "anonymous": false,
      "inputs": [
        {
          "indexed": true,
          "internalType": "address",
          "name": "owner",
          "type": "address"
        },
        {
          "indexed": true,
          "internalType": "address",
          "name": "approved",
          "type": "address"
        },
        {
          "indexed": true,
          "internalType": "uint256",
          "name": "tokenId",
          "type": "uint256"
        }
      ],
      "name": "Approval",
      "type": "event"
    },
    {
      "anonymous": false,
      "inputs": [
        {
          "indexed": true,
          "internalType": "address",
          "name": "owner",
          "type": "address"
        },
        {
          "indexed": true,
          "internalType": "address",
          "name": "operator",
          "type": "address"
        },
        {
          "indexed": false,
          "internalType": "bool",
          "name": "approved",
          "type": "bool"
        }
      ],
      "name": "ApprovalForAll",
      "type": "event"
    },
    {
      "anonymous": false,
      "inputs": [
        {
          "indexed": true,
          "internalType": "address",
          "name": "previousOwner",
          "type": "address"
        },
        {
          "indexed": true,
          "internalType": "address",
          "name": "newOwner",
          "type": "address"
        }
      ],
      "name": "OwnershipTransferred",
      "type": "event"
    },
    {
      "anonymous": false,
      "inputs": [
        {
          "indexed": false,
          "internalType": "address",
          "name": "account",
          "type": "address"
        }
      ],
      "name": "Paused",
      "type": "event"
    },
    {
      "anonymous": false,
      "inputs": [
        {
          "indexed": true,
          "internalType": "bytes32",
          "name": "role",
          "type": "bytes32"
        },
        {
          "indexed": true,
          "internalType": "bytes32",
          "name": "previousAdminRole",
          "type": "bytes32"
        },
        {
          "indexed": true,
          "internalType": "bytes32",
          "name": "newAdminRole",
          "type": "bytes32"
        }
      ],
      "name": "RoleAdminChanged",
      "type": "event"
    },
    {
      "anonymous": false,
      "inputs": [
        {
          "indexed": true,
          "internalType": "bytes32",
          "name": "role",
          "type": "bytes32"
        },
        {
          "indexed": true,
          "internalType": "address",
          "name": "account",
          "type": "address"
        },
        {
          "indexed": true,
          "internalType": "address",
          "name": "sender",
          "type": "address"
        }
      ],
      "name": "RoleGranted",
      "type": "event"
    },
    {
      "anonymous": false,
      "inputs": [
        {
          "indexed": true,
          "internalType": "bytes32",
          "name": "role",
          "type": "bytes32"
        },
        {
          "indexed": true,
          "internalType": "address",
          "name": "account",
          "type": "address"
        },
        {
          "indexed": true,
          "internalType": "address",
          "name": "sender",
          "type": "address"
        }
      ],
      "name": "RoleRevoked",
      "type": "event"
    },
    {
      "anonymous": false,
      "inputs": [
        {
          "indexed": true,
          "internalType": "address",
          "name": "from",
          "type": "address"
        },
        {
          "indexed": true,
          "internalType": "address",
          "name": "to",
          "type": "address"
        },
        {
          "indexed": true,
          "internalType": "uint256",
          "name": "tokenId",
          "type": "uint256"
        }
      ],
      "name": "Transfer",
      "type": "event"
    },
    {
      "anonymous": false,
      "inputs": [
        {
          "indexed": false,
          "internalType": "address",
          "name": "account",
          "type": "address"
        }
      ],
      "name": "Unpaused",
      "type": "event"
    },
    {
      "inputs": [],
      "name": "DEFAULT_ADMIN_ROLE",
      "outputs": [
        {
          "internalType": "bytes32",
          "name": "",
          "type": "bytes32"
        }
      ],
      "stateMutability": "view",
      "type": "function"
    },
    {
      "inputs": [],
      "name": "MINTER_ROLE",
      "outputs": [
        {
          "internalType": "bytes32",
          "name": "",
          "type": "bytes32"
        }
      ],
      "stateMutability": "view",
      "type": "function"
    },
    {
      "inputs": [],
      "name": "PAUSER_ROLE",
      "outputs": [
        {
          "internalType": "bytes32",
          "name": "",
          "type": "bytes32"
        }
      ],
      "stateMutability": "view",
      "type": "function"
    },
    {
      "inputs": [],
      "name": "SEND_MESSAGE_EVENT_SIG",
      "outputs": [
        {
          "internalType": "bytes32",
          "name": "",
          "type": "bytes32"
        }
      ],
      "stateMutability": "view",
      "type": "function"
    },
    {
      "inputs": [
        {
          "internalType": "address",
          "name": "to",
          "type": "address"
        },
        {
          "internalType": "uint256",
          "name": "tokenId",
          "type": "uint256"
        }
      ],
      "name": "approve",
      "outputs": [],
      "stateMutability": "nonpayable",
      "type": "function"
    },
    {
      "inputs": [
        {
          "internalType": "address",
          "name": "",
          "type": "address"
        }
      ],
      "name": "approvedMinters",
      "outputs": [
        {
          "internalType": "bool",
          "name": "",
          "type": "bool"
        }
      ],
      "stateMutability": "view",
      "type": "function"
    },
    {
      "inputs": [
        {
          "internalType": "address",
          "name": "owner",
          "type": "address"
        }
      ],
      "name": "balanceOf",
      "outputs": [
        {
          "internalType": "uint256",
          "name": "",
          "type": "uint256"
        }
      ],
      "stateMutability": "view",
      "type": "function"
    },
    {
      "inputs": [
        {
          "internalType": "uint256",
          "name": "tokenId",
          "type": "uint256"
        }
      ],
      "name": "burn",
      "outputs": [],
      "stateMutability": "nonpayable",
      "type": "function"
    },
    {
      "inputs": [],
      "name": "checkpointManager",
      "outputs": [
        {
          "internalType": "contract ICheckpointManager",
          "name": "",
          "type": "address"
        }
      ],
      "stateMutability": "view",
      "type": "function"
    },
    {
      "inputs": [],
      "name": "fxChildTunnel",
      "outputs": [
        {
          "internalType": "address",
          "name": "",
          "type": "address"
        }
      ],
      "stateMutability": "view",
      "type": "function"
    },
    {
      "inputs": [],
      "name": "fxRoot",
      "outputs": [
        {
          "internalType": "contract IFxStateSender",
          "name": "",
          "type": "address"
        }
      ],
      "stateMutability": "view",
      "type": "function"
    },
    {
      "inputs": [
        {
          "internalType": "uint256",
          "name": "tokenId",
          "type": "uint256"
        }
      ],
      "name": "getApproved",
      "outputs": [
        {
          "internalType": "address",
          "name": "",
          "type": "address"
        }
      ],
      "stateMutability": "view",
      "type": "function"
    },
    {
      "inputs": [
        {
          "internalType": "bytes32",
          "name": "role",
          "type": "bytes32"
        }
      ],
      "name": "getRoleAdmin",
      "outputs": [
        {
          "internalType": "bytes32",
          "name": "",
          "type": "bytes32"
        }
      ],
      "stateMutability": "view",
      "type": "function"
    },
    {
      "inputs": [
        {
          "internalType": "bytes32",
          "name": "role",
          "type": "bytes32"
        },
        {
          "internalType": "uint256",
          "name": "index",
          "type": "uint256"
        }
      ],
      "name": "getRoleMember",
      "outputs": [
        {
          "internalType": "address",
          "name": "",
          "type": "address"
        }
      ],
      "stateMutability": "view",
      "type": "function"
    },
    {
      "inputs": [
        {
          "internalType": "bytes32",
          "name": "role",
          "type": "bytes32"
        }
      ],
      "name": "getRoleMemberCount",
      "outputs": [
        {
          "internalType": "uint256",
          "name": "",
          "type": "uint256"
        }
      ],
      "stateMutability": "view",
      "type": "function"
    },
    {
      "inputs": [
        {
          "internalType": "bytes32",
          "name": "role",
          "type": "bytes32"
        },
        {
          "internalType": "address",
          "name": "account",
          "type": "address"
        }
      ],
      "name": "grantRole",
      "outputs": [],
      "stateMutability": "nonpayable",
      "type": "function"
    },
    {
      "inputs": [
        {
          "internalType": "bytes32",
          "name": "role",
          "type": "bytes32"
        },
        {
          "internalType": "address",
          "name": "account",
          "type": "address"
        }
      ],
      "name": "hasRole",
      "outputs": [
        {
          "internalType": "bool",
          "name": "",
          "type": "bool"
        }
      ],
      "stateMutability": "view",
      "type": "function"
    },
    {
      "inputs": [
        {
          "internalType": "address",
          "name": "owner",
          "type": "address"
        },
        {
          "internalType": "address",
          "name": "operator",
          "type": "address"
        }
      ],
      "name": "isApprovedForAll",
      "outputs": [
        {
          "internalType": "bool",
          "name": "",
          "type": "bool"
        }
      ],
      "stateMutability": "view",
      "type": "function"
    },
    {
      "inputs": [],
      "name": "latestData",
      "outputs": [
        {
          "internalType": "bytes",
          "name": "",
          "type": "bytes"
        }
      ],
      "stateMutability": "view",
      "type": "function"
    },
    {
      "inputs": [
        {
          "internalType": "address",
          "name": "to",
          "type": "address"
        }
      ],
      "name": "mint",
      "outputs": [],
      "stateMutability": "nonpayable",
      "type": "function"
    },
    {
      "inputs": [],
      "name": "mintPrice",
      "outputs": [
        {
          "internalType": "uint256",
          "name": "",
          "type": "uint256"
        }
      ],
      "stateMutability": "view",
      "type": "function"
    },
    {
      "inputs": [
        {
          "internalType": "bytes",
          "name": "inputData",
          "type": "bytes"
        }
      ],
      "name": "mintWithProof",
      "outputs": [],
      "stateMutability": "payable",
      "type": "function"
    },
    {
      "inputs": [],
      "name": "name",
      "outputs": [
        {
          "internalType": "string",
          "name": "",
          "type": "string"
        }
      ],
      "stateMutability": "view",
      "type": "function"
    },
    {
      "inputs": [],
      "name": "owner",
      "outputs": [
        {
          "internalType": "address",
          "name": "",
          "type": "address"
        }
      ],
      "stateMutability": "view",
      "type": "function"
    },
    {
      "inputs": [
        {
          "internalType": "uint256",
          "name": "tokenId",
          "type": "uint256"
        }
      ],
      "name": "ownerOf",
      "outputs": [
        {
          "internalType": "address",
          "name": "",
          "type": "address"
        }
      ],
      "stateMutability": "view",
      "type": "function"
    },
    {
      "inputs": [],
      "name": "pause",
      "outputs": [],
      "stateMutability": "nonpayable",
      "type": "function"
    },
    {
      "inputs": [],
      "name": "paused",
      "outputs": [
        {
          "internalType": "bool",
          "name": "",
          "type": "bool"
        }
      ],
      "stateMutability": "view",
      "type": "function"
    },
    {
      "inputs": [
        {
          "internalType": "bytes32",
          "name": "",
          "type": "bytes32"
        }
      ],
      "name": "processedExits",
      "outputs": [
        {
          "internalType": "bool",
          "name": "",
          "type": "bool"
        }
      ],
      "stateMutability": "view",
      "type": "function"
    },
    {
      "inputs": [],
      "name": "publicMint",
      "outputs": [],
      "stateMutability": "payable",
      "type": "function"
    },
    {
      "inputs": [
        {
          "internalType": "bytes",
          "name": "inputData",
          "type": "bytes"
        }
      ],
      "name": "receiveMessage",
      "outputs": [],
      "stateMutability": "nonpayable",
      "type": "function"
    },
    {
      "inputs": [],
      "name": "remainingTokens",
      "outputs": [
        {
          "internalType": "uint256",
          "name": "",
          "type": "uint256"
        }
      ],
      "stateMutability": "view",
      "type": "function"
    },
    {
      "inputs": [],
      "name": "renounceOwnership",
      "outputs": [],
      "stateMutability": "nonpayable",
      "type": "function"
    },
    {
      "inputs": [
        {
          "internalType": "bytes32",
          "name": "role",
          "type": "bytes32"
        },
        {
          "internalType": "address",
          "name": "account",
          "type": "address"
        }
      ],
      "name": "renounceRole",
      "outputs": [],
      "stateMutability": "nonpayable",
      "type": "function"
    },
    {
      "inputs": [
        {
          "internalType": "bytes32",
          "name": "role",
          "type": "bytes32"
        },
        {
          "internalType": "address",
          "name": "account",
          "type": "address"
        }
      ],
      "name": "revokeRole",
      "outputs": [],
      "stateMutability": "nonpayable",
      "type": "function"
    },
    {
      "inputs": [
        {
          "internalType": "address",
          "name": "from",
          "type": "address"
        },
        {
          "internalType": "address",
          "name": "to",
          "type": "address"
        },
        {
          "internalType": "uint256",
          "name": "tokenId",
          "type": "uint256"
        }
      ],
      "name": "safeTransferFrom",
      "outputs": [],
      "stateMutability": "nonpayable",
      "type": "function"
    },
    {
      "inputs": [
        {
          "internalType": "address",
          "name": "from",
          "type": "address"
        },
        {
          "internalType": "address",
          "name": "to",
          "type": "address"
        },
        {
          "internalType": "uint256",
          "name": "tokenId",
          "type": "uint256"
        },
        {
          "internalType": "bytes",
          "name": "_data",
          "type": "bytes"
        }
      ],
      "name": "safeTransferFrom",
      "outputs": [],
      "stateMutability": "nonpayable",
      "type": "function"
    },
    {
      "inputs": [
        {
          "internalType": "address",
          "name": "operator",
          "type": "address"
        },
        {
          "internalType": "bool",
          "name": "approved",
          "type": "bool"
        }
      ],
      "name": "setApprovalForAll",
      "outputs": [],
      "stateMutability": "nonpayable",
      "type": "function"
    },
    {
      "inputs": [
        {
          "internalType": "address",
          "name": "_fxChildTunnel",
          "type": "address"
        }
      ],
      "name": "setFxChildTunnel",
      "outputs": [],
      "stateMutability": "nonpayable",
      "type": "function"
    },
    {
      "inputs": [
        {
          "internalType": "uint256",
          "name": "price",
          "type": "uint256"
        }
      ],
      "name": "setPrice",
      "outputs": [],
      "stateMutability": "nonpayable",
      "type": "function"
    },
    {
      "inputs": [
        {
          "internalType": "bytes4",
          "name": "interfaceId",
          "type": "bytes4"
        }
      ],
      "name": "supportsInterface",
      "outputs": [
        {
          "internalType": "bool",
          "name": "",
          "type": "bool"
        }
      ],
      "stateMutability": "view",
      "type": "function"
    },
    {
      "inputs": [],
      "name": "symbol",
      "outputs": [
        {
          "internalType": "string",
          "name": "",
          "type": "string"
        }
      ],
      "stateMutability": "view",
      "type": "function"
    },
    {
      "inputs": [
        {
          "internalType": "uint256",
          "name": "index",
          "type": "uint256"
        }
      ],
      "name": "tokenByIndex",
      "outputs": [
        {
          "internalType": "uint256",
          "name": "",
          "type": "uint256"
        }
      ],
      "stateMutability": "view",
      "type": "function"
    },
    {
      "inputs": [
        {
          "internalType": "address",
          "name": "owner",
          "type": "address"
        },
        {
          "internalType": "uint256",
          "name": "index",
          "type": "uint256"
        }
      ],
      "name": "tokenOfOwnerByIndex",
      "outputs": [
        {
          "internalType": "uint256",
          "name": "",
          "type": "uint256"
        }
      ],
      "stateMutability": "view",
      "type": "function"
    },
    {
      "inputs": [
        {
          "internalType": "uint256",
          "name": "tokenId",
          "type": "uint256"
        }
      ],
      "name": "tokenURI",
      "outputs": [
        {
          "internalType": "string",
          "name": "",
          "type": "string"
        }
      ],
      "stateMutability": "view",
      "type": "function"
    },
    {
      "inputs": [],
      "name": "totalSupply",
      "outputs": [
        {
          "internalType": "uint256",
          "name": "",
          "type": "uint256"
        }
      ],
      "stateMutability": "view",
      "type": "function"
    },
    {
      "inputs": [
        {
          "internalType": "address",
          "name": "from",
          "type": "address"
        },
        {
          "internalType": "address",
          "name": "to",
          "type": "address"
        },
        {
          "internalType": "uint256",
          "name": "tokenId",
          "type": "uint256"
        }
      ],
      "name": "transferFrom",
      "outputs": [],
      "stateMutability": "nonpayable",
      "type": "function"
    },
    {
      "inputs": [
        {
          "internalType": "address",
          "name": "newOwner",
          "type": "address"
        }
      ],
      "name": "transferOwnership",
      "outputs": [],
      "stateMutability": "nonpayable",
      "type": "function"
    },
    {
      "inputs": [],
      "name": "unpause",
      "outputs": [],
      "stateMutability": "nonpayable",
      "type": "function"
    },
    {
      "inputs": [],
      "name": "withdraw",
      "outputs": [],
      "stateMutability": "nonpayable",
      "type": "function"
    },
    {
      "stateMutability": "payable",
      "type": "receive"
    }
  ],
  "transactionHash": "0xc159b649e598b8905c858ecd24ce4b694821f258ac031b7e866e1dbda66907de",
  "args": [
    "0x2890bA17EfE978480615e330ecB65333b880928e",
    "0x3d1d3E34f7fB6D26245E6640E1c50710eFFf15bA"
  ],
  "solcInputHash": "51a4c9d0d1de4b7990533759d6209163",
  "bytecode": "0x608060405266470de4df82000060145560056015553480156200002157600080fd5b50604051620054e4380380620054e4833981016040819052620000449162000472565b81816040518060400160405280601481526020017f3078457373656e7469616c204661697244726f700000000000000000000000008152506040518060400160405280600881526020016704641495244524f560c41b815250604051806080016040528060438152602001620054a160439139825183908390620000d0906002906020850190620003af565b508051620000e6906003906020840190620003af565b5050600c805460ff191690555080516200010890600e906020840190620003af565b506200011f600062000119620001cc565b620001d0565b6200014e7f9f2df0fed2c77648de5860a4cc508cd0818c85b8b8a1ab4ceeef8d981c8956a662000119620001cc565b6200017d7f65d7a28e3265b37a6474929f336521b332c1681b933f6cb9f3376673440d862a62000119620001cc565b5050601080546001600160a01b039485166001600160a01b031991821617909155600f80549390941692169190911790915550620001c4620001be620001cc565b62000213565b5050620004e6565b3390565b620001e782826200026560201b620014271760201c565b60008281526001602090815260409091206200020e9183906200143162000275821b17901c565b505050565b601380546001600160a01b038381166001600160a01b0319831681179093556040519116919082907f8be0079c531659141344cd1fd0a4f28419497f9722a3daafe3b4186f6b6457e090600090a35050565b62000271828262000295565b5050565b60006200028c836001600160a01b0384166200031f565b90505b92915050565b620002a182826200036e565b62000271576000828152602081815260408083206001600160a01b03851684529091529020805460ff19166001179055620002db620001cc565b6001600160a01b0316816001600160a01b0316837f2f8788117e7eff1d82e926ec794901d17c78024a50270940304540a733656f0d60405160405180910390a45050565b60006200032d838362000397565b62000365575081546001818101845560008481526020808220909301849055845484825282860190935260409020919091556200028f565b5060006200028f565b6000918252602082815260408084206001600160a01b0393909316845291905290205460ff1690565b60009081526001919091016020526040902054151590565b828054620003bd90620004a9565b90600052602060002090601f016020900481019282620003e157600085556200042c565b82601f10620003fc57805160ff19168380011785556200042c565b828001600101855582156200042c579182015b828111156200042c5782518255916020019190600101906200040f565b506200043a9291506200043e565b5090565b5b808211156200043a57600081556001016200043f565b80516001600160a01b03811681146200046d57600080fd5b919050565b6000806040838503121562000485578182fd5b620004908362000455565b9150620004a06020840162000455565b90509250929050565b600281046001821680620004be57607f821691505b60208210811415620004e057634e487b7160e01b600052602260045260246000fd5b50919050565b614fab80620004f66000396000f3fe6080604052600436106102b25760003560e01c806370a0823111610175578063aea4e49e116100dc578063d539139311610095578063e63ab1e91161006f578063e63ab1e9146107b2578063e985e9c5146107c7578063f2fde38b146107e7578063f953cec714610807576102b9565b8063d539139314610768578063d547741f1461077d578063de9b771f1461079d576102b9565b8063aea4e49e146106be578063b88d4fde146106de578063bf583903146106fe578063c0857ba014610713578063c87b56dd14610728578063ca15c87314610748576102b9565b806391d148541161012e57806391d148541461061f57806395d89b411461063f578063972c492814610654578063a217fddf14610669578063a22cb4651461067e578063a8b5e6ea1461069e576102b9565b806370a0823114610580578063715018a6146105a05780638456cb59146105b55780638da5cb5b146105ca5780639010d07c146105df57806391b7f5ed146105ff576102b9565b806330438e01116102195780634f6ccce7116101d25780634f6ccce7146104d65780635c975abb146104f6578063607f2d421461050b5780636352211e1461052b5780636817c76c1461054b5780636a62784214610560576102b9565b806330438e011461043957806336568abe1461044c5780633ccfd60b1461046c5780633f4ba83a1461048157806342842e0e1461049657806342966c68146104b6576102b9565b806318160ddd1161026b57806318160ddd1461039c57806323b872dd146103b1578063248a9ca3146103d157806326092b83146103f15780632f2ff15d146103f95780632f745c5914610419576102b9565b806301ffc9a7146102be57806306fdde03146102f4578063081812fc14610316578063095ea7b3146103435780630e387de614610365578063142bc2ae14610387576102b9565b366102b957005b600080fd5b3480156102ca57600080fd5b506102de6102d9366004613f9d565b610827565b6040516102eb919061421d565b60405180910390f35b34801561030057600080fd5b5061030961083a565b6040516102eb9190614228565b34801561032257600080fd5b50610336610331366004613ef4565b6108cc565b6040516102eb91906141a8565b34801561034f57600080fd5b5061036361035e366004613e49565b610918565b005b34801561037157600080fd5b5061037a6109b0565b6040516102eb9190614157565b34801561039357600080fd5b506103096109d4565b3480156103a857600080fd5b5061037a610a62565b3480156103bd57600080fd5b506103636103cc366004613d6f565b610a68565b3480156103dd57600080fd5b5061037a6103ec366004613ef4565b610aa0565b610363610ab5565b34801561040557600080fd5b50610363610414366004613f0c565b610b69565b34801561042557600080fd5b5061037a610434366004613e49565b610b8b565b610363610447366004613fd5565b610be0565b34801561045857600080fd5b50610363610467366004613f0c565b610cd4565b34801561047857600080fd5b50610363610cf6565b34801561048d57600080fd5b50610363610d68565b3480156104a257600080fd5b506103636104b1366004613d6f565b610db8565b3480156104c257600080fd5b506103636104d1366004613ef4565b610dd3565b3480156104e257600080fd5b5061037a6104f1366004613ef4565b610e06565b34801561050257600080fd5b506102de610e61565b34801561051757600080fd5b506102de610526366004613ef4565b610e6a565b34801561053757600080fd5b50610336610546366004613ef4565b610e7f565b34801561055757600080fd5b5061037a610eb4565b34801561056c57600080fd5b5061036361057b366004613cff565b610eba565b34801561058c57600080fd5b5061037a61059b366004613cff565b610f1f565b3480156105ac57600080fd5b50610363610f63565b3480156105c157600080fd5b50610363610fac565b3480156105d657600080fd5b50610336610ffc565b3480156105eb57600080fd5b506103366105fa366004613f30565b61100b565b34801561060b57600080fd5b5061036361061a366004613ef4565b61102a565b34801561062b57600080fd5b506102de61063a366004613f0c565b61106e565b34801561064b57600080fd5b50610309611097565b34801561066057600080fd5b506103366110a6565b34801561067557600080fd5b5061037a6110b5565b34801561068a57600080fd5b50610363610699366004613e18565b6110ba565b3480156106aa57600080fd5b506102de6106b9366004613cff565b611188565b3480156106ca57600080fd5b506103636106d9366004613cff565b61119d565b3480156106ea57600080fd5b506103636106f9366004613daf565b6111e8565b34801561070a57600080fd5b5061037a611227565b34801561071f57600080fd5b5061033661122d565b34801561073457600080fd5b50610309610743366004613ef4565b61123c565b34801561075457600080fd5b5061037a610763366004613ef4565b6112be565b34801561077457600080fd5b5061037a6112d5565b34801561078957600080fd5b50610363610798366004613f0c565b6112f9565b3480156107a957600080fd5b50610336611303565b3480156107be57600080fd5b5061037a611312565b3480156107d357600080fd5b506102de6107e2366004613d37565b611336565b3480156107f357600080fd5b50610363610802366004613cff565b611364565b34801561081357600080fd5b50610363610822366004613fd5565b6113d2565b600061083282611446565b90505b919050565b60606002805461084990614e82565b80601f016020809104026020016040519081016040528092919081815260200182805461087590614e82565b80156108c25780601f10610897576101008083540402835291602001916108c2565b820191906000526020600020905b8154815290600101906020018083116108a557829003601f168201915b5050505050905090565b60006108d78261146b565b6108fc5760405162461bcd60e51b81526004016108f39061478f565b60405180910390fd5b506000908152600660205260409020546001600160a01b031690565b600061092382610e7f565b9050806001600160a01b0316836001600160a01b031614156109575760405162461bcd60e51b81526004016108f390614980565b806001600160a01b0316610969611488565b6001600160a01b031614806109855750610985816107e2611488565b6109a15760405162461bcd60e51b81526004016108f390614646565b6109ab838361148c565b505050565b7f8c5261668696ce22758910d05bab8f186d6eb247ceac2af2e82c7dc17669b03681565b601680546109e190614e82565b80601f0160208091040260200160405190810160405280929190818152602001828054610a0d90614e82565b8015610a5a5780601f10610a2f57610100808354040283529160200191610a5a565b820191906000526020600020905b815481529060010190602001808311610a3d57829003601f168201915b505050505081565b600a5490565b610a79610a73611488565b826114fa565b610a955760405162461bcd60e51b81526004016108f3906149f8565b6109ab83838361157f565b60009081526020819052604090206001015490565b3360009081526018602052604090205460ff16610ae45760405162461bcd60e51b81526004016108f39061495e565b6014543414610b055760405162461bcd60e51b81526004016108f3906147db565b336000818152601860205260409020805460ff19169055610b2590610eba565b600160156000828254610b389190614e05565b9091555050601554604051610b6791610b5391602001614157565b6040516020818303038152906040526116ac565b565b610b738282611717565b60008281526001602052604090206109ab9082611431565b6000610b9683610f1f565b8210610bb45760405162461bcd60e51b81526004016108f3906142e9565b506001600160a01b03821660009081526008602090815260408083208484529091529020545b92915050565b6014543414610c015760405162461bcd60e51b81526004016108f390614736565b336000908152601a602052604090205460ff1615610c315760405162461bcd60e51b81526004016108f390614490565b6000610c3c8261173b565b9050600081806020019051810190610c549190613d1b565b90506001600160a01b0381163314610c7e5760405162461bcd60e51b81526004016108f390614490565b610c8733610eba565b600160156000828254610c9a9190614e05565b9091555050601554604051610cb591610b5391602001614157565b5050336000908152601a60205260409020805460ff1916600117905550565b610cde8282611939565b60008281526001602052604090206109ab908261197b565b610cfe611488565b6001600160a01b0316610d0f610ffc565b6001600160a01b031614610d355760405162461bcd60e51b81526004016108f3906147fd565b6040514790339082156108fc029083906000818181858888f19350505050158015610d64573d6000803e3d6000fd5b5050565b610d947f65d7a28e3265b37a6474929f336521b332c1681b933f6cb9f3376673440d862a61063a611488565b610db05760405162461bcd60e51b81526004016108f390614b87565b610b67611990565b6109ab838383604051806020016040528060008152506111e8565b610dde610a73611488565b610dfa5760405162461bcd60e51b81526004016108f390614b37565b610e03816119fe565b50565b6000610e10610a62565b8210610e2e5760405162461bcd60e51b81526004016108f390614a49565b600a8281548110610e4f57634e487b7160e01b600052603260045260246000fd5b90600052602060002001549050919050565b600c5460ff1690565b60126020526000908152604090205460ff1681565b6000818152600460205260408120546001600160a01b0316806108325760405162461bcd60e51b81526004016108f3906146ed565b60145481565b610ee67f9f2df0fed2c77648de5860a4cc508cd0818c85b8b8a1ab4ceeef8d981c8956a661063a611488565b610f025760405162461bcd60e51b81526004016108f390614ada565b610f1581610f10600d611aa5565b611aa9565b610e03600d611b88565b60006001600160a01b038216610f475760405162461bcd60e51b81526004016108f3906146a3565b506001600160a01b031660009081526005602052604090205490565b610f6b611488565b6001600160a01b0316610f7c610ffc565b6001600160a01b031614610fa25760405162461bcd60e51b81526004016108f3906147fd565b610b676000611b91565b610fd87f65d7a28e3265b37a6474929f336521b332c1681b933f6cb9f3376673440d862a61063a611488565b610ff45760405162461bcd60e51b81526004016108f3906144f8565b610b67611be3565b6013546001600160a01b031690565b60008281526001602052604081206110239083611c3e565b9392505050565b611032611488565b6001600160a01b0316611043610ffc565b6001600160a01b0316146110695760405162461bcd60e51b81526004016108f3906147fd565b601455565b6000918252602082815260408084206001600160a01b0393909316845291905290205460ff1690565b60606003805461084990614e82565b6011546001600160a01b031681565b600081565b6110c2611488565b6001600160a01b0316826001600160a01b031614156110f35760405162461bcd60e51b81526004016108f390614599565b8060076000611100611488565b6001600160a01b03908116825260208083019390935260409182016000908120918716808252919093529120805460ff191692151592909217909155611144611488565b6001600160a01b03167f17307eab39ab6107e8899845ad3d59bd9653f200f220920489ca2b5937696c318360405161117c919061421d565b60405180910390a35050565b60186020526000908152604090205460ff1681565b6011546001600160a01b0316156111c65760405162461bcd60e51b81526004016108f390614334565b601180546001600160a01b0319166001600160a01b0392909216919091179055565b6111f96111f3611488565b836114fa565b6112155760405162461bcd60e51b81526004016108f3906149f8565b61122184848484611c4a565b50505050565b60155481565b6010546001600160a01b031681565b60606112478261146b565b6112635760405162461bcd60e51b81526004016108f39061487b565b600061126d611c7d565b9050600081511161128d5760405180602001604052806000815250611023565b8061129784611c8c565b6040516020016112a89291906140b3565b6040516020818303038152906040529392505050565b600081815260016020526040812061083290611da6565b7f9f2df0fed2c77648de5860a4cc508cd0818c85b8b8a1ab4ceeef8d981c8956a681565b610cde8282611db1565b600f546001600160a01b031681565b7f65d7a28e3265b37a6474929f336521b332c1681b933f6cb9f3376673440d862a81565b6001600160a01b03918216600090815260076020908152604080832093909416825291909152205460ff1690565b61136c611488565b6001600160a01b031661137d610ffc565b6001600160a01b0316146113a35760405162461bcd60e51b81526004016108f3906147fd565b6001600160a01b0381166113c95760405162461bcd60e51b81526004016108f3906143d0565b610e0381611b91565b6113da611488565b6001600160a01b03166113eb610ffc565b6001600160a01b0316146114115760405162461bcd60e51b81526004016108f3906147fd565b600061141c8261173b565b9050610d6481611dd0565b610d648282611e47565b6000611023836001600160a01b038416611ecc565b60006001600160e01b0319821663780e9d6360e01b1480610832575061083282611f16565b6000908152600460205260409020546001600160a01b0316151590565b3390565b600081815260066020526040902080546001600160a01b0319166001600160a01b03841690811790915581906114c182610e7f565b6001600160a01b03167f8c5be1e5ebec7d5bd14f71427d1e84f3dd0314c0f7b2291e5b200ac8c7c3b92560405160405180910390a45050565b60006115058261146b565b6115215760405162461bcd60e51b81526004016108f3906145d0565b600061152c83610e7f565b9050806001600160a01b0316846001600160a01b031614806115675750836001600160a01b031661155c846108cc565b6001600160a01b0316145b8061157757506115778185611336565b949350505050565b826001600160a01b031661159282610e7f565b6001600160a01b0316146115b85760405162461bcd60e51b81526004016108f390614832565b6001600160a01b0382166115de5760405162461bcd60e51b81526004016108f390614555565b6115e9838383611f56565b6115f460008261148c565b6001600160a01b038316600090815260056020526040812080546001929061161d908490614e05565b90915550506001600160a01b038216600090815260056020526040812080546001929061164b908490614c84565b909155505060008181526004602052604080822080546001600160a01b0319166001600160a01b0386811691821790925591518493918716917fddf252ad1be2c89b69c2b068fc378daa952ba7f163c4a11628f55a4df523b3ef91a4505050565b600f5460115460405163b472047760e01b81526001600160a01b039283169263b4720477926116e29291169085906004016141f9565b600060405180830381600087803b1580156116fc57600080fd5b505af1158015611710573d6000803e3d6000fd5b5050505050565b61172082610aa0565b6117318161172c611488565b611f61565b6109ab8383611e47565b6060600061174883611fc5565b9050600061175582611ff5565b905060006117628361202c565b905060008161177084612063565b61177986612258565b60405160200161178b93929190614160565b60408051601f1981840301815291815281516020928301206000818152601290935291205490915060ff16156117d35760405162461bcd60e51b81526004016108f3906144b4565b6000818152601260205260408120805460ff191660011790556117f585612282565b905060006118028261238f565b905061180d8161241e565b6011546001600160a01b0390811691161461183a5760405162461bcd60e51b81526004016108f390614a95565b600061184587612455565b90506118636118538461247f565b8761185d8a612486565b846124b0565b61187f5760405162461bcd60e51b81526004016108f39061444d565b6118ad8561188c896127ae565b6118958a6127d8565b8461189f8c612802565b6118a88d61282c565b612856565b5060006118b98361295e565b90507f8c5261668696ce22758910d05bab8f186d6eb247ceac2af2e82c7dc17669b0366118ef6118ea8360006129a1565b6129db565b1461190c5760405162461bcd60e51b81526004016108f3906149c1565b600061191784612a56565b80602001905181019061192a9190614007565b9b9a5050505050505050505050565b611941611488565b6001600160a01b0316816001600160a01b0316146119715760405162461bcd60e51b81526004016108f390614be5565b610d648282612a80565b6000611023836001600160a01b038416612b03565b611998610e61565b6119b45760405162461bcd60e51b81526004016108f3906142bb565b600c805460ff191690557f5db9ee0a495bf2e6ff9c91a7834c1ba4fdd244a5e8aa4e537bd38aeae4b073aa6119e7611488565b6040516119f491906141a8565b60405180910390a1565b6000611a0982610e7f565b9050611a1781600084611f56565b611a2260008361148c565b6001600160a01b0381166000908152600560205260408120805460019290611a4b908490614e05565b909155505060008281526004602052604080822080546001600160a01b0319169055518391906001600160a01b038416907fddf252ad1be2c89b69c2b068fc378daa952ba7f163c4a11628f55a4df523b3ef908390a45050565b5490565b6001600160a01b038216611acf5760405162461bcd60e51b81526004016108f39061475a565b611ad88161146b565b15611af55760405162461bcd60e51b81526004016108f390614416565b611b0160008383611f56565b6001600160a01b0382166000908152600560205260408120805460019290611b2a908490614c84565b909155505060008181526004602052604080822080546001600160a01b0319166001600160a01b03861690811790915590518392907fddf252ad1be2c89b69c2b068fc378daa952ba7f163c4a11628f55a4df523b3ef908290a45050565b80546001019055565b601380546001600160a01b038381166001600160a01b0319831681179093556040519116919082907f8be0079c531659141344cd1fd0a4f28419497f9722a3daafe3b4186f6b6457e090600090a35050565b611beb610e61565b15611c085760405162461bcd60e51b81526004016108f39061461c565b600c805460ff191660011790557f62e78cea01bee320cd4e420270b5ea74000d11b0c9f74754ebdbfc544b05a2586119e7611488565b60006110238383612c20565b611c5584848461157f565b611c6184848484612c58565b6112215760405162461bcd60e51b81526004016108f39061437e565b6060600e805461084990614e82565b606081611cb157506040805180820190915260018152600360fc1b6020820152610835565b8160005b8115611cdb5780611cc581614eb7565b9150611cd49050600a83614c9c565b9150611cb5565b6000816001600160401b03811115611d0357634e487b7160e01b600052604160045260246000fd5b6040519080825280601f01601f191660200182016040528015611d2d576020820181803683370190505b5090505b841561157757611d42600183614e05565b9150611d4f600a86614ed2565b611d5a906030614c84565b60f81b818381518110611d7d57634e487b7160e01b600052603260045260246000fd5b60200101906001600160f81b031916908160001a905350611d9f600a86614c9c565b9450611d31565b600061083282611aa5565b611dba82610aa0565b611dc68161172c611488565b6109ab8383612a80565b8051611de3906016906020840190613ba7565b50600081806020019051810190611dfa9190613e74565b905060005b60058110156109ab57611e35828260058110611e2b57634e487b7160e01b600052603260045260246000fd5b6020020151612d70565b80611e3f81614eb7565b915050611dff565b611e51828261106e565b610d64576000828152602081815260408083206001600160a01b03851684529091529020805460ff19166001179055611e88611488565b6001600160a01b0316816001600160a01b0316837f2f8788117e7eff1d82e926ec794901d17c78024a50270940304540a733656f0d60405160405180910390a45050565b6000611ed88383612e60565b611f0e57508154600181810184556000848152602080822090930184905584548482528286019093526040902091909155610bda565b506000610bda565b60006001600160e01b031982166380ac58cd60e01b1480611f4757506001600160e01b03198216635b5e139f60e01b145b80610832575061083282612e78565b6109ab838383612e9d565b611f6b828261106e565b610d6457611f83816001600160a01b03166014612ecd565b611f8e836020612ecd565b604051602001611f9f9291906140e2565b60408051601f198184030181529082905262461bcd60e51b82526108f391600401614228565b611fcd613c2b565b6000611fe0611fdb8461307e565b6130a3565b60408051602081019091529081529392505050565b6060610832826000015160088151811061201f57634e487b7160e01b600052603260045260246000fd5b60200260200101516131c8565b6000610832826000015160028151811061205657634e487b7160e01b600052603260045260246000fd5b60200260200101516129db565b604080516020810190915260008152815160609190156108325760008061208b600086613272565b60f81c905060018114806120a257508060ff166003145b15612165576001855160026120b79190614de6565b6120c19190614e05565b6001600160401b038111156120e657634e487b7160e01b600052604160045260246000fd5b6040519080825280601f01601f191660200182016040528015612110576020820181803683370190505b5092506000612120600187613272565b9050808460008151811061214457634e487b7160e01b600052603260045260246000fd5b60200101906001600160f81b031916908160001a90535060019250506121d6565b6002855160026121759190614de6565b61217f9190614e05565b6001600160401b038111156121a457634e487b7160e01b600052604160045260246000fd5b6040519080825280601f01601f1916602001820160405280156121ce576020820181803683370190505b509250600091505b60ff82165b835181101561224e576122056121f460ff851683614e05565b6121ff906002614c84565b87613272565b84828151811061222557634e487b7160e01b600052603260045260246000fd5b60200101906001600160f81b031916908160001a9053508061224681614eb7565b9150506121db565b5050509050919050565b6000610832826000015160098151811061205657634e487b7160e01b600052603260045260246000fd5b61228a613c3e565b6122b2826000015160068151811061201f57634e487b7160e01b600052603260045260246000fd5b602082018190526000906122c59061307e565b90506122d08161330f565b156122e5576122de816130a3565b825261237b565b602082015180516000906122fb90600190614e05565b6001600160401b0381111561232057634e487b7160e01b600052604160045260246000fd5b6040519080825280601f01601f19166020018201604052801561234a576020820181803683370190505b50905060008083602101915082602001905061236882828551613349565b612374611fdb8461307e565b8652505050505b61238483612258565b604083015250919050565b612397613c5f565b60006123ce83600001516003815181106123c157634e487b7160e01b600052603260045260246000fd5b60200260200101516130a3565b8360400151815181106123f157634e487b7160e01b600052603260045260246000fd5b602002602001015190506040518060400160405280828152602001612415836130a3565b90529392505050565b6000610832826020015160008151811061244857634e487b7160e01b600052603260045260246000fd5b60200260200101516133c2565b6000610832826000015160058151811061205657634e487b7160e01b600052603260045260246000fd5b6020015190565b6060610832826000015160078151811061201f57634e487b7160e01b600052603260045260246000fd5b6000806124bc8461307e565b905060006124c9826130a3565b9050606080856000806124db8b612063565b90508051600014156124f7576000975050505050505050611577565b60005b865181101561279e57815183111561251d57600098505050505050505050611577565b61254d87828151811061254057634e487b7160e01b600052603260045260246000fd5b60200260200101516133dc565b95508580519060200120841461256e57600098505050505050505050611577565b6125918782815181106123c157634e487b7160e01b600052603260045260246000fd5b9450845160111415612690578151831415612601578c805190602001206125d28660108151811061201f57634e487b7160e01b600052603260045260246000fd5b8051906020012014156125f057600198505050505050505050611577565b600098505050505050505050611577565b600082848151811061262357634e487b7160e01b600052603260045260246000fd5b016020015160f81c905060108111156126485760009950505050505050505050611577565b61267b868260ff168151811061266e57634e487b7160e01b600052603260045260246000fd5b602002602001015161346a565b9450612688600185614c84565b93505061278c565b8451600214156125f05760006126ca6126c38760008151811061201f57634e487b7160e01b600052603260045260246000fd5b8486613498565b83519091506126d98286614c84565b141561273c578d8051906020012061270b8760018151811061201f57634e487b7160e01b600052603260045260246000fd5b80519060200120141561272a5760019950505050505050505050611577565b60009950505050505050505050611577565b806127535760009950505050505050505050611577565b61275d8185614c84565b93506127838660018151811061266e57634e487b7160e01b600052603260045260246000fd5b945061278c9050565b8061279681614eb7565b9150506124fa565b5050505050505050949350505050565b6000610832826000015160038151811061205657634e487b7160e01b600052603260045260246000fd5b6000610832826000015160048151811061205657634e487b7160e01b600052603260045260246000fd5b6000610832826000015160008151811061205657634e487b7160e01b600052603260045260246000fd5b6060610832826000015160018151811061201f57634e487b7160e01b600052603260045260246000fd5b6010546040516320a9cea560e11b81526000918291829182916001600160a01b03909116906341539d4a9061288f908990600401614157565b60a06040518083038186803b1580156128a757600080fd5b505afa1580156128bb573d6000803e3d6000fd5b505050506040513d601f19601f820116820180604052508101906128df9190613f51565b5093505092509250612935828b6128f69190614e05565b84878d8d8d8d60405160200161290f949392919061418d565b604051602081830303815290604052805190602001206135ca909392919063ffffffff16565b6129515760405162461bcd60e51b81526004016108f390614927565b9998505050505050505050565b612966613c2b565b604051806020016040528061299984602001516001815181106123c157634e487b7160e01b600052603260045260246000fd5b905292915050565b6129a9613c7f565b82518051839081106129cb57634e487b7160e01b600052603260045260246000fd5b6020026020010151905092915050565b8051600090158015906129f057508151602110155b6129f957600080fd5b6000612a0883602001516136de565b90506000818460000151612a1c9190614e05565b9050600080838660200151612a319190614c84565b9050805191506020831015612a4d57826020036101000a820491505b50949350505050565b6060610832826020015160028151811061201f57634e487b7160e01b600052603260045260246000fd5b612a8a828261106e565b15610d64576000828152602081815260408083206001600160a01b03851684529091529020805460ff19169055612abf611488565b6001600160a01b0316816001600160a01b0316837ff6391f5c32d9c69d2a47ea670b442974b53935d1edc7fd64eb21e047a839171b60405160405180910390a45050565b60008181526001830160205260408120548015612c16576000612b27600183614e05565b8554909150600090612b3b90600190614e05565b9050818114612bbc576000866000018281548110612b6957634e487b7160e01b600052603260045260246000fd5b9060005260206000200154905080876000018481548110612b9a57634e487b7160e01b600052603260045260246000fd5b6000918252602080832090910192909255918252600188019052604090208390555b8554869080612bdb57634e487b7160e01b600052603160045260246000fd5b600190038181906000526020600020016000905590558560010160008681526020019081526020016000206000905560019350505050610bda565b6000915050610bda565b6000826000018281548110612c4557634e487b7160e01b600052603260045260246000fd5b9060005260206000200154905092915050565b6000612c6c846001600160a01b0316613769565b15612d6857836001600160a01b031663150b7a02612c88611488565b8786866040518563ffffffff1660e01b8152600401612caa94939291906141bc565b602060405180830381600087803b158015612cc457600080fd5b505af1925050508015612cf4575060408051601f3d908101601f19168201909252612cf191810190613fb9565b60015b612d4e573d808015612d22576040519150601f19603f3d011682016040523d82523d6000602084013e612d27565b606091505b508051612d465760405162461bcd60e51b81526004016108f39061437e565b805181602001fd5b6001600160e01b031916630a85bd0160e11b149050611577565b506001611577565b6017805460018082019092557fc624b66cc0138b8fabc209247f72d758e1cf3343756d543badbf24212bed8c150180546001600160a01b0319166001600160a01b0384169081179091556000908152601860205260408120805460ff19168317905560198054909190612de4908490614c84565b909155505060195460051015610e035760006018600060176005601954612e0b9190614e05565b81548110612e2957634e487b7160e01b600052603260045260246000fd5b6000918252602080832091909101546001600160a01b031683528201929092526040019020805460ff191691151591909117905550565b60009081526001919091016020526040902054151590565b60006001600160e01b03198216635a05180f60e01b148061083257506108328261376f565b612ea8838383613794565b612eb0610e61565b156109ab5760405162461bcd60e51b81526004016108f390614270565b60606000612edc836002614de6565b612ee7906002614c84565b6001600160401b03811115612f0c57634e487b7160e01b600052604160045260246000fd5b6040519080825280601f01601f191660200182016040528015612f36576020820181803683370190505b509050600360fc1b81600081518110612f5f57634e487b7160e01b600052603260045260246000fd5b60200101906001600160f81b031916908160001a905350600f60fb1b81600181518110612f9c57634e487b7160e01b600052603260045260246000fd5b60200101906001600160f81b031916908160001a9053506000612fc0846002614de6565b612fcb906001614c84565b90505b600181111561305f576f181899199a1a9b1b9c1cb0b131b232b360811b85600f166010811061300d57634e487b7160e01b600052603260045260246000fd5b1a60f81b82828151811061303157634e487b7160e01b600052603260045260246000fd5b60200101906001600160f81b031916908160001a90535060049490941c9361305881614e6b565b9050612fce565b5083156110235760405162461bcd60e51b81526004016108f39061423b565b613086613c7f565b506040805180820190915281518152602082810190820152919050565b60606130ae8261330f565b6130b757600080fd5b60006130c28361381d565b90506000816001600160401b038111156130ec57634e487b7160e01b600052604160045260246000fd5b60405190808252806020026020018201604052801561312557816020015b613112613c7f565b81526020019060019003908161310a5790505b509050600061313785602001516136de565b85602001516131469190614c84565b90506000805b848110156131bd5761315d836138a0565b915060405180604001604052808381526020018481525084828151811061319457634e487b7160e01b600052603260045260246000fd5b60209081029190910101526131a98284614c84565b9250806131b581614eb7565b91505061314c565b509195945050505050565b80516060906131d657600080fd5b60006131e583602001516136de565b905060008184600001516131f99190614e05565b90506000816001600160401b0381111561322357634e487b7160e01b600052604160045260246000fd5b6040519080825280601f01601f19166020018201604052801561324d576020820181803683370190505b5090506000816020019050612a4d84876020015161326b9190614c84565b8285613944565b600061327f600284614ed2565b156132c757601082613292600286614c9c565b815181106132b057634e487b7160e01b600052603260045260246000fd5b01602001516132c2919060f81c614ee6565b613305565b6010826132d5600286614c9c565b815181106132f357634e487b7160e01b600052603260045260246000fd5b0160200151613305919060f81c614cb0565b60f81b9392505050565b805160009061332057506000610835565b6020820151805160001a9060c082101561333f57600092505050610835565b5060019392505050565b80613353576109ab565b6020811061338b578251825261336a602084614c84565b9250613377602083614c84565b9150613384602082614e05565b9050613353565b6000600161339a836020614e05565b6133a690610100614d18565b6133b09190614e05565b84518451821691191617835250505050565b80516000906015146133d357600080fd5b610832826129db565b6060600082600001516001600160401b0381111561340a57634e487b7160e01b600052604160045260246000fd5b6040519080825280601f01601f191660200182016040528015613434576020820181803683370190505b509050805160001415613448579050610835565b60008160200190506134638460200151828660000151613944565b5092915050565b805160009060211461347b57600080fd5b6000808360200151600161348f9190614c84565b51949350505050565b600080806134a586612063565b9050600081516001600160401b038111156134d057634e487b7160e01b600052604160045260246000fd5b6040519080825280601f01601f1916602001820160405280156134fa576020820181803683370190505b509050845b825161350b9087614c84565b81101561359a57600087828151811061353457634e487b7160e01b600052603260045260246000fd5b01602001516001600160f81b031916905080836135518985614e05565b8151811061356f57634e487b7160e01b600052603260045260246000fd5b60200101906001600160f81b031916908160001a90535050808061359290614eb7565b9150506134ff565b508080519060200120828051906020012014156135ba57815192506135bf565b600092505b509095945050505050565b6000602082516135da9190614ed2565b156135f75760405162461bcd60e51b81526004016108f3906148ca565b6000602083516136079190614c9c565b9050613614816002614d18565b85106136325760405162461bcd60e51b81526004016108f3906148f8565b60008660205b855181116136d057858101519250613651600289614ed2565b6136855781836040516020016136689291906140a5565b6040516020818303038152906040528051906020012091506136b1565b82826040516020016136989291906140a5565b6040516020818303038152906040528051906020012091505b6136bc600289614c9c565b97506136c9602082614c84565b9050613638565b509094149695505050505050565b8051600090811a60808110156136f8576000915050610835565b60b8811080613713575060c08110801590613713575060f881105b15613722576001915050610835565b60c081101561375757613737600160b8614e1c565b6137449060ff1682614e05565b61374f906001614c84565b915050610835565b613737600160f8614e1c565b50919050565b3b151590565b60006001600160e01b03198216637965db0b60e01b1480610832575061083282613990565b61379f8383836109ab565b6001600160a01b0383166137bb576137b6816139a9565b6137de565b816001600160a01b0316836001600160a01b0316146137de576137de83826139ed565b6001600160a01b0382166137fa576137f581613a8a565b6109ab565b826001600160a01b0316826001600160a01b0316146109ab576109ab8282613b63565b805160009061382e57506000610835565b60008061383e84602001516136de565b846020015161384d9190614c84565b90506000846000015185602001516138659190614c84565b90505b8082101561389757613879826138a0565b6138839083614c84565b91508261388f81614eb7565b935050613868565b50909392505050565b80516000908190811a60808110156138bb5760019150613463565b60b88110156138e1576138cf608082614e05565b6138da906001614c84565b9150613463565b60c081101561390e5760b78103600185019450806020036101000a85510460018201810193505050613463565b60f8811015613922576138cf60c082614e05565b60019390930151602084900360f7016101000a900490920160f5190192915050565b8061394e576109ab565b602081106139865782518252613965602084614c84565b9250613972602083614c84565b915061397f602082614e05565b905061394e565b8061338b576109ab565b6001600160e01b031981166301ffc9a760e01b14919050565b600a80546000838152600b60205260408120829055600182018355919091527fc65a7bb8d6351c1cf70c95a316cc6a92839c986682d98bc35f958f4883f9d2a80155565b600060016139fa84610f1f565b613a049190614e05565b600083815260096020526040902054909150808214613a57576001600160a01b03841660009081526008602090815260408083208584528252808320548484528184208190558352600990915290208190555b5060009182526009602090815260408084208490556001600160a01b039094168352600881528383209183525290812055565b600a54600090613a9c90600190614e05565b6000838152600b6020526040812054600a8054939450909284908110613ad257634e487b7160e01b600052603260045260246000fd5b9060005260206000200154905080600a8381548110613b0157634e487b7160e01b600052603260045260246000fd5b6000918252602080832090910192909255828152600b9091526040808220849055858252812055600a805480613b4757634e487b7160e01b600052603160045260246000fd5b6001900381819060005260206000200160009055905550505050565b6000613b6e83610f1f565b6001600160a01b039093166000908152600860209081526040808320868452825280832085905593825260099052919091209190915550565b828054613bb390614e82565b90600052602060002090601f016020900481019282613bd55760008555613c1b565b82601f10613bee57805160ff1916838001178555613c1b565b82800160010185558215613c1b579182015b82811115613c1b578251825591602001919060010190613c00565b50613c27929150613c99565b5090565b6040518060200160405280606081525090565b60405180606001604052806060815260200160608152602001600081525090565b6040518060400160405280613c72613c7f565b8152602001606081525090565b604051806040016040528060008152602001600081525090565b5b80821115613c275760008155600101613c9a565b600082601f830112613cbe578081fd5b8135613cd1613ccc82614c5d565b614c34565b818152846020838601011115613ce5578283fd5b816020850160208301379081016020019190915292915050565b600060208284031215613d10578081fd5b813561102381614f4a565b600060208284031215613d2c578081fd5b815161102381614f4a565b60008060408385031215613d49578081fd5b8235613d5481614f4a565b91506020830135613d6481614f4a565b809150509250929050565b600080600060608486031215613d83578081fd5b8335613d8e81614f4a565b92506020840135613d9e81614f4a565b929592945050506040919091013590565b60008060008060808587031215613dc4578081fd5b8435613dcf81614f4a565b93506020850135613ddf81614f4a565b92506040850135915060608501356001600160401b03811115613e00578182fd5b613e0c87828801613cae565b91505092959194509250565b60008060408385031215613e2a578182fd5b8235613e3581614f4a565b915060208301358015158114613d64578182fd5b60008060408385031215613e5b578182fd5b8235613e6681614f4a565b946020939093013593505050565b600060a08284031215613e85578081fd5b82601f830112613e93578081fd5b60405160a081018181106001600160401b0382111715613eb557613eb5614f34565b604052808360a08101861015613ec9578384fd5b835b60058110156131bd578151613edf81614f4a565b83526020928301929190910190600101613ecb565b600060208284031215613f05578081fd5b5035919050565b60008060408385031215613f1e578182fd5b823591506020830135613d6481614f4a565b60008060408385031215613f42578182fd5b50508035926020909101359150565b600080600080600060a08688031215613f68578283fd5b855194506020860151935060408601519250606086015191506080860151613f8f81614f4a565b809150509295509295909350565b600060208284031215613fae578081fd5b813561102381614f5f565b600060208284031215613fca578081fd5b815161102381614f5f565b600060208284031215613fe6578081fd5b81356001600160401b03811115613ffb578182fd5b61157784828501613cae565b600060208284031215614018578081fd5b81516001600160401b0381111561402d578182fd5b8201601f8101841361403d578182fd5b805161404b613ccc82614c5d565b81815285602083850101111561405f578384fd5b614070826020830160208601614e3f565b95945050505050565b60008151808452614091816020860160208601614e3f565b601f01601f19169290920160200192915050565b918252602082015260400190565b600083516140c5818460208801614e3f565b8351908301906140d9818360208801614e3f565b01949350505050565b60007f416363657373436f6e74726f6c3a206163636f756e74200000000000000000008252835161411a816017850160208801614e3f565b7001034b99036b4b9b9b4b733903937b6329607d1b601791840191820152835161414b816028840160208801614e3f565b01602801949350505050565b90815260200190565b60008482528351614178816020850160208801614e3f565b60209201918201929092526040019392505050565b93845260208401929092526040830152606082015260800190565b6001600160a01b0391909116815260200190565b6001600160a01b03858116825284166020820152604081018390526080606082018190526000906141ef90830184614079565b9695505050505050565b6001600160a01b038316815260406020820181905260009061157790830184614079565b901515815260200190565b6000602082526110236020830184614079565b6020808252818101527f537472696e67733a20686578206c656e67746820696e73756666696369656e74604082015260600190565b6020808252602b908201527f4552433732315061757361626c653a20746f6b656e207472616e73666572207760408201526a1a1a5b19481c185d5cd95960aa1b606082015260800190565b60208082526014908201527314185d5cd8589b194e881b9bdd081c185d5cd95960621b604082015260600190565b6020808252602b908201527f455243373231456e756d657261626c653a206f776e657220696e646578206f7560408201526a74206f6620626f756e647360a81b606082015260800190565b6020808252602a908201527f467842617365526f6f7454756e6e656c3a204348494c445f54554e4e454c5f4160408201526913149150511657d4d15560b21b606082015260800190565b60208082526032908201527f4552433732313a207472616e7366657220746f206e6f6e20455243373231526560408201527131b2b4bb32b91034b6b83632b6b2b73a32b960711b606082015260800190565b60208082526026908201527f4f776e61626c653a206e6577206f776e657220697320746865207a65726f206160408201526564647265737360d01b606082015260800190565b6020808252601c908201527f4552433732313a20746f6b656e20616c7265616479206d696e74656400000000604082015260600190565b60208082526023908201527f4678526f6f7454756e6e656c3a20494e56414c49445f524543454950545f505260408201526227a7a360e91b606082015260800190565b6020808252600a908201526946443a6d57503a34303160b01b604082015260600190565b60208082526024908201527f4678526f6f7454756e6e656c3a20455849545f414c52454144595f50524f434560408201526314d4d15160e21b606082015260800190565b6020808252603e908201527f4552433732315072657365744d696e7465725061757365724175746f49643a2060408201527f6d75737420686176652070617573657220726f6c6520746f2070617573650000606082015260800190565b60208082526024908201527f4552433732313a207472616e7366657220746f20746865207a65726f206164646040820152637265737360e01b606082015260800190565b60208082526019908201527f4552433732313a20617070726f766520746f2063616c6c657200000000000000604082015260600190565b6020808252602c908201527f4552433732313a206f70657261746f7220717565727920666f72206e6f6e657860408201526b34b9ba32b73a103a37b5b2b760a11b606082015260800190565b60208082526010908201526f14185d5cd8589b194e881c185d5cd95960821b604082015260600190565b60208082526038908201527f4552433732313a20617070726f76652063616c6c6572206973206e6f74206f7760408201527f6e6572206e6f7220617070726f76656420666f7220616c6c0000000000000000606082015260800190565b6020808252602a908201527f4552433732313a2062616c616e636520717565727920666f7220746865207a65604082015269726f206164647265737360b01b606082015260800190565b60208082526029908201527f4552433732313a206f776e657220717565727920666f72206e6f6e657869737460408201526832b73a103a37b5b2b760b91b606082015260800190565b6020808252600a908201526923221d36aba81d1a181960b11b604082015260600190565b6020808252818101527f4552433732313a206d696e7420746f20746865207a65726f2061646472657373604082015260600190565b6020808252602c908201527f4552433732313a20617070726f76656420717565727920666f72206e6f6e657860408201526b34b9ba32b73a103a37b5b2b760a11b606082015260800190565b60208082526008908201526723221d369d1a181960c11b604082015260600190565b6020808252818101527f4f776e61626c653a2063616c6c6572206973206e6f7420746865206f776e6572604082015260600190565b60208082526029908201527f4552433732313a207472616e73666572206f6620746f6b656e2074686174206960408201526839903737ba1037bbb760b91b606082015260800190565b6020808252602f908201527f4552433732314d657461646174613a2055524920717565727920666f72206e6f60408201526e3732bc34b9ba32b73a103a37b5b2b760891b606082015260800190565b602080825260149082015273092dcecc2d8d2c840e0e4dedecc40d8cadccee8d60631b604082015260600190565b6020808252601590820152744c65616620696e64657820697320746f6f2062696760581b604082015260600190565b6020808252601c908201527f4678526f6f7454756e6e656c3a20494e56414c49445f48454144455200000000604082015260600190565b60208082526008908201526746443a6d3a34303360c01b604082015260600190565b60208082526021908201527f4552433732313a20617070726f76616c20746f2063757272656e74206f776e656040820152603960f91b606082015260800190565b6020808252601f908201527f4678526f6f7454756e6e656c3a20494e56414c49445f5349474e415455524500604082015260600190565b60208082526031908201527f4552433732313a207472616e736665722063616c6c6572206973206e6f74206f6040820152701ddb995c881b9bdc88185c1c1c9bdd9959607a1b606082015260800190565b6020808252602c908201527f455243373231456e756d657261626c653a20676c6f62616c20696e646578206f60408201526b7574206f6620626f756e647360a01b606082015260800190565b60208082526025908201527f4678526f6f7454756e6e656c3a20494e56414c49445f46585f4348494c445f54604082015264155393915360da1b606082015260800190565b6020808252603d908201527f4552433732315072657365744d696e7465725061757365724175746f49643a2060408201527f6d7573742068617665206d696e74657220726f6c6520746f206d696e74000000606082015260800190565b60208082526030908201527f4552433732314275726e61626c653a2063616c6c6572206973206e6f74206f7760408201526f1b995c881b9bdc88185c1c1c9bdd995960821b606082015260800190565b602080825260409082018190527f4552433732315072657365744d696e7465725061757365724175746f49643a20908201527f6d75737420686176652070617573657220726f6c6520746f20756e7061757365606082015260800190565b6020808252602f908201527f416363657373436f6e74726f6c3a2063616e206f6e6c792072656e6f756e636560408201526e103937b632b9903337b91039b2b63360891b606082015260800190565b6040518181016001600160401b0381118282101715614c5557614c55614f34565b604052919050565b60006001600160401b03821115614c7657614c76614f34565b50601f01601f191660200190565b60008219821115614c9757614c97614f08565b500190565b600082614cab57614cab614f1e565b500490565b600060ff831680614cc357614cc3614f1e565b8060ff84160491505092915050565b80825b6001808611614ce45750614d0f565b818704821115614cf657614cf6614f08565b80861615614d0357918102915b9490941c938002614cd5565b94509492505050565b60006110236000198484600082614d3157506001611023565b81614d3e57506000611023565b8160018114614d545760028114614d5e57614d8b565b6001915050611023565b60ff841115614d6f57614d6f614f08565b6001841b915084821115614d8557614d85614f08565b50611023565b5060208310610133831016604e8410600b8410161715614dbe575081810a83811115614db957614db9614f08565b611023565b614dcb8484846001614cd2565b808604821115614ddd57614ddd614f08565b02949350505050565b6000816000190483118215151615614e0057614e00614f08565b500290565b600082821015614e1757614e17614f08565b500390565b600060ff821660ff841680821015614e3657614e36614f08565b90039392505050565b60005b83811015614e5a578181015183820152602001614e42565b838111156112215750506000910152565b600081614e7a57614e7a614f08565b506000190190565b600281046001821680614e9657607f821691505b6020821081141561376357634e487b7160e01b600052602260045260246000fd5b6000600019821415614ecb57614ecb614f08565b5060010190565b600082614ee157614ee1614f1e565b500690565b600060ff831680614ef957614ef9614f1e565b8060ff84160691505092915050565b634e487b7160e01b600052601160045260246000fd5b634e487b7160e01b600052601260045260246000fd5b634e487b7160e01b600052604160045260246000fd5b6001600160a01b0381168114610e0357600080fd5b6001600160e01b031981168114610e0357600080fdfea26469706673582212202a44482a54a4b0f2b95eb497fc55914efec46c65f1c4a752f232fb02e4fce56664736f6c63430008000033697066733a2f2f62616679626569636f65366f6532796f65756263706c6a717165633376756c346e346c377a7a37616467726a6567696a6c77336e647833347663652f",
  "devdoc": {
    "details": "This contract should be deployed to Ethereum mainnet and is the ERC721 contract for your NFT.",
    "kind": "dev",
    "methods": {
      "approve(address,uint256)": {
        "details": "See {IERC721-approve}."
      },
      "balanceOf(address)": {
        "details": "See {IERC721-balanceOf}."
      },
      "burn(uint256)": {
        "details": "Burns `tokenId`. See {ERC721-_burn}. Requirements: - The caller must own `tokenId` or be an approved operator."
      },
      "getApproved(uint256)": {
        "details": "See {IERC721-getApproved}."
      },
      "getRoleAdmin(bytes32)": {
        "details": "Returns the admin role that controls `role`. See {grantRole} and {revokeRole}. To change a role's admin, use {_setRoleAdmin}."
      },
      "getRoleMember(bytes32,uint256)": {
        "details": "Returns one of the accounts that have `role`. `index` must be a value between 0 and {getRoleMemberCount}, non-inclusive. Role bearers are not sorted in any particular way, and their ordering may change at any point. WARNING: When using {getRoleMember} and {getRoleMemberCount}, make sure you perform all queries on the same block. See the following https://forum.openzeppelin.com/t/iterating-over-elements-on-enumerableset-in-openzeppelin-contracts/2296[forum post] for more information."
      },
      "getRoleMemberCount(bytes32)": {
        "details": "Returns the number of accounts that have `role`. Can be used together with {getRoleMember} to enumerate all bearers of a role."
      },
      "grantRole(bytes32,address)": {
        "details": "Overload {grantRole} to track enumerable memberships"
      },
      "hasRole(bytes32,address)": {
        "details": "Returns `true` if `account` has been granted `role`."
      },
      "isApprovedForAll(address,address)": {
        "details": "See {IERC721-isApprovedForAll}."
      },
      "mint(address)": {
        "details": "Creates a new token for `to`. Its token ID will be automatically assigned (and available on the emitted {IERC721-Transfer} event), and the token URI autogenerated based on the base URI passed at construction. See {ERC721-_mint}. Requirements: - the caller must have the `MINTER_ROLE`."
      },
      "mintWithProof(bytes)": {
        "details": "We use Polygon to make registration and random selection inexpensive, then allow eligible minters to generate an L2 proof of bytes. The proof is used as a \"mint pass\" in this function that mints a token if the address has not yet minted. Minting is *expensive* in gas units but users may find this approach preferable to FCFS gas auctions.",
        "params": {
          "inputData": "proof generated for transaction - see https://docs.matic.network/docs/develop/l1-l2-communication/state-transfer"
        }
      },
      "name()": {
        "details": "See {IERC721Metadata-name}."
      },
      "owner()": {
        "details": "Returns the address of the current owner."
      },
      "ownerOf(uint256)": {
        "details": "See {IERC721-ownerOf}."
      },
      "pause()": {
        "details": "Pauses all token transfers. See {ERC721Pausable} and {Pausable-_pause}. Requirements: - the caller must have the `PAUSER_ROLE`."
      },
      "paused()": {
        "details": "Returns true if the contract is paused, and false otherwise."
      },
      "receiveMessage(bytes)": {
        "details": "We use Polygon to make registration and random selection inexpensive, then pass the list of eligible buying accounts to this contract.",
        "params": {
          "inputData": "proof generated for transaction - see https://docs.matic.network/docs/develop/l1-l2-communication/state-transfer"
        }
      },
      "renounceOwnership()": {
        "details": "Leaves the contract without owner. It will not be possible to call `onlyOwner` functions anymore. Can only be called by the current owner. NOTE: Renouncing ownership will leave the contract without an owner, thereby removing any functionality that is only available to the owner."
      },
      "renounceRole(bytes32,address)": {
        "details": "Overload {renounceRole} to track enumerable memberships"
      },
      "revokeRole(bytes32,address)": {
        "details": "Overload {revokeRole} to track enumerable memberships"
      },
      "safeTransferFrom(address,address,uint256)": {
        "details": "See {IERC721-safeTransferFrom}."
      },
      "safeTransferFrom(address,address,uint256,bytes)": {
        "details": "See {IERC721-safeTransferFrom}."
      },
      "setApprovalForAll(address,bool)": {
        "details": "See {IERC721-setApprovalForAll}."
      },
      "supportsInterface(bytes4)": {
        "details": "See {IERC165-supportsInterface}."
      },
      "symbol()": {
        "details": "See {IERC721Metadata-symbol}."
      },
      "tokenByIndex(uint256)": {
        "details": "See {IERC721Enumerable-tokenByIndex}."
      },
      "tokenOfOwnerByIndex(address,uint256)": {
        "details": "See {IERC721Enumerable-tokenOfOwnerByIndex}."
      },
      "tokenURI(uint256)": {
        "details": "See {IERC721Metadata-tokenURI}."
      },
      "totalSupply()": {
        "details": "See {IERC721Enumerable-totalSupply}."
      },
      "transferFrom(address,address,uint256)": {
        "details": "See {IERC721-transferFrom}."
      },
      "transferOwnership(address)": {
        "details": "Transfers ownership of the contract to a new account (`newOwner`). Can only be called by the current owner."
      },
      "unpause()": {
        "details": "Unpauses all token transfers. See {ERC721Pausable} and {Pausable-_unpause}. Requirements: - the caller must have the `PAUSER_ROLE`."
      }
    },
    "title": "NFTStateTransfer",
    "version": 1
  },
  "userdoc": {
    "kind": "user",
    "methods": {
      "mintWithProof(bytes)": {
        "notice": "Mint token with L2 proof"
      },
      "publicMint()": {
        "notice": "Public mint function for eligible minters"
      },
      "receiveMessage(bytes)": {
        "notice": "Receive list of eligible purchasers from L2"
      },
      "setPrice(uint256)": {
        "notice": "I have a regrettable FOMO ramp in my first project so I want to be able to adjust price as I please"
      }
    },
    "notice": "This is a reference implementation for a fair NFT drop.",
    "version": 1
  },
  "storageLayout": {
    "storage": [
      {
        "astId": 2679,
        "contract": "contracts/NFTStateTransfer/NFTStateTransfer.sol:NFTStateTransfer",
        "label": "_roles",
        "offset": 0,
        "slot": "0",
        "type": "t_mapping(t_bytes32,t_struct(RoleData)2674_storage)"
      },
      {
        "astId": 2980,
        "contract": "contracts/NFTStateTransfer/NFTStateTransfer.sol:NFTStateTransfer",
        "label": "_roleMembers",
        "offset": 0,
        "slot": "1",
        "type": "t_mapping(t_bytes32,t_struct(AddressSet)6940_storage)"
      },
      {
        "astId": 4109,
        "contract": "contracts/NFTStateTransfer/NFTStateTransfer.sol:NFTStateTransfer",
        "label": "_name",
        "offset": 0,
        "slot": "2",
        "type": "t_string_storage"
      },
      {
        "astId": 4111,
        "contract": "contracts/NFTStateTransfer/NFTStateTransfer.sol:NFTStateTransfer",
        "label": "_symbol",
        "offset": 0,
        "slot": "3",
        "type": "t_string_storage"
      },
      {
        "astId": 4115,
        "contract": "contracts/NFTStateTransfer/NFTStateTransfer.sol:NFTStateTransfer",
        "label": "_owners",
        "offset": 0,
        "slot": "4",
        "type": "t_mapping(t_uint256,t_address)"
      },
      {
        "astId": 4119,
        "contract": "contracts/NFTStateTransfer/NFTStateTransfer.sol:NFTStateTransfer",
        "label": "_balances",
        "offset": 0,
        "slot": "5",
        "type": "t_mapping(t_address,t_uint256)"
      },
      {
        "astId": 4123,
        "contract": "contracts/NFTStateTransfer/NFTStateTransfer.sol:NFTStateTransfer",
        "label": "_tokenApprovals",
        "offset": 0,
        "slot": "6",
        "type": "t_mapping(t_uint256,t_address)"
      },
      {
        "astId": 4129,
        "contract": "contracts/NFTStateTransfer/NFTStateTransfer.sol:NFTStateTransfer",
        "label": "_operatorApprovals",
        "offset": 0,
        "slot": "7",
        "type": "t_mapping(t_address,t_mapping(t_address,t_bool))"
      },
      {
        "astId": 5078,
        "contract": "contracts/NFTStateTransfer/NFTStateTransfer.sol:NFTStateTransfer",
        "label": "_ownedTokens",
        "offset": 0,
        "slot": "8",
        "type": "t_mapping(t_address,t_mapping(t_uint256,t_uint256))"
      },
      {
        "astId": 5082,
        "contract": "contracts/NFTStateTransfer/NFTStateTransfer.sol:NFTStateTransfer",
        "label": "_ownedTokensIndex",
        "offset": 0,
        "slot": "9",
        "type": "t_mapping(t_uint256,t_uint256)"
      },
      {
        "astId": 5085,
        "contract": "contracts/NFTStateTransfer/NFTStateTransfer.sol:NFTStateTransfer",
        "label": "_allTokens",
        "offset": 0,
        "slot": "10",
        "type": "t_array(t_uint256)dyn_storage"
      },
      {
        "astId": 5089,
        "contract": "contracts/NFTStateTransfer/NFTStateTransfer.sol:NFTStateTransfer",
        "label": "_allTokensIndex",
        "offset": 0,
        "slot": "11",
        "type": "t_mapping(t_uint256,t_uint256)"
      },
      {
        "astId": 3360,
        "contract": "contracts/NFTStateTransfer/NFTStateTransfer.sol:NFTStateTransfer",
        "label": "_paused",
        "offset": 0,
        "slot": "12",
        "type": "t_bool"
      },
      {
        "astId": 5533,
        "contract": "contracts/NFTStateTransfer/NFTStateTransfer.sol:NFTStateTransfer",
        "label": "_tokenIdTracker",
        "offset": 0,
        "slot": "13",
        "type": "t_struct(Counter)6009_storage"
      },
      {
        "astId": 5535,
        "contract": "contracts/NFTStateTransfer/NFTStateTransfer.sol:NFTStateTransfer",
        "label": "_baseTokenURI",
        "offset": 0,
        "slot": "14",
        "type": "t_string_storage"
      },
      {
        "astId": 2353,
        "contract": "contracts/NFTStateTransfer/NFTStateTransfer.sol:NFTStateTransfer",
        "label": "fxRoot",
        "offset": 0,
        "slot": "15",
        "type": "t_contract(IFxStateSender)2303"
      },
      {
        "astId": 2356,
        "contract": "contracts/NFTStateTransfer/NFTStateTransfer.sol:NFTStateTransfer",
        "label": "checkpointManager",
        "offset": 0,
        "slot": "16",
        "type": "t_contract(ICheckpointManager)2321"
      },
      {
        "astId": 2358,
        "contract": "contracts/NFTStateTransfer/NFTStateTransfer.sol:NFTStateTransfer",
        "label": "fxChildTunnel",
        "offset": 0,
        "slot": "17",
        "type": "t_address"
      },
      {
        "astId": 2362,
        "contract": "contracts/NFTStateTransfer/NFTStateTransfer.sol:NFTStateTransfer",
        "label": "processedExits",
        "offset": 0,
        "slot": "18",
        "type": "t_mapping(t_bytes32,t_bool)"
      },
      {
        "astId": 3246,
        "contract": "contracts/NFTStateTransfer/NFTStateTransfer.sol:NFTStateTransfer",
        "label": "_owner",
        "offset": 0,
        "slot": "19",
        "type": "t_address"
      },
      {
        "astId": 8085,
        "contract": "contracts/NFTStateTransfer/NFTStateTransfer.sol:NFTStateTransfer",
        "label": "mintPrice",
        "offset": 0,
        "slot": "20",
        "type": "t_uint256"
      },
      {
        "astId": 8089,
        "contract": "contracts/NFTStateTransfer/NFTStateTransfer.sol:NFTStateTransfer",
        "label": "remainingTokens",
        "offset": 0,
        "slot": "21",
        "type": "t_uint256"
      },
      {
        "astId": 8091,
        "contract": "contracts/NFTStateTransfer/NFTStateTransfer.sol:NFTStateTransfer",
        "label": "latestData",
        "offset": 0,
        "slot": "22",
        "type": "t_bytes_storage"
      },
      {
        "astId": 8094,
        "contract": "contracts/NFTStateTransfer/NFTStateTransfer.sol:NFTStateTransfer",
        "label": "allMinters",
        "offset": 0,
        "slot": "23",
        "type": "t_array(t_address)dyn_storage"
      },
      {
        "astId": 8098,
        "contract": "contracts/NFTStateTransfer/NFTStateTransfer.sol:NFTStateTransfer",
        "label": "approvedMinters",
        "offset": 0,
        "slot": "24",
        "type": "t_mapping(t_address,t_bool)"
      },
      {
        "astId": 8100,
        "contract": "contracts/NFTStateTransfer/NFTStateTransfer.sol:NFTStateTransfer",
        "label": "approvedMintersEndIndex",
        "offset": 0,
        "slot": "25",
        "type": "t_uint256"
      },
      {
        "astId": 8104,
        "contract": "contracts/NFTStateTransfer/NFTStateTransfer.sol:NFTStateTransfer",
        "label": "exhaustedMinters",
        "offset": 0,
        "slot": "26",
        "type": "t_mapping(t_address,t_bool)"
      }
    ],
    "types": {
      "t_address": {
        "encoding": "inplace",
        "label": "address",
        "numberOfBytes": "20"
      },
      "t_array(t_address)dyn_storage": {
        "base": "t_address",
        "encoding": "dynamic_array",
        "label": "address[]",
        "numberOfBytes": "32"
      },
      "t_array(t_bytes32)dyn_storage": {
        "base": "t_bytes32",
        "encoding": "dynamic_array",
        "label": "bytes32[]",
        "numberOfBytes": "32"
      },
      "t_array(t_uint256)dyn_storage": {
        "base": "t_uint256",
        "encoding": "dynamic_array",
        "label": "uint256[]",
        "numberOfBytes": "32"
      },
      "t_bool": {
        "encoding": "inplace",
        "label": "bool",
        "numberOfBytes": "1"
      },
      "t_bytes32": {
        "encoding": "inplace",
        "label": "bytes32",
        "numberOfBytes": "32"
      },
      "t_bytes_storage": {
        "encoding": "bytes",
        "label": "bytes",
        "numberOfBytes": "32"
      },
      "t_contract(ICheckpointManager)2321": {
        "encoding": "inplace",
        "label": "contract ICheckpointManager",
        "numberOfBytes": "20"
      },
      "t_contract(IFxStateSender)2303": {
        "encoding": "inplace",
        "label": "contract IFxStateSender",
        "numberOfBytes": "20"
      },
      "t_mapping(t_address,t_bool)": {
        "encoding": "mapping",
        "key": "t_address",
        "label": "mapping(address => bool)",
        "numberOfBytes": "32",
        "value": "t_bool"
      },
      "t_mapping(t_address,t_mapping(t_address,t_bool))": {
        "encoding": "mapping",
        "key": "t_address",
        "label": "mapping(address => mapping(address => bool))",
        "numberOfBytes": "32",
        "value": "t_mapping(t_address,t_bool)"
      },
      "t_mapping(t_address,t_mapping(t_uint256,t_uint256))": {
        "encoding": "mapping",
        "key": "t_address",
        "label": "mapping(address => mapping(uint256 => uint256))",
        "numberOfBytes": "32",
        "value": "t_mapping(t_uint256,t_uint256)"
      },
      "t_mapping(t_address,t_uint256)": {
        "encoding": "mapping",
        "key": "t_address",
        "label": "mapping(address => uint256)",
        "numberOfBytes": "32",
        "value": "t_uint256"
      },
      "t_mapping(t_bytes32,t_bool)": {
        "encoding": "mapping",
        "key": "t_bytes32",
        "label": "mapping(bytes32 => bool)",
        "numberOfBytes": "32",
        "value": "t_bool"
      },
      "t_mapping(t_bytes32,t_struct(AddressSet)6940_storage)": {
        "encoding": "mapping",
        "key": "t_bytes32",
        "label": "mapping(bytes32 => struct EnumerableSet.AddressSet)",
        "numberOfBytes": "32",
        "value": "t_struct(AddressSet)6940_storage"
      },
      "t_mapping(t_bytes32,t_struct(RoleData)2674_storage)": {
        "encoding": "mapping",
        "key": "t_bytes32",
        "label": "mapping(bytes32 => struct AccessControl.RoleData)",
        "numberOfBytes": "32",
        "value": "t_struct(RoleData)2674_storage"
      },
      "t_mapping(t_bytes32,t_uint256)": {
        "encoding": "mapping",
        "key": "t_bytes32",
        "label": "mapping(bytes32 => uint256)",
        "numberOfBytes": "32",
        "value": "t_uint256"
      },
      "t_mapping(t_uint256,t_address)": {
        "encoding": "mapping",
        "key": "t_uint256",
        "label": "mapping(uint256 => address)",
        "numberOfBytes": "32",
        "value": "t_address"
      },
      "t_mapping(t_uint256,t_uint256)": {
        "encoding": "mapping",
        "key": "t_uint256",
        "label": "mapping(uint256 => uint256)",
        "numberOfBytes": "32",
        "value": "t_uint256"
      },
      "t_string_storage": {
        "encoding": "bytes",
        "label": "string",
        "numberOfBytes": "32"
      },
      "t_struct(AddressSet)6940_storage": {
        "encoding": "inplace",
        "label": "struct EnumerableSet.AddressSet",
        "members": [
          {
            "astId": 6939,
            "contract": "contracts/NFTStateTransfer/NFTStateTransfer.sol:NFTStateTransfer",
            "label": "_inner",
            "offset": 0,
            "slot": "0",
            "type": "t_struct(Set)6639_storage"
          }
        ],
        "numberOfBytes": "64"
      },
      "t_struct(Counter)6009_storage": {
        "encoding": "inplace",
        "label": "struct Counters.Counter",
        "members": [
          {
            "astId": 6008,
            "contract": "contracts/NFTStateTransfer/NFTStateTransfer.sol:NFTStateTransfer",
            "label": "_value",
            "offset": 0,
            "slot": "0",
            "type": "t_uint256"
          }
        ],
        "numberOfBytes": "32"
      },
      "t_struct(RoleData)2674_storage": {
        "encoding": "inplace",
        "label": "struct AccessControl.RoleData",
        "members": [
          {
            "astId": 2671,
            "contract": "contracts/NFTStateTransfer/NFTStateTransfer.sol:NFTStateTransfer",
            "label": "members",
            "offset": 0,
            "slot": "0",
            "type": "t_mapping(t_address,t_bool)"
          },
          {
            "astId": 2673,
            "contract": "contracts/NFTStateTransfer/NFTStateTransfer.sol:NFTStateTransfer",
            "label": "adminRole",
            "offset": 0,
            "slot": "1",
            "type": "t_bytes32"
          }
        ],
        "numberOfBytes": "64"
      },
      "t_struct(Set)6639_storage": {
        "encoding": "inplace",
        "label": "struct EnumerableSet.Set",
        "members": [
          {
            "astId": 6634,
            "contract": "contracts/NFTStateTransfer/NFTStateTransfer.sol:NFTStateTransfer",
            "label": "_values",
            "offset": 0,
            "slot": "0",
            "type": "t_array(t_bytes32)dyn_storage"
          },
          {
            "astId": 6638,
            "contract": "contracts/NFTStateTransfer/NFTStateTransfer.sol:NFTStateTransfer",
            "label": "_indexes",
            "offset": 0,
            "slot": "1",
            "type": "t_mapping(t_bytes32,t_uint256)"
          }
        ],
        "numberOfBytes": "64"
      },
      "t_uint256": {
        "encoding": "inplace",
        "label": "uint256",
        "numberOfBytes": "32"
      }
    }
  }
}