{
  "address": "0x39a9C9B9353661b112648D269C863ad8bE5B53aB",
  "abi": [
    {
      "inputs": [
        {
          "internalType": "address",
          "name": "_checkpointManager",
          "type": "address"
        },
        {
          "internalType": "address",
          "name": "_fxRoot",
          "type": "address"
        }
      ],
      "stateMutability": "nonpayable",
      "type": "constructor"
    },
    {
      "anonymous": false,
      "inputs": [
        {
          "indexed": true,
          "internalType": "address",
          "name": "owner",
          "type": "address"
        },
        {
          "indexed": true,
          "internalType": "address",
          "name": "approved",
          "type": "address"
        },
        {
          "indexed": true,
          "internalType": "uint256",
          "name": "tokenId",
          "type": "uint256"
        }
      ],
      "name": "Approval",
      "type": "event"
    },
    {
      "anonymous": false,
      "inputs": [
        {
          "indexed": true,
          "internalType": "address",
          "name": "owner",
          "type": "address"
        },
        {
          "indexed": true,
          "internalType": "address",
          "name": "operator",
          "type": "address"
        },
        {
          "indexed": false,
          "internalType": "bool",
          "name": "approved",
          "type": "bool"
        }
      ],
      "name": "ApprovalForAll",
      "type": "event"
    },
    {
      "anonymous": false,
      "inputs": [
        {
          "indexed": true,
          "internalType": "address",
          "name": "previousOwner",
          "type": "address"
        },
        {
          "indexed": true,
          "internalType": "address",
          "name": "newOwner",
          "type": "address"
        }
      ],
      "name": "OwnershipTransferred",
      "type": "event"
    },
    {
      "anonymous": false,
      "inputs": [
        {
          "indexed": false,
          "internalType": "address",
          "name": "account",
          "type": "address"
        }
      ],
      "name": "Paused",
      "type": "event"
    },
    {
      "anonymous": false,
      "inputs": [
        {
          "indexed": true,
          "internalType": "bytes32",
          "name": "role",
          "type": "bytes32"
        },
        {
          "indexed": true,
          "internalType": "bytes32",
          "name": "previousAdminRole",
          "type": "bytes32"
        },
        {
          "indexed": true,
          "internalType": "bytes32",
          "name": "newAdminRole",
          "type": "bytes32"
        }
      ],
      "name": "RoleAdminChanged",
      "type": "event"
    },
    {
      "anonymous": false,
      "inputs": [
        {
          "indexed": true,
          "internalType": "bytes32",
          "name": "role",
          "type": "bytes32"
        },
        {
          "indexed": true,
          "internalType": "address",
          "name": "account",
          "type": "address"
        },
        {
          "indexed": true,
          "internalType": "address",
          "name": "sender",
          "type": "address"
        }
      ],
      "name": "RoleGranted",
      "type": "event"
    },
    {
      "anonymous": false,
      "inputs": [
        {
          "indexed": true,
          "internalType": "bytes32",
          "name": "role",
          "type": "bytes32"
        },
        {
          "indexed": true,
          "internalType": "address",
          "name": "account",
          "type": "address"
        },
        {
          "indexed": true,
          "internalType": "address",
          "name": "sender",
          "type": "address"
        }
      ],
      "name": "RoleRevoked",
      "type": "event"
    },
    {
      "anonymous": false,
      "inputs": [
        {
          "indexed": true,
          "internalType": "address",
          "name": "from",
          "type": "address"
        },
        {
          "indexed": true,
          "internalType": "address",
          "name": "to",
          "type": "address"
        },
        {
          "indexed": true,
          "internalType": "uint256",
          "name": "tokenId",
          "type": "uint256"
        }
      ],
      "name": "Transfer",
      "type": "event"
    },
    {
      "anonymous": false,
      "inputs": [
        {
          "indexed": false,
          "internalType": "address",
          "name": "account",
          "type": "address"
        }
      ],
      "name": "Unpaused",
      "type": "event"
    },
    {
      "inputs": [],
      "name": "DEFAULT_ADMIN_ROLE",
      "outputs": [
        {
          "internalType": "bytes32",
          "name": "",
          "type": "bytes32"
        }
      ],
      "stateMutability": "view",
      "type": "function"
    },
    {
      "inputs": [],
      "name": "MINTER_ROLE",
      "outputs": [
        {
          "internalType": "bytes32",
          "name": "",
          "type": "bytes32"
        }
      ],
      "stateMutability": "view",
      "type": "function"
    },
    {
      "inputs": [],
      "name": "PAUSER_ROLE",
      "outputs": [
        {
          "internalType": "bytes32",
          "name": "",
          "type": "bytes32"
        }
      ],
      "stateMutability": "view",
      "type": "function"
    },
    {
      "inputs": [],
      "name": "SEND_MESSAGE_EVENT_SIG",
      "outputs": [
        {
          "internalType": "bytes32",
          "name": "",
          "type": "bytes32"
        }
      ],
      "stateMutability": "view",
      "type": "function"
    },
    {
      "inputs": [
        {
          "internalType": "address",
          "name": "to",
          "type": "address"
        },
        {
          "internalType": "uint256",
          "name": "tokenId",
          "type": "uint256"
        }
      ],
      "name": "approve",
      "outputs": [],
      "stateMutability": "nonpayable",
      "type": "function"
    },
    {
      "inputs": [
        {
          "internalType": "address",
          "name": "",
          "type": "address"
        }
      ],
      "name": "approvedMinters",
      "outputs": [
        {
          "internalType": "bool",
          "name": "",
          "type": "bool"
        }
      ],
      "stateMutability": "view",
      "type": "function"
    },
    {
      "inputs": [
        {
          "internalType": "address",
          "name": "owner",
          "type": "address"
        }
      ],
      "name": "balanceOf",
      "outputs": [
        {
          "internalType": "uint256",
          "name": "",
          "type": "uint256"
        }
      ],
      "stateMutability": "view",
      "type": "function"
    },
    {
      "inputs": [
        {
          "internalType": "uint256",
          "name": "tokenId",
          "type": "uint256"
        }
      ],
      "name": "burn",
      "outputs": [],
      "stateMutability": "nonpayable",
      "type": "function"
    },
    {
      "inputs": [],
      "name": "checkpointManager",
      "outputs": [
        {
          "internalType": "contract ICheckpointManager",
          "name": "",
          "type": "address"
        }
      ],
      "stateMutability": "view",
      "type": "function"
    },
    {
      "inputs": [],
      "name": "fxChildTunnel",
      "outputs": [
        {
          "internalType": "address",
          "name": "",
          "type": "address"
        }
      ],
      "stateMutability": "view",
      "type": "function"
    },
    {
      "inputs": [],
      "name": "fxRoot",
      "outputs": [
        {
          "internalType": "contract IFxStateSender",
          "name": "",
          "type": "address"
        }
      ],
      "stateMutability": "view",
      "type": "function"
    },
    {
      "inputs": [
        {
          "internalType": "uint256",
          "name": "tokenId",
          "type": "uint256"
        }
      ],
      "name": "getApproved",
      "outputs": [
        {
          "internalType": "address",
          "name": "",
          "type": "address"
        }
      ],
      "stateMutability": "view",
      "type": "function"
    },
    {
      "inputs": [
        {
          "internalType": "bytes32",
          "name": "role",
          "type": "bytes32"
        }
      ],
      "name": "getRoleAdmin",
      "outputs": [
        {
          "internalType": "bytes32",
          "name": "",
          "type": "bytes32"
        }
      ],
      "stateMutability": "view",
      "type": "function"
    },
    {
      "inputs": [
        {
          "internalType": "bytes32",
          "name": "role",
          "type": "bytes32"
        },
        {
          "internalType": "uint256",
          "name": "index",
          "type": "uint256"
        }
      ],
      "name": "getRoleMember",
      "outputs": [
        {
          "internalType": "address",
          "name": "",
          "type": "address"
        }
      ],
      "stateMutability": "view",
      "type": "function"
    },
    {
      "inputs": [
        {
          "internalType": "bytes32",
          "name": "role",
          "type": "bytes32"
        }
      ],
      "name": "getRoleMemberCount",
      "outputs": [
        {
          "internalType": "uint256",
          "name": "",
          "type": "uint256"
        }
      ],
      "stateMutability": "view",
      "type": "function"
    },
    {
      "inputs": [
        {
          "internalType": "bytes32",
          "name": "role",
          "type": "bytes32"
        },
        {
          "internalType": "address",
          "name": "account",
          "type": "address"
        }
      ],
      "name": "grantRole",
      "outputs": [],
      "stateMutability": "nonpayable",
      "type": "function"
    },
    {
      "inputs": [
        {
          "internalType": "bytes32",
          "name": "role",
          "type": "bytes32"
        },
        {
          "internalType": "address",
          "name": "account",
          "type": "address"
        }
      ],
      "name": "hasRole",
      "outputs": [
        {
          "internalType": "bool",
          "name": "",
          "type": "bool"
        }
      ],
      "stateMutability": "view",
      "type": "function"
    },
    {
      "inputs": [
        {
          "internalType": "address",
          "name": "owner",
          "type": "address"
        },
        {
          "internalType": "address",
          "name": "operator",
          "type": "address"
        }
      ],
      "name": "isApprovedForAll",
      "outputs": [
        {
          "internalType": "bool",
          "name": "",
          "type": "bool"
        }
      ],
      "stateMutability": "view",
      "type": "function"
    },
    {
      "inputs": [],
      "name": "latestData",
      "outputs": [
        {
          "internalType": "bytes",
          "name": "",
          "type": "bytes"
        }
      ],
      "stateMutability": "view",
      "type": "function"
    },
    {
      "inputs": [
        {
          "internalType": "address",
          "name": "to",
          "type": "address"
        }
      ],
      "name": "mint",
      "outputs": [],
      "stateMutability": "nonpayable",
      "type": "function"
    },
    {
      "inputs": [],
      "name": "mintPrice",
      "outputs": [
        {
          "internalType": "uint256",
          "name": "",
          "type": "uint256"
        }
      ],
      "stateMutability": "view",
      "type": "function"
    },
    {
      "inputs": [],
      "name": "name",
      "outputs": [
        {
          "internalType": "string",
          "name": "",
          "type": "string"
        }
      ],
      "stateMutability": "view",
      "type": "function"
    },
    {
      "inputs": [],
      "name": "owner",
      "outputs": [
        {
          "internalType": "address",
          "name": "",
          "type": "address"
        }
      ],
      "stateMutability": "view",
      "type": "function"
    },
    {
      "inputs": [
        {
          "internalType": "uint256",
          "name": "tokenId",
          "type": "uint256"
        }
      ],
      "name": "ownerOf",
      "outputs": [
        {
          "internalType": "address",
          "name": "",
          "type": "address"
        }
      ],
      "stateMutability": "view",
      "type": "function"
    },
    {
      "inputs": [],
      "name": "pause",
      "outputs": [],
      "stateMutability": "nonpayable",
      "type": "function"
    },
    {
      "inputs": [],
      "name": "paused",
      "outputs": [
        {
          "internalType": "bool",
          "name": "",
          "type": "bool"
        }
      ],
      "stateMutability": "view",
      "type": "function"
    },
    {
      "inputs": [
        {
          "internalType": "bytes32",
          "name": "",
          "type": "bytes32"
        }
      ],
      "name": "processedExits",
      "outputs": [
        {
          "internalType": "bool",
          "name": "",
          "type": "bool"
        }
      ],
      "stateMutability": "view",
      "type": "function"
    },
    {
      "inputs": [],
      "name": "publicMint",
      "outputs": [],
      "stateMutability": "payable",
      "type": "function"
    },
    {
      "inputs": [
        {
          "internalType": "bytes",
          "name": "inputData",
          "type": "bytes"
        }
      ],
      "name": "receiveMessage",
      "outputs": [],
      "stateMutability": "nonpayable",
      "type": "function"
    },
    {
      "inputs": [],
      "name": "remainingTokens",
      "outputs": [
        {
          "internalType": "uint256",
          "name": "",
          "type": "uint256"
        }
      ],
      "stateMutability": "view",
      "type": "function"
    },
    {
      "inputs": [],
      "name": "renounceOwnership",
      "outputs": [],
      "stateMutability": "nonpayable",
      "type": "function"
    },
    {
      "inputs": [
        {
          "internalType": "bytes32",
          "name": "role",
          "type": "bytes32"
        },
        {
          "internalType": "address",
          "name": "account",
          "type": "address"
        }
      ],
      "name": "renounceRole",
      "outputs": [],
      "stateMutability": "nonpayable",
      "type": "function"
    },
    {
      "inputs": [
        {
          "internalType": "bytes32",
          "name": "role",
          "type": "bytes32"
        },
        {
          "internalType": "address",
          "name": "account",
          "type": "address"
        }
      ],
      "name": "revokeRole",
      "outputs": [],
      "stateMutability": "nonpayable",
      "type": "function"
    },
    {
      "inputs": [
        {
          "internalType": "address",
          "name": "from",
          "type": "address"
        },
        {
          "internalType": "address",
          "name": "to",
          "type": "address"
        },
        {
          "internalType": "uint256",
          "name": "tokenId",
          "type": "uint256"
        }
      ],
      "name": "safeTransferFrom",
      "outputs": [],
      "stateMutability": "nonpayable",
      "type": "function"
    },
    {
      "inputs": [
        {
          "internalType": "address",
          "name": "from",
          "type": "address"
        },
        {
          "internalType": "address",
          "name": "to",
          "type": "address"
        },
        {
          "internalType": "uint256",
          "name": "tokenId",
          "type": "uint256"
        },
        {
          "internalType": "bytes",
          "name": "_data",
          "type": "bytes"
        }
      ],
      "name": "safeTransferFrom",
      "outputs": [],
      "stateMutability": "nonpayable",
      "type": "function"
    },
    {
      "inputs": [
        {
          "internalType": "address",
          "name": "operator",
          "type": "address"
        },
        {
          "internalType": "bool",
          "name": "approved",
          "type": "bool"
        }
      ],
      "name": "setApprovalForAll",
      "outputs": [],
      "stateMutability": "nonpayable",
      "type": "function"
    },
    {
      "inputs": [
        {
          "internalType": "address",
          "name": "_fxChildTunnel",
          "type": "address"
        }
      ],
      "name": "setFxChildTunnel",
      "outputs": [],
      "stateMutability": "nonpayable",
      "type": "function"
    },
    {
      "inputs": [
        {
          "internalType": "uint256",
          "name": "price",
          "type": "uint256"
        }
      ],
      "name": "setPrice",
      "outputs": [],
      "stateMutability": "nonpayable",
      "type": "function"
    },
    {
      "inputs": [
        {
          "internalType": "bytes4",
          "name": "interfaceId",
          "type": "bytes4"
        }
      ],
      "name": "supportsInterface",
      "outputs": [
        {
          "internalType": "bool",
          "name": "",
          "type": "bool"
        }
      ],
      "stateMutability": "view",
      "type": "function"
    },
    {
      "inputs": [],
      "name": "symbol",
      "outputs": [
        {
          "internalType": "string",
          "name": "",
          "type": "string"
        }
      ],
      "stateMutability": "view",
      "type": "function"
    },
    {
      "inputs": [
        {
          "internalType": "uint256",
          "name": "index",
          "type": "uint256"
        }
      ],
      "name": "tokenByIndex",
      "outputs": [
        {
          "internalType": "uint256",
          "name": "",
          "type": "uint256"
        }
      ],
      "stateMutability": "view",
      "type": "function"
    },
    {
      "inputs": [
        {
          "internalType": "address",
          "name": "owner",
          "type": "address"
        },
        {
          "internalType": "uint256",
          "name": "index",
          "type": "uint256"
        }
      ],
      "name": "tokenOfOwnerByIndex",
      "outputs": [
        {
          "internalType": "uint256",
          "name": "",
          "type": "uint256"
        }
      ],
      "stateMutability": "view",
      "type": "function"
    },
    {
      "inputs": [
        {
          "internalType": "uint256",
          "name": "tokenId",
          "type": "uint256"
        }
      ],
      "name": "tokenURI",
      "outputs": [
        {
          "internalType": "string",
          "name": "",
          "type": "string"
        }
      ],
      "stateMutability": "view",
      "type": "function"
    },
    {
      "inputs": [],
      "name": "totalSupply",
      "outputs": [
        {
          "internalType": "uint256",
          "name": "",
          "type": "uint256"
        }
      ],
      "stateMutability": "view",
      "type": "function"
    },
    {
      "inputs": [
        {
          "internalType": "address",
          "name": "from",
          "type": "address"
        },
        {
          "internalType": "address",
          "name": "to",
          "type": "address"
        },
        {
          "internalType": "uint256",
          "name": "tokenId",
          "type": "uint256"
        }
      ],
      "name": "transferFrom",
      "outputs": [],
      "stateMutability": "nonpayable",
      "type": "function"
    },
    {
      "inputs": [
        {
          "internalType": "address",
          "name": "newOwner",
          "type": "address"
        }
      ],
      "name": "transferOwnership",
      "outputs": [],
      "stateMutability": "nonpayable",
      "type": "function"
    },
    {
      "inputs": [],
      "name": "unpause",
      "outputs": [],
      "stateMutability": "nonpayable",
      "type": "function"
    },
    {
      "inputs": [],
      "name": "withdraw",
      "outputs": [],
      "stateMutability": "nonpayable",
      "type": "function"
    },
    {
      "stateMutability": "payable",
      "type": "receive"
    }
  ],
  "transactionHash": "0x7c44e06168bf5e28f83653676d53010d28a499557c755316183dadd6db6f51dd",
  "args": [
    "0x2890bA17EfE978480615e330ecB65333b880928e",
    "0x3d1d3E34f7fB6D26245E6640E1c50710eFFf15bA"
  ],
  "solcInputHash": "5e0a3b95d3246f0c8a9fb05fc17ab366",
  "bytecode": "0x608060405266470de4df82000060145560056015553480156200002157600080fd5b50604051620055d7380380620055d7833981016040819052620000449162000466565b81816040518060400160405280601481526020017f3078457373656e7469616c204661697244726f700000000000000000000000008152506040518060400160405280600881526020016704641495244524f560c41b8152506040518060800160405280604381526020016200559460439139825183908390620000d0906002906020850190620003a3565b508051620000e6906003906020840190620003a3565b5050600c805460ff191690555080516200010890600e906020840190620003a3565b506200011f60006200011962000212565b62000216565b6200014e7f9f2df0fed2c77648de5860a4cc508cd0818c85b8b8a1ab4ceeef8d981c8956a66200011962000212565b6200017d7f65d7a28e3265b37a6474929f336521b332c1681b933f6cb9f3376673440d862a6200011962000212565b5050601080546001600160a01b039485166001600160a01b031991821617909155600f805493909416921691909117909155506000620001bc62000212565b601380546001600160a01b0319166001600160a01b038316908117909155604051919250906000907f8be0079c531659141344cd1fd0a4f28419497f9722a3daafe3b4186f6b6457e0908290a3505050620004da565b3390565b6200022d82826200025960201b620013981760201c565b600082815260016020908152604090912062000254918390620013a262000269821b17901c565b505050565b62000265828262000289565b5050565b600062000280836001600160a01b03841662000313565b90505b92915050565b62000295828262000362565b62000265576000828152602081815260408083206001600160a01b03851684529091529020805460ff19166001179055620002cf62000212565b6001600160a01b0316816001600160a01b0316837f2f8788117e7eff1d82e926ec794901d17c78024a50270940304540a733656f0d60405160405180910390a45050565b60006200032183836200038b565b620003595750815460018181018455600084815260208082209093018490558454848252828601909352604090209190915562000283565b50600062000283565b6000918252602082815260408084206001600160a01b0393909316845291905290205460ff1690565b60009081526001919091016020526040902054151590565b828054620003b1906200049d565b90600052602060002090601f016020900481019282620003d5576000855562000420565b82601f10620003f057805160ff191683800117855562000420565b8280016001018555821562000420579182015b828111156200042057825182559160200191906001019062000403565b506200042e92915062000432565b5090565b5b808211156200042e576000815560010162000433565b80516001600160a01b03811681146200046157600080fd5b919050565b6000806040838503121562000479578182fd5b620004848362000449565b9150620004946020840162000449565b90509250929050565b600281046001821680620004b257607f821691505b60208210811415620004d457634e487b7160e01b600052602260045260246000fd5b50919050565b6150aa80620004ea6000396000f3fe6080604052600436106102975760003560e01c8063715018a61161015a578063b88d4fde116100c1578063d547741f1161007a578063d547741f1461074f578063de9b771f1461076f578063e63ab1e914610784578063e985e9c514610799578063f2fde38b146107b9578063f953cec7146107d95761029e565b8063b88d4fde146106b0578063bf583903146106d0578063c0857ba0146106e5578063c87b56dd146106fa578063ca15c8731461071a578063d53913931461073a5761029e565b806395d89b411161011357806395d89b4114610611578063972c492814610626578063a217fddf1461063b578063a22cb46514610650578063a8b5e6ea14610670578063aea4e49e146106905761029e565b8063715018a6146105725780638456cb59146105875780638da5cb5b1461059c5780639010d07c146105b157806391b7f5ed146105d157806391d14854146105f15761029e565b806336568abe116101fe5780635c975abb116101b75780635c975abb146104c8578063607f2d42146104dd5780636352211e146104fd5780636817c76c1461051d5780636a6278421461053257806370a08231146105525761029e565b806336568abe1461041e5780633ccfd60b1461043e5780633f4ba83a1461045357806342842e0e1461046857806342966c68146104885780634f6ccce7146104a85761029e565b806318160ddd1161025057806318160ddd1461038157806323b872dd14610396578063248a9ca3146103b657806326092b83146103d65780632f2ff15d146103de5780632f745c59146103fe5761029e565b806301ffc9a7146102a357806306fdde03146102d9578063081812fc146102fb578063095ea7b3146103285780630e387de61461034a578063142bc2ae1461036c5761029e565b3661029e57005b600080fd5b3480156102af57600080fd5b506102c36102be366004613d8f565b6107f9565b6040516102d0919061400f565b60405180910390f35b3480156102e557600080fd5b506102ee61080c565b6040516102d0919061401a565b34801561030757600080fd5b5061031b610316366004613ce6565b61089e565b6040516102d09190613f9a565b34801561033457600080fd5b50610348610343366004613c09565b6108ea565b005b34801561035657600080fd5b5061035f610982565b6040516102d09190613f49565b34801561037857600080fd5b506102ee6109a6565b34801561038d57600080fd5b5061035f610a34565b3480156103a257600080fd5b506103486103b1366004613b2f565b610a3a565b3480156103c257600080fd5b5061035f6103d1366004613ce6565b610a72565b610348610a87565b3480156103ea57600080fd5b506103486103f9366004613cfe565b610b3b565b34801561040a57600080fd5b5061035f610419366004613c09565b610b5d565b34801561042a57600080fd5b50610348610439366004613cfe565b610bb2565b34801561044a57600080fd5b50610348610bd4565b34801561045f57600080fd5b50610348610c46565b34801561047457600080fd5b50610348610483366004613b2f565b610c96565b34801561049457600080fd5b506103486104a3366004613ce6565b610cb1565b3480156104b457600080fd5b5061035f6104c3366004613ce6565b610ce4565b3480156104d457600080fd5b506102c3610d3f565b3480156104e957600080fd5b506102c36104f8366004613ce6565b610d48565b34801561050957600080fd5b5061031b610518366004613ce6565b610d5d565b34801561052957600080fd5b5061035f610d92565b34801561053e57600080fd5b5061034861054d366004613adb565b610d98565b34801561055e57600080fd5b5061035f61056d366004613adb565b610dfd565b34801561057e57600080fd5b50610348610e41565b34801561059357600080fd5b50610348610eca565b3480156105a857600080fd5b5061031b610f1a565b3480156105bd57600080fd5b5061031b6105cc366004613d22565b610f29565b3480156105dd57600080fd5b506103486105ec366004613ce6565b610f48565b3480156105fd57600080fd5b506102c361060c366004613cfe565b610f8c565b34801561061d57600080fd5b506102ee610fb5565b34801561063257600080fd5b5061031b610fc4565b34801561064757600080fd5b5061035f610fd3565b34801561065c57600080fd5b5061034861066b366004613bd8565b610fd8565b34801561067c57600080fd5b506102c361068b366004613adb565b6110a6565b34801561069c57600080fd5b506103486106ab366004613adb565b6110bb565b3480156106bc57600080fd5b506103486106cb366004613b6f565b611106565b3480156106dc57600080fd5b5061035f611145565b3480156106f157600080fd5b5061031b61114b565b34801561070657600080fd5b506102ee610715366004613ce6565b61115a565b34801561072657600080fd5b5061035f610735366004613ce6565b6111dc565b34801561074657600080fd5b5061035f6111f3565b34801561075b57600080fd5b5061034861076a366004613cfe565b611217565b34801561077b57600080fd5b5061031b611221565b34801561079057600080fd5b5061035f611230565b3480156107a557600080fd5b506102c36107b4366004613af7565b611254565b3480156107c557600080fd5b506103486107d4366004613adb565b611282565b3480156107e557600080fd5b506103486107f4366004613dc7565b611343565b6000610804826113b7565b90505b919050565b60606002805461081b90614f81565b80601f016020809104026020016040519081016040528092919081815260200182805461084790614f81565b80156108945780601f1061086957610100808354040283529160200191610894565b820191906000526020600020905b81548152906001019060200180831161087757829003601f168201915b5050505050905090565b60006108a9826113dc565b6108ce5760405162461bcd60e51b81526004016108c590614703565b60405180910390fd5b506000908152600660205260409020546001600160a01b031690565b60006108f582610d5d565b9050806001600160a01b0316836001600160a01b031614156109295760405162461bcd60e51b81526004016108c5906148f4565b806001600160a01b031661093b6113f9565b6001600160a01b031614806109575750610957816107b46113f9565b6109735760405162461bcd60e51b81526004016108c59061459b565b61097d83836113fd565b505050565b7f8c5261668696ce22758910d05bab8f186d6eb247ceac2af2e82c7dc17669b03681565b601680546109b390614f81565b80601f01602080910402602001604051908101604052809291908181526020018280546109df90614f81565b8015610a2c5780601f10610a0157610100808354040283529160200191610a2c565b820191906000526020600020905b815481529060010190602001808311610a0f57829003601f168201915b505050505081565b600a5490565b610a4b610a456113f9565b8261146b565b610a675760405162461bcd60e51b81526004016108c59061496c565b61097d8383836114f0565b60009081526020819052604090206001015490565b3360009081526018602052604090205460ff16610ab65760405162461bcd60e51b81526004016108c5906148d2565b6014543414610ad75760405162461bcd60e51b81526004016108c59061474f565b336000818152601860205260409020805460ff19169055610af790610d98565b600160156000828254610b0a9190614f04565b9091555050601554604051610b3991610b2591602001613f49565b60405160208183030381529060405261161d565b565b610b458282611688565b600082815260016020526040902061097d90826113a2565b6000610b6883610dfd565b8210610b865760405162461bcd60e51b81526004016108c590614197565b506001600160a01b03821660009081526008602090815260408083208484529091529020545b92915050565b610bbc82826116ac565b600082815260016020526040902061097d90826116ee565b610bdc6113f9565b6001600160a01b0316610bed610f1a565b6001600160a01b031614610c135760405162461bcd60e51b81526004016108c590614771565b6040514790339082156108fc029083906000818181858888f19350505050158015610c42573d6000803e3d6000fd5b5050565b610c727f65d7a28e3265b37a6474929f336521b332c1681b933f6cb9f3376673440d862a61060c6113f9565b610c8e5760405162461bcd60e51b81526004016108c590614bfe565b610b39611703565b61097d83838360405180602001604052806000815250611106565b610cbc610a456113f9565b610cd85760405162461bcd60e51b81526004016108c590614b77565b610ce181611771565b50565b6000610cee610a34565b8210610d0c5760405162461bcd60e51b81526004016108c5906149f4565b600a8281548110610d2d57634e487b7160e01b600052603260045260246000fd5b90600052602060002001549050919050565b600c5460ff1690565b60126020526000908152604090205460ff1681565b6000818152600460205260408120546001600160a01b0316806108045760405162461bcd60e51b81526004016108c590614642565b60145481565b610dc47f9f2df0fed2c77648de5860a4cc508cd0818c85b8b8a1ab4ceeef8d981c8956a661060c6113f9565b610de05760405162461bcd60e51b81526004016108c590614acc565b610df381610dee600d611818565b61181c565b610ce1600d6118fb565b60006001600160a01b038216610e255760405162461bcd60e51b81526004016108c5906145f8565b506001600160a01b031660009081526005602052604090205490565b610e496113f9565b6001600160a01b0316610e5a610f1a565b6001600160a01b031614610e805760405162461bcd60e51b81526004016108c590614771565b6013546040516000916001600160a01b0316907f8be0079c531659141344cd1fd0a4f28419497f9722a3daafe3b4186f6b6457e0908390a3601380546001600160a01b0319169055565b610ef67f65d7a28e3265b37a6474929f336521b332c1681b933f6cb9f3376673440d862a61060c6113f9565b610f125760405162461bcd60e51b81526004016108c590614382565b610b39611904565b6013546001600160a01b031690565b6000828152600160205260408120610f41908361195f565b9392505050565b610f506113f9565b6001600160a01b0316610f61610f1a565b6001600160a01b031614610f875760405162461bcd60e51b81526004016108c590614771565b601455565b6000918252602082815260408084206001600160a01b0393909316845291905290205460ff1690565b60606003805461081b90614f81565b6011546001600160a01b031681565b600081565b610fe06113f9565b6001600160a01b0316826001600160a01b031614156110115760405162461bcd60e51b81526004016108c590614423565b806007600061101e6113f9565b6001600160a01b03908116825260208083019390935260409182016000908120918716808252919093529120805460ff1916921515929092179091556110626113f9565b6001600160a01b03167f17307eab39ab6107e8899845ad3d59bd9653f200f220920489ca2b5937696c318360405161109a919061400f565b60405180910390a35050565b60186020526000908152604090205460ff1681565b6011546001600160a01b0316156110e45760405162461bcd60e51b81526004016108c5906141e2565b601180546001600160a01b0319166001600160a01b0392909216919091179055565b6111176111116113f9565b8361146b565b6111335760405162461bcd60e51b81526004016108c59061496c565b61113f8484848461196b565b50505050565b60155481565b6010546001600160a01b031681565b6060611165826113dc565b6111815760405162461bcd60e51b81526004016108c5906147ef565b600061118b61199e565b905060008151116111ab5760405180602001604052806000815250610f41565b806111b5846119ad565b6040516020016111c6929190613ea5565b6040516020818303038152906040529392505050565b600081815260016020526040812061080490611ac7565b7f9f2df0fed2c77648de5860a4cc508cd0818c85b8b8a1ab4ceeef8d981c8956a681565b610bbc8282611ad2565b600f546001600160a01b031681565b7f65d7a28e3265b37a6474929f336521b332c1681b933f6cb9f3376673440d862a81565b6001600160a01b03918216600090815260076020908152604080832093909416825291909152205460ff1690565b61128a6113f9565b6001600160a01b031661129b610f1a565b6001600160a01b0316146112c15760405162461bcd60e51b81526004016108c590614771565b6001600160a01b0381166112e75760405162461bcd60e51b81526004016108c59061427e565b6013546040516001600160a01b038084169216907f8be0079c531659141344cd1fd0a4f28419497f9722a3daafe3b4186f6b6457e090600090a3601380546001600160a01b0319166001600160a01b0392909216919091179055565b61134b6113f9565b6001600160a01b031661135c610f1a565b6001600160a01b0316146113825760405162461bcd60e51b81526004016108c590614771565b600061138d82611af1565b9050610c4281611f9f565b610c428282612026565b6000610f41836001600160a01b0384166120ab565b60006001600160e01b0319821663780e9d6360e01b14806108045750610804826120f5565b6000908152600460205260409020546001600160a01b0316151590565b3390565b600081815260066020526040902080546001600160a01b0319166001600160a01b038416908117909155819061143282610d5d565b6001600160a01b03167f8c5be1e5ebec7d5bd14f71427d1e84f3dd0314c0f7b2291e5b200ac8c7c3b92560405160405180910390a45050565b6000611476826113dc565b6114925760405162461bcd60e51b81526004016108c590614491565b600061149d83610d5d565b9050806001600160a01b0316846001600160a01b031614806114d85750836001600160a01b03166114cd8461089e565b6001600160a01b0316145b806114e857506114e88185611254565b949350505050565b826001600160a01b031661150382610d5d565b6001600160a01b0316146115295760405162461bcd60e51b81526004016108c5906147a6565b6001600160a01b03821661154f5760405162461bcd60e51b81526004016108c5906143df565b61155a838383612135565b6115656000826113fd565b6001600160a01b038316600090815260056020526040812080546001929061158e908490614f04565b90915550506001600160a01b03821660009081526005602052604081208054600192906115bc908490614d83565b909155505060008181526004602052604080822080546001600160a01b0319166001600160a01b0386811691821790925591518493918716917fddf252ad1be2c89b69c2b068fc378daa952ba7f163c4a11628f55a4df523b3ef91a4505050565b600f5460115460405163b472047760e01b81526001600160a01b039283169263b472047792611653929116908590600401613feb565b600060405180830381600087803b15801561166d57600080fd5b505af1158015611681573d6000803e3d6000fd5b5050505050565b61169182610a72565b6116a28161169d6113f9565b612140565b61097d8383612026565b6116b46113f9565b6001600160a01b0316816001600160a01b0316146116e45760405162461bcd60e51b81526004016108c590614c5c565b610c4282826121a4565b6000610f41836001600160a01b038416612227565b61170b610d3f565b6117275760405162461bcd60e51b81526004016108c590614134565b600c805460ff191690557f5db9ee0a495bf2e6ff9c91a7834c1ba4fdd244a5e8aa4e537bd38aeae4b073aa61175a6113f9565b6040516117679190613f9a565b60405180910390a1565b600061177c82610d5d565b905061178a81600084612135565b6117956000836113fd565b6001600160a01b03811660009081526005602052604081208054600192906117be908490614f04565b909155505060008281526004602052604080822080546001600160a01b0319169055518391906001600160a01b038416907fddf252ad1be2c89b69c2b068fc378daa952ba7f163c4a11628f55a4df523b3ef908390a45050565b5490565b6001600160a01b0382166118425760405162461bcd60e51b81526004016108c5906146ce565b61184b816113dc565b156118685760405162461bcd60e51b81526004016108c5906142c4565b61187460008383612135565b6001600160a01b038216600090815260056020526040812080546001929061189d908490614d83565b909155505060008181526004602052604080822080546001600160a01b0319166001600160a01b03861690811790915590518392907fddf252ad1be2c89b69c2b068fc378daa952ba7f163c4a11628f55a4df523b3ef908290a45050565b80546001019055565b61190c610d3f565b156119295760405162461bcd60e51b81526004016108c590614525565b600c805460ff191660011790557f62e78cea01bee320cd4e420270b5ea74000d11b0c9f74754ebdbfc544b05a25861175a6113f9565b6000610f41838361233e565b6119768484846114f0565b61198284848484612397565b61113f5760405162461bcd60e51b81526004016108c59061422c565b6060600e805461081b90614f81565b6060816119d257506040805180820190915260018152600360fc1b6020820152610807565b8160005b81156119fc57806119e681614fb6565b91506119f59050600a83614d9b565b91506119d6565b6000816001600160401b03811115611a2457634e487b7160e01b600052604160045260246000fd5b6040519080825280601f01601f191660200182016040528015611a4e576020820181803683370190505b5090505b84156114e857611a63600183614f04565b9150611a70600a86614fd1565b611a7b906030614d83565b60f81b818381518110611a9e57634e487b7160e01b600052603260045260246000fd5b60200101906001600160f81b031916908160001a905350611ac0600a86614d9b565b9450611a52565b600061080482611818565b611adb82610a72565b611ae78161169d6113f9565b61097d83836121a4565b60606000611b06611b01846124b2565b6124f8565b90506000611b3b82600281518110611b2e57634e487b7160e01b600052603260045260246000fd5b6020026020010151612663565b611b74611b6f84600881518110611b6257634e487b7160e01b600052603260045260246000fd5b602002602001015161273d565b61280d565b611b9884600981518110611b2e57634e487b7160e01b600052603260045260246000fd5b604051602001611baa93929190613f52565b60408051601f1981840301815291815281516020928301206000818152601290935291205490915060ff1615611bf25760405162461bcd60e51b81526004016108c59061433e565b6000818152601260205260408120805460ff191660011790558251611c3f90611b0190611c3a9086906006908110611b6257634e487b7160e01b600052603260045260246000fd5b6124b2565b90506000611c7482600381518110611c6757634e487b7160e01b600052603260045260246000fd5b60200260200101516124f8565b611c9885600981518110611b2e57634e487b7160e01b600052603260045260246000fd5b81518110611cb657634e487b7160e01b600052603260045260246000fd5b602002602001015190506000611ccb826124f8565b9050611cfe81600081518110611cf157634e487b7160e01b600052603260045260246000fd5b6020026020010151612a02565b6011546001600160a01b03908116911614611d2b5760405162461bcd60e51b81526004016108c590614a87565b611dc3611d5286600681518110611b6257634e487b7160e01b600052603260045260246000fd5b611d7687600881518110611b6257634e487b7160e01b600052603260045260246000fd5b611d9a88600781518110611b6257634e487b7160e01b600052603260045260246000fd5b611dbe89600581518110611b2e57634e487b7160e01b600052603260045260246000fd5b612a53565b611ddf5760405162461bcd60e51b81526004016108c5906142fb565b611ec5611e0686600281518110611b2e57634e487b7160e01b600052603260045260246000fd5b611e2a87600381518110611b2e57634e487b7160e01b600052603260045260246000fd5b611e4e88600481518110611b2e57634e487b7160e01b600052603260045260246000fd5b60001b611e7589600581518110611b2e57634e487b7160e01b600052603260045260246000fd5b60001b611e9c8a600081518110611b2e57634e487b7160e01b600052603260045260246000fd5b611ec08b600181518110611b6257634e487b7160e01b600052603260045260246000fd5b612d54565b506000611eec82600181518110611c6757634e487b7160e01b600052603260045260246000fd5b90507f8c5261668696ce22758910d05bab8f186d6eb247ceac2af2e82c7dc17669b03660001b611f3682600081518110611b2e57634e487b7160e01b600052603260045260246000fd5b14611f535760405162461bcd60e51b81526004016108c590614935565b6000611f7983600281518110611b6257634e487b7160e01b600052603260045260246000fd5b9050600081806020019051810190611f919190613df9565b9a9950505050505050505050565b60408051600580825260c082019092526000916020820160a08036833701905050905081806020019051810190611fd69190613c34565b905060005b600581101561097d5761201482828151811061200757634e487b7160e01b600052603260045260246000fd5b6020026020010151612e5c565b8061201e81614fb6565b915050611fdb565b6120308282610f8c565b610c42576000828152602081815260408083206001600160a01b03851684529091529020805460ff191660011790556120676113f9565b6001600160a01b0316816001600160a01b0316837f2f8788117e7eff1d82e926ec794901d17c78024a50270940304540a733656f0d60405160405180910390a45050565b60006120b78383612f4b565b6120ed57508154600181810184556000848152602080822090930184905584548482528286019093526040902091909155610bac565b506000610bac565b60006001600160e01b031982166380ac58cd60e01b148061212657506001600160e01b03198216635b5e139f60e01b145b80610804575061080482612f63565b61097d838383612f88565b61214a8282610f8c565b610c4257612162816001600160a01b03166014612fb8565b61216d836020612fb8565b60405160200161217e929190613ed4565b60408051601f198184030181529082905262461bcd60e51b82526108c59160040161401a565b6121ae8282610f8c565b15610c42576000828152602081815260408083206001600160a01b03851684529091529020805460ff191690556121e36113f9565b6001600160a01b0316816001600160a01b0316837ff6391f5c32d9c69d2a47ea670b442974b53935d1edc7fd64eb21e047a839171b60405160405180910390a45050565b6000818152600183016020526040812054801561233457600061224b600183614f04565b855490915060009061225f90600190614f04565b9050600086600001828154811061228657634e487b7160e01b600052603260045260246000fd5b90600052602060002001549050808760000184815481106122b757634e487b7160e01b600052603260045260246000fd5b6000918252602080832090910192909255828152600189019091526040902084905586548790806122f857634e487b7160e01b600052603160045260246000fd5b60019003818190600052602060002001600090559055866001016000878152602001908152602001600020600090556001945050505050610bac565b6000915050610bac565b815460009082106123615760405162461bcd60e51b81526004016108c59061402d565b82600001828154811061238457634e487b7160e01b600052603260045260246000fd5b9060005260206000200154905092915050565b60006123ab846001600160a01b0316613169565b156124a757836001600160a01b031663150b7a026123c76113f9565b8786866040518563ffffffff1660e01b81526004016123e99493929190613fae565b602060405180830381600087803b15801561240357600080fd5b505af1925050508015612433575060408051601f3d908101601f1916820190925261243091810190613dab565b60015b61248d573d808015612461576040519150601f19603f3d011682016040523d82523d6000602084013e612466565b606091505b5080516124855760405162461bcd60e51b81526004016108c59061422c565b805181602001fd5b6001600160e01b031916630a85bd0160e11b1490506114e8565b506001949350505050565b6124ba613a70565b60008251116124db5760405162461bcd60e51b81526004016108c59061445a565b506040805180820190915281518152602082810190820152919050565b60606125038261316f565b61251f5760405162461bcd60e51b81526004016108c590614bc7565b600061252a8361319b565b90506000816001600160401b0381111561255457634e487b7160e01b600052604160045260246000fd5b60405190808252806020026020018201604052801561258d57816020015b61257a613a70565b8152602001906001900390816125725790505b509050600061259f8560200151613233565b855190915081146125c25760405162461bcd60e51b81526004016108c590614a40565b60006125d186602001516132dc565b86602001516125e09190614d83565b90506000805b85811015612657576125f783613233565b915060405180604001604052808381526020018481525085828151811061262e57634e487b7160e01b600052603260045260246000fd5b60209081029190910101526126438284614d83565b92508061264f81614fb6565b9150506125e6565b50929695505050505050565b600061266e8261316f565b1561268b5760405162461bcd60e51b81526004016108c590614162565b8151602110156126ad5760405162461bcd60e51b81526004016108c5906149bd565b60006126bc8360200151613233565b835190915081146126df5760405162461bcd60e51b81526004016108c590614cab565b60006126ee84602001516132dc565b905060008185600001516127029190614f04565b90506000808387602001516127179190614d83565b905080519150602083101561273357826020036101000a820491505b5095945050505050565b6060600061274e8360200151613233565b835190915081146127715760405162461bcd60e51b81526004016108c5906144dd565b600061278084602001516132dc565b905060008185600001516127949190614f04565b90506000816001600160401b038111156127be57634e487b7160e01b600052604160045260246000fd5b6040519080825280601f01601f1916602001820160405280156127e8576020820181803683370190505b50905060008160200190506127338488602001516128069190614d83565b8285613367565b60408051602081019091526000815281516060919015610804576000806128356000866133e0565b60f81c9050600181148061284c57508060ff166003145b1561290f576001855160026128619190614ee5565b61286b9190614f04565b6001600160401b0381111561289057634e487b7160e01b600052604160045260246000fd5b6040519080825280601f01601f1916602001820160405280156128ba576020820181803683370190505b50925060006128ca6001876133e0565b905080846000815181106128ee57634e487b7160e01b600052603260045260246000fd5b60200101906001600160f81b031916908160001a9053506001925050612980565b60028551600261291f9190614ee5565b6129299190614f04565b6001600160401b0381111561294e57634e487b7160e01b600052604160045260246000fd5b6040519080825280601f01601f191660200182016040528015612978576020820181803683370190505b509250600091505b60ff82165b83518110156129f8576129af61299e60ff851683614f04565b6129a9906002614d83565b876133e0565b8482815181106129cf57634e487b7160e01b600052603260045260246000fd5b60200101906001600160f81b031916908160001a905350806129f081614fb6565b915050612985565b5050509050919050565b6000612a0d8261316f565b15612a2a5760405162461bcd60e51b81526004016108c59061468b565b8151601514612a4b5760405162461bcd60e51b81526004016108c590614cf2565b506014015190565b600080612a5f846124b2565b90506000612a6c826124f8565b905060608085600080612a7e8b61280d565b9050805160001415612a9a5760009750505050505050506114e8565b60005b8651811015612d41578151831115612ac0576000985050505050505050506114e8565b612af0878281518110612ae357634e487b7160e01b600052603260045260246000fd5b602002602001015161347d565b955085805190602001208414612b11576000985050505050505050506114e8565b612b34878281518110611c6757634e487b7160e01b600052603260045260246000fd5b9450845160111415612c33578151831415612ba4578c80519060200120612b7586601081518110611b6257634e487b7160e01b600052603260045260246000fd5b805190602001201415612b93576001985050505050505050506114e8565b6000985050505050505050506114e8565b6000828481518110612bc657634e487b7160e01b600052603260045260246000fd5b016020015160f81c90506010811115612beb57600099505050505050505050506114e8565b612c1e868260ff1681518110612c1157634e487b7160e01b600052603260045260246000fd5b60200260200101516134f3565b9450612c2b600185614d83565b935050612d2f565b845160021415612b93576000612c6d612c6687600081518110611b6257634e487b7160e01b600052603260045260246000fd5b8486613565565b8351909150612c7c8286614d83565b1415612cdf578d80519060200120612cae87600181518110611b6257634e487b7160e01b600052603260045260246000fd5b805190602001201415612ccd57600199505050505050505050506114e8565b600099505050505050505050506114e8565b80612cf657600099505050505050505050506114e8565b612d008185614d83565b9350612d2686600181518110612c1157634e487b7160e01b600052603260045260246000fd5b9450612d2f9050565b80612d3981614fb6565b915050612a9d565b5060009c9b505050505050505050505050565b6010546040516320a9cea560e11b81526000918291829182916001600160a01b03909116906341539d4a90612d8d908990600401613f49565b60a06040518083038186803b158015612da557600080fd5b505afa158015612db9573d6000803e3d6000fd5b505050506040513d601f19601f82011682018060405250810190612ddd9190613d43565b5093505092509250612e33828b612df49190614f04565b84878d8d8d8d604051602001612e0d9493929190613f7f565b60405160208183030381529060405280519060200120613697909392919063ffffffff16565b612e4f5760405162461bcd60e51b81526004016108c59061489b565b9998505050505050505050565b6017805460018082019092557fc624b66cc0138b8fabc209247f72d758e1cf3343756d543badbf24212bed8c150180546001600160a01b0319166001600160a01b0384169081179091556000908152601860205260408120805460ff19168317905560198054909190612ed0908490614d83565b9091555050601954600511610ce15760006018600060176005601954612ef69190614f04565b81548110612f1457634e487b7160e01b600052603260045260246000fd5b6000918252602080832091909101546001600160a01b031683528201929092526040019020805460ff191691151591909117905550565b60009081526001919091016020526040902054151590565b60006001600160e01b03198216635a05180f60e01b14806108045750610804826137ab565b612f938383836137d0565b612f9b610d3f565b1561097d5760405162461bcd60e51b81526004016108c5906140e9565b60606000612fc7836002614ee5565b612fd2906002614d83565b6001600160401b03811115612ff757634e487b7160e01b600052604160045260246000fd5b6040519080825280601f01601f191660200182016040528015613021576020820181803683370190505b509050600360fc1b8160008151811061304a57634e487b7160e01b600052603260045260246000fd5b60200101906001600160f81b031916908160001a905350600f60fb1b8160018151811061308757634e487b7160e01b600052603260045260246000fd5b60200101906001600160f81b031916908160001a90535060006130ab846002614ee5565b6130b6906001614d83565b90505b600181111561314a576f181899199a1a9b1b9c1cb0b131b232b360811b85600f16601081106130f857634e487b7160e01b600052603260045260246000fd5b1a60f81b82828151811061311c57634e487b7160e01b600052603260045260246000fd5b60200101906001600160f81b031916908160001a90535060049490941c9361314381614f6a565b90506130b9565b508315610f415760405162461bcd60e51b81526004016108c59061406f565b3b151590565b6020810151805160009190821a9060c082101561319157600092505050610807565b5060019392505050565b6000806000905060006131b184602001516132dc565b84602001516131c09190614d83565b90506000846000015185602001516131d89190614d83565b90505b8082101561322a576131ec82613233565b6131f69083614d83565b9150808211156132185760405162461bcd60e51b81526004016108c59061454f565b8261322281614fb6565b9350506131db565b50909392505050565b80516000908190811a608081101561324e57600191506132d5565b60b881101561327457613262608082614f04565b61326d906001614d83565b91506132d5565b60c08110156132a15760b78103600185019450806020036101000a855104600182018101935050506132d5565b60f88110156132b55761326260c082614f04565b60f78103600185019450806020036101000a855104600182018101935050505b5092915050565b8051600090811a60808110156132f6576000915050610807565b60b8811080613311575060c08110801590613311575060f881105b15613320576001915050610807565b60c081101561335557613335600160b8614f1b565b6133429060ff1682614f04565b61334d906001614d83565b915050610807565b613335600160f8614f1b565b50919050565b806133715761097d565b602081106133a95782518252613388602084614d83565b9250613395602083614d83565b91506133a2602082614f04565b9050613371565b600060016133b8836020614f04565b6133c490610100614e17565b6133ce9190614f04565b84518451821691191617835250505050565b60006133ed600284614fd1565b1561343557601082613400600286614d9b565b8151811061341e57634e487b7160e01b600052603260045260246000fd5b0160200151613430919060f81c614fe5565b613473565b601082613443600286614d9b565b8151811061346157634e487b7160e01b600052603260045260246000fd5b0160200151613473919060f81c614daf565b60f81b9392505050565b6060600082600001516001600160401b038111156134ab57634e487b7160e01b600052604160045260246000fd5b6040519080825280601f01601f1916602001820160405280156134d5576020820181803683370190505b50905060008160200190506132d58460200151828660000151613367565b6000806135038360200151613233565b835190915081146135265760405162461bcd60e51b81526004016108c590614b29565b82516021146135475760405162461bcd60e51b81526004016108c5906140a4565b6000808460200151600161355b9190614d83565b5195945050505050565b600080806135728661280d565b9050600081516001600160401b0381111561359d57634e487b7160e01b600052604160045260246000fd5b6040519080825280601f01601f1916602001820160405280156135c7576020820181803683370190505b509050845b82516135d89087614d83565b81101561366757600087828151811061360157634e487b7160e01b600052603260045260246000fd5b01602001516001600160f81b0319169050808361361e8985614f04565b8151811061363c57634e487b7160e01b600052603260045260246000fd5b60200101906001600160f81b031916908160001a90535050808061365f90614fb6565b9150506135cc565b50808051906020012082805190602001201415613687578151925061368c565b600092505b509095945050505050565b6000602082516136a79190614fd1565b156136c45760405162461bcd60e51b81526004016108c59061483e565b6000602083516136d49190614d9b565b90506136e1816002614e17565b85106136ff5760405162461bcd60e51b81526004016108c59061486c565b60008660205b8551811161379d5785810151925061371e600289614fd1565b613752578183604051602001613735929190613e97565b60405160208183030381529060405280519060200120915061377e565b8282604051602001613765929190613e97565b6040516020818303038152906040528051906020012091505b613789600289614d9b565b9750613796602082614d83565b9050613705565b509094149695505050505050565b60006001600160e01b03198216637965db0b60e01b1480610804575061080482613859565b6137db83838361097d565b6001600160a01b0383166137f7576137f281613872565b61381a565b816001600160a01b0316836001600160a01b03161461381a5761381a83826138b6565b6001600160a01b0382166138365761383181613953565b61097d565b826001600160a01b0316826001600160a01b03161461097d5761097d8282613a2c565b6001600160e01b031981166301ffc9a760e01b14919050565b600a80546000838152600b60205260408120829055600182018355919091527fc65a7bb8d6351c1cf70c95a316cc6a92839c986682d98bc35f958f4883f9d2a80155565b600060016138c384610dfd565b6138cd9190614f04565b600083815260096020526040902054909150808214613920576001600160a01b03841660009081526008602090815260408083208584528252808320548484528184208190558352600990915290208190555b5060009182526009602090815260408084208490556001600160a01b039094168352600881528383209183525290812055565b600a5460009061396590600190614f04565b6000838152600b6020526040812054600a805493945090928490811061399b57634e487b7160e01b600052603260045260246000fd5b9060005260206000200154905080600a83815481106139ca57634e487b7160e01b600052603260045260246000fd5b6000918252602080832090910192909255828152600b9091526040808220849055858252812055600a805480613a1057634e487b7160e01b600052603160045260246000fd5b6001900381819060005260206000200160009055905550505050565b6000613a3783610dfd565b6001600160a01b039093166000908152600860209081526040808320868452825280832085905593825260099052919091209190915550565b604051806040016040528060008152602001600081525090565b600082601f830112613a9a578081fd5b8135613aad613aa882614d5c565b614d33565b818152846020838601011115613ac1578283fd5b816020850160208301379081016020019190915292915050565b600060208284031215613aec578081fd5b8135610f4181615049565b60008060408385031215613b09578081fd5b8235613b1481615049565b91506020830135613b2481615049565b809150509250929050565b600080600060608486031215613b43578081fd5b8335613b4e81615049565b92506020840135613b5e81615049565b929592945050506040919091013590565b60008060008060808587031215613b84578081fd5b8435613b8f81615049565b93506020850135613b9f81615049565b92506040850135915060608501356001600160401b03811115613bc0578182fd5b613bcc87828801613a8a565b91505092959194509250565b60008060408385031215613bea578182fd5b8235613bf581615049565b915060208301358015158114613b24578182fd5b60008060408385031215613c1b578182fd5b8235613c2681615049565b946020939093013593505050565b60006020808385031215613c46578182fd5b82516001600160401b0380821115613c5c578384fd5b818501915085601f830112613c6f578384fd5b815181811115613c8157613c81615033565b8381029150613c91848301614d33565b8181528481019084860184860187018a1015613cab578788fd5b8795505b83861015613cd95780519450613cc485615049565b84835260019590950194918601918601613caf565b5098975050505050505050565b600060208284031215613cf7578081fd5b5035919050565b60008060408385031215613d10578182fd5b823591506020830135613b2481615049565b60008060408385031215613d34578081fd5b50508035926020909101359150565b600080600080600060a08688031215613d5a578283fd5b855194506020860151935060408601519250606086015191506080860151613d8181615049565b809150509295509295909350565b600060208284031215613da0578081fd5b8135610f418161505e565b600060208284031215613dbc578081fd5b8151610f418161505e565b600060208284031215613dd8578081fd5b81356001600160401b03811115613ded578182fd5b6114e884828501613a8a565b600060208284031215613e0a578081fd5b81516001600160401b03811115613e1f578182fd5b8201601f81018413613e2f578182fd5b8051613e3d613aa882614d5c565b818152856020838501011115613e51578384fd5b613e62826020830160208601614f3e565b95945050505050565b60008151808452613e83816020860160208601614f3e565b601f01601f19169290920160200192915050565b918252602082015260400190565b60008351613eb7818460208801614f3e565b835190830190613ecb818360208801614f3e565b01949350505050565b60007f416363657373436f6e74726f6c3a206163636f756e742000000000000000000082528351613f0c816017850160208801614f3e565b7001034b99036b4b9b9b4b733903937b6329607d1b6017918401918201528351613f3d816028840160208801614f3e565b01602801949350505050565b90815260200190565b60008482528351613f6a816020850160208801614f3e565b60209201918201929092526040019392505050565b93845260208401929092526040830152606082015260800190565b6001600160a01b0391909116815260200190565b6001600160a01b0385811682528416602082015260408101839052608060608201819052600090613fe190830184613e6b565b9695505050505050565b6001600160a01b03831681526040602082018190526000906114e890830184613e6b565b901515815260200190565b600060208252610f416020830184613e6b565b60208082526022908201527f456e756d657261626c655365743a20696e646578206f7574206f6620626f756e604082015261647360f01b606082015260800190565b6020808252818101527f537472696e67733a20686578206c656e67746820696e73756666696369656e74604082015260600190565b60208082526025908201527f524c505265616465723a20494e56414c49445f55494e545f5354524943545f4c60408201526408a9c8ea8960db1b606082015260800190565b6020808252602b908201527f4552433732315061757361626c653a20746f6b656e207472616e73666572207760408201526a1a1a5b19481c185d5cd95960aa1b606082015260800190565b60208082526014908201527314185d5cd8589b194e881b9bdd081c185d5cd95960621b604082015260600190565b6020808252818101527f524c505265616465723a204445434f44494e475f4c4953545f41535f55494e54604082015260600190565b6020808252602b908201527f455243373231456e756d657261626c653a206f776e657220696e646578206f7560408201526a74206f6620626f756e647360a81b606082015260800190565b6020808252602a908201527f467842617365526f6f7454756e6e656c3a204348494c445f54554e4e454c5f4160408201526913149150511657d4d15560b21b606082015260800190565b60208082526032908201527f4552433732313a207472616e7366657220746f206e6f6e20455243373231526560408201527131b2b4bb32b91034b6b83632b6b2b73a32b960711b606082015260800190565b60208082526026908201527f4f776e61626c653a206e6577206f776e657220697320746865207a65726f206160408201526564647265737360d01b606082015260800190565b6020808252601c908201527f4552433732313a20746f6b656e20616c7265616479206d696e74656400000000604082015260600190565b60208082526023908201527f4678526f6f7454756e6e656c3a20494e56414c49445f524543454950545f505260408201526227a7a360e91b606082015260800190565b60208082526024908201527f4678526f6f7454756e6e656c3a20455849545f414c52454144595f50524f434560408201526314d4d15160e21b606082015260800190565b6020808252603e908201527f4552433732315072657365744d696e7465725061757365724175746f49643a2060408201527f6d75737420686176652070617573657220726f6c6520746f2070617573650000606082015260800190565b60208082526024908201527f4552433732313a207472616e7366657220746f20746865207a65726f206164646040820152637265737360e01b606082015260800190565b60208082526019908201527f4552433732313a20617070726f766520746f2063616c6c657200000000000000604082015260600190565b6020808252601f908201527f524c505265616465723a20494e56414c49445f42595445535f4c454e47544800604082015260600190565b6020808252602c908201527f4552433732313a206f70657261746f7220717565727920666f72206e6f6e657860408201526b34b9ba32b73a103a37b5b2b760a11b606082015260800190565b60208082526028908201527f524c505265616465723a2042595445535f4445434f4445445f4c454e4754485f60408201526709a92a69a82a886960c31b606082015260800190565b60208082526010908201526f14185d5cd8589b194e881c185d5cd95960821b604082015260600190565b6020808252602c908201527f524c505265616465723a204e554d5f4954454d535f4445434f4445445f4c454e60408201526b08ea890be9a92a69a82a886960a31b606082015260800190565b60208082526038908201527f4552433732313a20617070726f76652063616c6c6572206973206e6f74206f7760408201527f6e6572206e6f7220617070726f76656420666f7220616c6c0000000000000000606082015260800190565b6020808252602a908201527f4552433732313a2062616c616e636520717565727920666f7220746865207a65604082015269726f206164647265737360b01b606082015260800190565b60208082526029908201527f4552433732313a206f776e657220717565727920666f72206e6f6e657869737460408201526832b73a103a37b5b2b760b91b606082015260800190565b60208082526023908201527f524c505265616465723a204445434f44494e475f4c4953545f41535f4144445260408201526245535360e81b606082015260800190565b6020808252818101527f4552433732313a206d696e7420746f20746865207a65726f2061646472657373604082015260600190565b6020808252602c908201527f4552433732313a20617070726f76656420717565727920666f72206e6f6e657860408201526b34b9ba32b73a103a37b5b2b760a11b606082015260800190565b60208082526008908201526723221d369d1a181960c11b604082015260600190565b6020808252818101527f4f776e61626c653a2063616c6c6572206973206e6f7420746865206f776e6572604082015260600190565b60208082526029908201527f4552433732313a207472616e73666572206f6620746f6b656e2074686174206960408201526839903737ba1037bbb760b91b606082015260800190565b6020808252602f908201527f4552433732314d657461646174613a2055524920717565727920666f72206e6f60408201526e3732bc34b9ba32b73a103a37b5b2b760891b606082015260800190565b602080825260149082015273092dcecc2d8d2c840e0e4dedecc40d8cadccee8d60631b604082015260600190565b6020808252601590820152744c65616620696e64657820697320746f6f2062696760581b604082015260600190565b6020808252601c908201527f4678526f6f7454756e6e656c3a20494e56414c49445f48454144455200000000604082015260600190565b60208082526008908201526746443a6d3a34303360c01b604082015260600190565b60208082526021908201527f4552433732313a20617070726f76616c20746f2063757272656e74206f776e656040820152603960f91b606082015260800190565b6020808252601f908201527f4678526f6f7454756e6e656c3a20494e56414c49445f5349474e415455524500604082015260600190565b60208082526031908201527f4552433732313a207472616e736665722063616c6c6572206973206e6f74206f6040820152701ddb995c881b9bdc88185c1c1c9bdd9959607a1b606082015260800190565b6020808252601e908201527f524c505265616465723a20494e56414c49445f55494e545f4c454e4754480000604082015260600190565b6020808252602c908201527f455243373231456e756d657261626c653a20676c6f62616c20696e646578206f60408201526b7574206f6620626f756e647360a01b606082015260800190565b60208082526027908201527f524c505265616465723a204c4953545f4445434f4445445f4c454e4754485f4d604082015266092a69a82a886960cb1b606082015260800190565b60208082526025908201527f4678526f6f7454756e6e656c3a20494e56414c49445f46585f4348494c445f54604082015264155393915360da1b606082015260800190565b6020808252603d908201527f4552433732315072657365744d696e7465725061757365724175746f49643a2060408201527f6d7573742068617665206d696e74657220726f6c6520746f206d696e74000000606082015260800190565b6020808252602e908201527f524c505265616465723a2055494e545f5354524943545f4445434f4445445f4c60408201526d08a9c8ea890be9a92a69a82a886960931b606082015260800190565b60208082526030908201527f4552433732314275726e61626c653a2063616c6c6572206973206e6f74206f7760408201526f1b995c881b9bdc88185c1c1c9bdd995960821b606082015260800190565b60208082526018908201527f524c505265616465723a204954454d5f4e4f545f4c4953540000000000000000604082015260600190565b602080825260409082018190527f4552433732315072657365744d696e7465725061757365724175746f49643a20908201527f6d75737420686176652070617573657220726f6c6520746f20756e7061757365606082015260800190565b6020808252602f908201527f416363657373436f6e74726f6c3a2063616e206f6e6c792072656e6f756e636560408201526e103937b632b9903337b91039b2b63360891b606082015260800190565b60208082526027908201527f524c505265616465723a2055494e545f4445434f4445445f4c454e4754485f4d604082015266092a69a82a886960cb1b606082015260800190565b60208082526021908201527f524c505265616465723a20494e56414c49445f414444524553535f4c454e47546040820152600960fb1b606082015260800190565b6040518181016001600160401b0381118282101715614d5457614d54615033565b604052919050565b60006001600160401b03821115614d7557614d75615033565b50601f01601f191660200190565b60008219821115614d9657614d96615007565b500190565b600082614daa57614daa61501d565b500490565b600060ff831680614dc257614dc261501d565b8060ff84160491505092915050565b80825b6001808611614de35750614e0e565b818704821115614df557614df5615007565b80861615614e0257918102915b9490941c938002614dd4565b94509492505050565b6000610f416000198484600082614e3057506001610f41565b81614e3d57506000610f41565b8160018114614e535760028114614e5d57614e8a565b6001915050610f41565b60ff841115614e6e57614e6e615007565b6001841b915084821115614e8457614e84615007565b50610f41565b5060208310610133831016604e8410600b8410161715614ebd575081810a83811115614eb857614eb8615007565b610f41565b614eca8484846001614dd1565b808604821115614edc57614edc615007565b02949350505050565b6000816000190483118215151615614eff57614eff615007565b500290565b600082821015614f1657614f16615007565b500390565b600060ff821660ff841680821015614f3557614f35615007565b90039392505050565b60005b83811015614f59578181015183820152602001614f41565b8381111561113f5750506000910152565b600081614f7957614f79615007565b506000190190565b600281046001821680614f9557607f821691505b6020821081141561336157634e487b7160e01b600052602260045260246000fd5b6000600019821415614fca57614fca615007565b5060010190565b600082614fe057614fe061501d565b500690565b600060ff831680614ff857614ff861501d565b8060ff84160691505092915050565b634e487b7160e01b600052601160045260246000fd5b634e487b7160e01b600052601260045260246000fd5b634e487b7160e01b600052604160045260246000fd5b6001600160a01b0381168114610ce157600080fd5b6001600160e01b031981168114610ce157600080fdfea2646970667358221220c3e8276d1d97f619c9d0b79cd9da9d048d796f8ea6ab58d2bf6bd7d74cda5fcc64736f6c63430008000033697066733a2f2f62616679626569636f65366f6532796f65756263706c6a717165633376756c346e346c377a7a37616467726a6567696a6c77336e647833347663652f",
  "devdoc": {
    "details": "This contract should be deployed to Ethereum mainnet and is the ERC721 contract for your NFT.",
    "kind": "dev",
    "methods": {
      "approve(address,uint256)": {
        "details": "See {IERC721-approve}."
      },
      "balanceOf(address)": {
        "details": "See {IERC721-balanceOf}."
      },
      "burn(uint256)": {
        "details": "Burns `tokenId`. See {ERC721-_burn}. Requirements: - The caller must own `tokenId` or be an approved operator."
      },
      "getApproved(uint256)": {
        "details": "See {IERC721-getApproved}."
      },
      "getRoleAdmin(bytes32)": {
        "details": "Returns the admin role that controls `role`. See {grantRole} and {revokeRole}. To change a role's admin, use {_setRoleAdmin}."
      },
      "getRoleMember(bytes32,uint256)": {
        "details": "Returns one of the accounts that have `role`. `index` must be a value between 0 and {getRoleMemberCount}, non-inclusive. Role bearers are not sorted in any particular way, and their ordering may change at any point. WARNING: When using {getRoleMember} and {getRoleMemberCount}, make sure you perform all queries on the same block. See the following https://forum.openzeppelin.com/t/iterating-over-elements-on-enumerableset-in-openzeppelin-contracts/2296[forum post] for more information."
      },
      "getRoleMemberCount(bytes32)": {
        "details": "Returns the number of accounts that have `role`. Can be used together with {getRoleMember} to enumerate all bearers of a role."
      },
      "grantRole(bytes32,address)": {
        "details": "Overload {grantRole} to track enumerable memberships"
      },
      "hasRole(bytes32,address)": {
        "details": "Returns `true` if `account` has been granted `role`."
      },
      "isApprovedForAll(address,address)": {
        "details": "See {IERC721-isApprovedForAll}."
      },
      "mint(address)": {
        "details": "Creates a new token for `to`. Its token ID will be automatically assigned (and available on the emitted {IERC721-Transfer} event), and the token URI autogenerated based on the base URI passed at construction. See {ERC721-_mint}. Requirements: - the caller must have the `MINTER_ROLE`."
      },
      "name()": {
        "details": "See {IERC721Metadata-name}."
      },
      "owner()": {
        "details": "Returns the address of the current owner."
      },
      "ownerOf(uint256)": {
        "details": "See {IERC721-ownerOf}."
      },
      "pause()": {
        "details": "Pauses all token transfers. See {ERC721Pausable} and {Pausable-_pause}. Requirements: - the caller must have the `PAUSER_ROLE`."
      },
      "paused()": {
        "details": "Returns true if the contract is paused, and false otherwise."
      },
      "receiveMessage(bytes)": {
        "details": "We use Polygon to make registration and random selection inexpensive, then pass the list of eligible buying accounts to this contract.",
        "params": {
          "inputData": "proof generated for transaction - see https://docs.matic.network/docs/develop/l1-l2-communication/state-transfer"
        }
      },
      "renounceOwnership()": {
        "details": "Leaves the contract without owner. It will not be possible to call `onlyOwner` functions anymore. Can only be called by the current owner. NOTE: Renouncing ownership will leave the contract without an owner, thereby removing any functionality that is only available to the owner."
      },
      "renounceRole(bytes32,address)": {
        "details": "Overload {renounceRole} to track enumerable memberships"
      },
      "revokeRole(bytes32,address)": {
        "details": "Overload {revokeRole} to track enumerable memberships"
      },
      "safeTransferFrom(address,address,uint256)": {
        "details": "See {IERC721-safeTransferFrom}."
      },
      "safeTransferFrom(address,address,uint256,bytes)": {
        "details": "See {IERC721-safeTransferFrom}."
      },
      "setApprovalForAll(address,bool)": {
        "details": "See {IERC721-setApprovalForAll}."
      },
      "supportsInterface(bytes4)": {
        "details": "See {IERC165-supportsInterface}."
      },
      "symbol()": {
        "details": "See {IERC721Metadata-symbol}."
      },
      "tokenByIndex(uint256)": {
        "details": "See {IERC721Enumerable-tokenByIndex}."
      },
      "tokenOfOwnerByIndex(address,uint256)": {
        "details": "See {IERC721Enumerable-tokenOfOwnerByIndex}."
      },
      "tokenURI(uint256)": {
        "details": "See {IERC721Metadata-tokenURI}."
      },
      "totalSupply()": {
        "details": "See {IERC721Enumerable-totalSupply}."
      },
      "transferFrom(address,address,uint256)": {
        "details": "See {IERC721-transferFrom}."
      },
      "transferOwnership(address)": {
        "details": "Transfers ownership of the contract to a new account (`newOwner`). Can only be called by the current owner."
      },
      "unpause()": {
        "details": "Unpauses all token transfers. See {ERC721Pausable} and {Pausable-_unpause}. Requirements: - the caller must have the `PAUSER_ROLE`."
      }
    },
    "title": "NFTStateTransfer",
    "version": 1
  },
  "userdoc": {
    "kind": "user",
    "methods": {
      "publicMint()": {
        "notice": "Public mint function for eligible minters"
      },
      "receiveMessage(bytes)": {
        "notice": "Receive list of eligible purchasers from L2"
      },
      "setPrice(uint256)": {
        "notice": "I have a regrettable FOMO ramp in my first project so I want to be able to adjust price as I please"
      }
    },
    "notice": "This is a reference implementation for a fair NFT drop.",
    "version": 1
  },
  "storageLayout": {
    "storage": [
      {
        "astId": 328,
        "contract": "contracts/NFTStateTransfer/NFTStateTransfer.sol:NFTStateTransfer",
        "label": "_roles",
        "offset": 0,
        "slot": "0",
        "type": "t_mapping(t_bytes32,t_struct(RoleData)323_storage)"
      },
      {
        "astId": 669,
        "contract": "contracts/NFTStateTransfer/NFTStateTransfer.sol:NFTStateTransfer",
        "label": "_roleMembers",
        "offset": 0,
        "slot": "1",
        "type": "t_mapping(t_bytes32,t_struct(AddressSet)4455_storage)"
      },
      {
        "astId": 1661,
        "contract": "contracts/NFTStateTransfer/NFTStateTransfer.sol:NFTStateTransfer",
        "label": "_name",
        "offset": 0,
        "slot": "2",
        "type": "t_string_storage"
      },
      {
        "astId": 1663,
        "contract": "contracts/NFTStateTransfer/NFTStateTransfer.sol:NFTStateTransfer",
        "label": "_symbol",
        "offset": 0,
        "slot": "3",
        "type": "t_string_storage"
      },
      {
        "astId": 1667,
        "contract": "contracts/NFTStateTransfer/NFTStateTransfer.sol:NFTStateTransfer",
        "label": "_owners",
        "offset": 0,
        "slot": "4",
        "type": "t_mapping(t_uint256,t_address)"
      },
      {
        "astId": 1671,
        "contract": "contracts/NFTStateTransfer/NFTStateTransfer.sol:NFTStateTransfer",
        "label": "_balances",
        "offset": 0,
        "slot": "5",
        "type": "t_mapping(t_address,t_uint256)"
      },
      {
        "astId": 1675,
        "contract": "contracts/NFTStateTransfer/NFTStateTransfer.sol:NFTStateTransfer",
        "label": "_tokenApprovals",
        "offset": 0,
        "slot": "6",
        "type": "t_mapping(t_uint256,t_address)"
      },
      {
        "astId": 1681,
        "contract": "contracts/NFTStateTransfer/NFTStateTransfer.sol:NFTStateTransfer",
        "label": "_operatorApprovals",
        "offset": 0,
        "slot": "7",
        "type": "t_mapping(t_address,t_mapping(t_address,t_bool))"
      },
      {
        "astId": 2632,
        "contract": "contracts/NFTStateTransfer/NFTStateTransfer.sol:NFTStateTransfer",
        "label": "_ownedTokens",
        "offset": 0,
        "slot": "8",
        "type": "t_mapping(t_address,t_mapping(t_uint256,t_uint256))"
      },
      {
        "astId": 2636,
        "contract": "contracts/NFTStateTransfer/NFTStateTransfer.sol:NFTStateTransfer",
        "label": "_ownedTokensIndex",
        "offset": 0,
        "slot": "9",
        "type": "t_mapping(t_uint256,t_uint256)"
      },
      {
        "astId": 2639,
        "contract": "contracts/NFTStateTransfer/NFTStateTransfer.sol:NFTStateTransfer",
        "label": "_allTokens",
        "offset": 0,
        "slot": "10",
        "type": "t_array(t_uint256)dyn_storage"
      },
      {
        "astId": 2643,
        "contract": "contracts/NFTStateTransfer/NFTStateTransfer.sol:NFTStateTransfer",
        "label": "_allTokensIndex",
        "offset": 0,
        "slot": "11",
        "type": "t_mapping(t_uint256,t_uint256)"
      },
      {
        "astId": 951,
        "contract": "contracts/NFTStateTransfer/NFTStateTransfer.sol:NFTStateTransfer",
        "label": "_paused",
        "offset": 0,
        "slot": "12",
        "type": "t_bool"
      },
      {
        "astId": 3087,
        "contract": "contracts/NFTStateTransfer/NFTStateTransfer.sol:NFTStateTransfer",
        "label": "_tokenIdTracker",
        "offset": 0,
        "slot": "13",
        "type": "t_struct(Counter)3563_storage"
      },
      {
        "astId": 3089,
        "contract": "contracts/NFTStateTransfer/NFTStateTransfer.sol:NFTStateTransfer",
        "label": "_baseTokenURI",
        "offset": 0,
        "slot": "14",
        "type": "t_string_storage"
      },
      {
        "astId": 5525,
        "contract": "contracts/NFTStateTransfer/NFTStateTransfer.sol:NFTStateTransfer",
        "label": "fxRoot",
        "offset": 0,
        "slot": "15",
        "type": "t_contract(IFxStateSender)5491"
      },
      {
        "astId": 5528,
        "contract": "contracts/NFTStateTransfer/NFTStateTransfer.sol:NFTStateTransfer",
        "label": "checkpointManager",
        "offset": 0,
        "slot": "16",
        "type": "t_contract(ICheckpointManager)5509"
      },
      {
        "astId": 5530,
        "contract": "contracts/NFTStateTransfer/NFTStateTransfer.sol:NFTStateTransfer",
        "label": "fxChildTunnel",
        "offset": 0,
        "slot": "17",
        "type": "t_address"
      },
      {
        "astId": 5534,
        "contract": "contracts/NFTStateTransfer/NFTStateTransfer.sol:NFTStateTransfer",
        "label": "processedExits",
        "offset": 0,
        "slot": "18",
        "type": "t_mapping(t_bytes32,t_bool)"
      },
      {
        "astId": 831,
        "contract": "contracts/NFTStateTransfer/NFTStateTransfer.sol:NFTStateTransfer",
        "label": "_owner",
        "offset": 0,
        "slot": "19",
        "type": "t_address"
      },
      {
        "astId": 7130,
        "contract": "contracts/NFTStateTransfer/NFTStateTransfer.sol:NFTStateTransfer",
        "label": "mintPrice",
        "offset": 0,
        "slot": "20",
        "type": "t_uint256"
      },
      {
        "astId": 7134,
        "contract": "contracts/NFTStateTransfer/NFTStateTransfer.sol:NFTStateTransfer",
        "label": "remainingTokens",
        "offset": 0,
        "slot": "21",
        "type": "t_uint256"
      },
      {
        "astId": 7136,
        "contract": "contracts/NFTStateTransfer/NFTStateTransfer.sol:NFTStateTransfer",
        "label": "latestData",
        "offset": 0,
        "slot": "22",
        "type": "t_bytes_storage"
      },
      {
        "astId": 7139,
        "contract": "contracts/NFTStateTransfer/NFTStateTransfer.sol:NFTStateTransfer",
        "label": "allMinters",
        "offset": 0,
        "slot": "23",
        "type": "t_array(t_address)dyn_storage"
      },
      {
        "astId": 7143,
        "contract": "contracts/NFTStateTransfer/NFTStateTransfer.sol:NFTStateTransfer",
        "label": "approvedMinters",
        "offset": 0,
        "slot": "24",
        "type": "t_mapping(t_address,t_bool)"
      },
      {
        "astId": 7145,
        "contract": "contracts/NFTStateTransfer/NFTStateTransfer.sol:NFTStateTransfer",
        "label": "approvedMintersEndIndex",
        "offset": 0,
        "slot": "25",
        "type": "t_uint256"
      }
    ],
    "types": {
      "t_address": {
        "encoding": "inplace",
        "label": "address",
        "numberOfBytes": "20"
      },
      "t_array(t_address)dyn_storage": {
        "base": "t_address",
        "encoding": "dynamic_array",
        "label": "address[]",
        "numberOfBytes": "32"
      },
      "t_array(t_bytes32)dyn_storage": {
        "base": "t_bytes32",
        "encoding": "dynamic_array",
        "label": "bytes32[]",
        "numberOfBytes": "32"
      },
      "t_array(t_uint256)dyn_storage": {
        "base": "t_uint256",
        "encoding": "dynamic_array",
        "label": "uint256[]",
        "numberOfBytes": "32"
      },
      "t_bool": {
        "encoding": "inplace",
        "label": "bool",
        "numberOfBytes": "1"
      },
      "t_bytes32": {
        "encoding": "inplace",
        "label": "bytes32",
        "numberOfBytes": "32"
      },
      "t_bytes_storage": {
        "encoding": "bytes",
        "label": "bytes",
        "numberOfBytes": "32"
      },
      "t_contract(ICheckpointManager)5509": {
        "encoding": "inplace",
        "label": "contract ICheckpointManager",
        "numberOfBytes": "20"
      },
      "t_contract(IFxStateSender)5491": {
        "encoding": "inplace",
        "label": "contract IFxStateSender",
        "numberOfBytes": "20"
      },
      "t_mapping(t_address,t_bool)": {
        "encoding": "mapping",
        "key": "t_address",
        "label": "mapping(address => bool)",
        "numberOfBytes": "32",
        "value": "t_bool"
      },
      "t_mapping(t_address,t_mapping(t_address,t_bool))": {
        "encoding": "mapping",
        "key": "t_address",
        "label": "mapping(address => mapping(address => bool))",
        "numberOfBytes": "32",
        "value": "t_mapping(t_address,t_bool)"
      },
      "t_mapping(t_address,t_mapping(t_uint256,t_uint256))": {
        "encoding": "mapping",
        "key": "t_address",
        "label": "mapping(address => mapping(uint256 => uint256))",
        "numberOfBytes": "32",
        "value": "t_mapping(t_uint256,t_uint256)"
      },
      "t_mapping(t_address,t_uint256)": {
        "encoding": "mapping",
        "key": "t_address",
        "label": "mapping(address => uint256)",
        "numberOfBytes": "32",
        "value": "t_uint256"
      },
      "t_mapping(t_bytes32,t_bool)": {
        "encoding": "mapping",
        "key": "t_bytes32",
        "label": "mapping(bytes32 => bool)",
        "numberOfBytes": "32",
        "value": "t_bool"
      },
      "t_mapping(t_bytes32,t_struct(AddressSet)4455_storage)": {
        "encoding": "mapping",
        "key": "t_bytes32",
        "label": "mapping(bytes32 => struct EnumerableSet.AddressSet)",
        "numberOfBytes": "32",
        "value": "t_struct(AddressSet)4455_storage"
      },
      "t_mapping(t_bytes32,t_struct(RoleData)323_storage)": {
        "encoding": "mapping",
        "key": "t_bytes32",
        "label": "mapping(bytes32 => struct AccessControl.RoleData)",
        "numberOfBytes": "32",
        "value": "t_struct(RoleData)323_storage"
      },
      "t_mapping(t_bytes32,t_uint256)": {
        "encoding": "mapping",
        "key": "t_bytes32",
        "label": "mapping(bytes32 => uint256)",
        "numberOfBytes": "32",
        "value": "t_uint256"
      },
      "t_mapping(t_uint256,t_address)": {
        "encoding": "mapping",
        "key": "t_uint256",
        "label": "mapping(uint256 => address)",
        "numberOfBytes": "32",
        "value": "t_address"
      },
      "t_mapping(t_uint256,t_uint256)": {
        "encoding": "mapping",
        "key": "t_uint256",
        "label": "mapping(uint256 => uint256)",
        "numberOfBytes": "32",
        "value": "t_uint256"
      },
      "t_string_storage": {
        "encoding": "bytes",
        "label": "string",
        "numberOfBytes": "32"
      },
      "t_struct(AddressSet)4455_storage": {
        "encoding": "inplace",
        "label": "struct EnumerableSet.AddressSet",
        "members": [
          {
            "astId": 4454,
            "contract": "contracts/NFTStateTransfer/NFTStateTransfer.sol:NFTStateTransfer",
            "label": "_inner",
            "offset": 0,
            "slot": "0",
            "type": "t_struct(Set)4180_storage"
          }
        ],
        "numberOfBytes": "64"
      },
      "t_struct(Counter)3563_storage": {
        "encoding": "inplace",
        "label": "struct Counters.Counter",
        "members": [
          {
            "astId": 3562,
            "contract": "contracts/NFTStateTransfer/NFTStateTransfer.sol:NFTStateTransfer",
            "label": "_value",
            "offset": 0,
            "slot": "0",
            "type": "t_uint256"
          }
        ],
        "numberOfBytes": "32"
      },
      "t_struct(RoleData)323_storage": {
        "encoding": "inplace",
        "label": "struct AccessControl.RoleData",
        "members": [
          {
            "astId": 320,
            "contract": "contracts/NFTStateTransfer/NFTStateTransfer.sol:NFTStateTransfer",
            "label": "members",
            "offset": 0,
            "slot": "0",
            "type": "t_mapping(t_address,t_bool)"
          },
          {
            "astId": 322,
            "contract": "contracts/NFTStateTransfer/NFTStateTransfer.sol:NFTStateTransfer",
            "label": "adminRole",
            "offset": 0,
            "slot": "1",
            "type": "t_bytes32"
          }
        ],
        "numberOfBytes": "64"
      },
      "t_struct(Set)4180_storage": {
        "encoding": "inplace",
        "label": "struct EnumerableSet.Set",
        "members": [
          {
            "astId": 4175,
            "contract": "contracts/NFTStateTransfer/NFTStateTransfer.sol:NFTStateTransfer",
            "label": "_values",
            "offset": 0,
            "slot": "0",
            "type": "t_array(t_bytes32)dyn_storage"
          },
          {
            "astId": 4179,
            "contract": "contracts/NFTStateTransfer/NFTStateTransfer.sol:NFTStateTransfer",
            "label": "_indexes",
            "offset": 0,
            "slot": "1",
            "type": "t_mapping(t_bytes32,t_uint256)"
          }
        ],
        "numberOfBytes": "64"
      },
      "t_uint256": {
        "encoding": "inplace",
        "label": "uint256",
        "numberOfBytes": "32"
      }
    }
  }
}