{
  "address": "0xdB526eaA43e23e72a61F5a4D963d0E3464AD47c5",
  "abi": [
    {
      "inputs": [
        {
          "internalType": "address",
          "name": "_vrfCoordinator",
          "type": "address"
        },
        {
          "internalType": "address",
          "name": "_linkToken",
          "type": "address"
        },
        {
          "internalType": "bytes32",
          "name": "_keyhash",
          "type": "bytes32"
        },
        {
          "internalType": "address",
          "name": "_fxChild",
          "type": "address"
        },
        {
          "internalType": "address",
          "name": "forwarder",
          "type": "address"
        }
      ],
      "stateMutability": "nonpayable",
      "type": "constructor"
    },
    {
      "anonymous": false,
      "inputs": [
        {
          "indexed": false,
          "internalType": "bytes",
          "name": "message",
          "type": "bytes"
        }
      ],
      "name": "MessageSent",
      "type": "event"
    },
    {
      "inputs": [
        {
          "internalType": "address[]",
          "name": "addresses",
          "type": "address[]"
        }
      ],
      "name": "adminBulkRegisterForDrop",
      "outputs": [],
      "stateMutability": "nonpayable",
      "type": "function"
    },
    {
      "inputs": [],
      "name": "claim",
      "outputs": [],
      "stateMutability": "nonpayable",
      "type": "function"
    },
    {
      "inputs": [
        {
          "internalType": "uint256",
          "name": "",
          "type": "uint256"
        }
      ],
      "name": "currentlyEligible",
      "outputs": [
        {
          "internalType": "address",
          "name": "",
          "type": "address"
        }
      ],
      "stateMutability": "view",
      "type": "function"
    },
    {
      "inputs": [],
      "name": "fxChild",
      "outputs": [
        {
          "internalType": "address",
          "name": "",
          "type": "address"
        }
      ],
      "stateMutability": "view",
      "type": "function"
    },
    {
      "inputs": [],
      "name": "fxRootTunnel",
      "outputs": [
        {
          "internalType": "address",
          "name": "",
          "type": "address"
        }
      ],
      "stateMutability": "view",
      "type": "function"
    },
    {
      "inputs": [
        {
          "internalType": "address",
          "name": "forwarder",
          "type": "address"
        }
      ],
      "name": "isTrustedForwarder",
      "outputs": [
        {
          "internalType": "bool",
          "name": "",
          "type": "bool"
        }
      ],
      "stateMutability": "view",
      "type": "function"
    },
    {
      "inputs": [],
      "name": "kycRegisterForDrop",
      "outputs": [],
      "stateMutability": "nonpayable",
      "type": "function"
    },
    {
      "inputs": [],
      "name": "nextWindow",
      "outputs": [
        {
          "internalType": "uint256",
          "name": "",
          "type": "uint256"
        }
      ],
      "stateMutability": "view",
      "type": "function"
    },
    {
      "inputs": [
        {
          "internalType": "uint256",
          "name": "stateId",
          "type": "uint256"
        },
        {
          "internalType": "address",
          "name": "rootMessageSender",
          "type": "address"
        },
        {
          "internalType": "bytes",
          "name": "data",
          "type": "bytes"
        }
      ],
      "name": "processMessageFromRoot",
      "outputs": [],
      "stateMutability": "nonpayable",
      "type": "function"
    },
    {
      "inputs": [
        {
          "internalType": "bytes32",
          "name": "requestId",
          "type": "bytes32"
        },
        {
          "internalType": "uint256",
          "name": "randomness",
          "type": "uint256"
        }
      ],
      "name": "rawFulfillRandomness",
      "outputs": [],
      "stateMutability": "nonpayable",
      "type": "function"
    },
    {
      "inputs": [],
      "name": "registerForDrop",
      "outputs": [],
      "stateMutability": "nonpayable",
      "type": "function"
    },
    {
      "inputs": [
        {
          "internalType": "address",
          "name": "",
          "type": "address"
        }
      ],
      "name": "registrationStatus",
      "outputs": [
        {
          "internalType": "enum FairDropRegistration.RegistrationStatus",
          "name": "",
          "type": "uint8"
        }
      ],
      "stateMutability": "view",
      "type": "function"
    },
    {
      "inputs": [],
      "name": "remainingMints",
      "outputs": [
        {
          "internalType": "uint256",
          "name": "",
          "type": "uint256"
        }
      ],
      "stateMutability": "view",
      "type": "function"
    },
    {
      "inputs": [],
      "name": "selectEligibleBuyers",
      "outputs": [],
      "stateMutability": "nonpayable",
      "type": "function"
    },
    {
      "inputs": [
        {
          "internalType": "address",
          "name": "_fxRootTunnel",
          "type": "address"
        }
      ],
      "name": "setFxRootTunnel",
      "outputs": [],
      "stateMutability": "nonpayable",
      "type": "function"
    }
  ],
  "transactionHash": "0xd5c295c0dc18d7234a40d66439f81067b660e1b923f0aeea6e85d53f212bbfe1",
  "args": [
    "0x8C7382F9D8f56b33781fE506E897a4F1e2d17255",
    "0x326C977E6efc84E512bB9C30f76E30c160eD06FB",
    "0x6e75b569a01ef56d18cab6a8e71e6600d6ce853834d4a5748b720d06f878b3a4",
    "0xCf73231F28B7331BBe3124B907840A94851f9f11",
    "0xD03507B7eba508c0DE01A9FBdE4A0D9B5c56dDb6"
  ],
  "solcInputHash": "e8e498fd7836ba89d3f140676a8f4ba8",
  "bytecode": "0x60c06040526005600e553480156200001657600080fd5b5060405162001252380380620012528339810160408190526200003991620000cb565b600080546001600160a01b038085166001600160a01b0319928316179092556001600160601b0319606088811b821660a05287901b1660805260038054928416929091169190911790556004839055655af3107a40006005556200009f42607862000131565b600f5550620001569350505050565b80516001600160a01b0381168114620000c657600080fd5b919050565b600080600080600060a08688031215620000e3578081fd5b620000ee86620000ae565b9450620000fe60208701620000ae565b9350604086015192506200011560608701620000ae565b91506200012560808701620000ae565b90509295509295909350565b600082198211156200015157634e487b7160e01b81526011600452602481fd5b500190565b60805160601c60a05160601c6110c962000189600039600081816104cc01526106ee015260006106bf01526110c96000f3fe608060405234801561001057600080fd5b50600436106100f55760003560e01c8063602e03b4116100975780639a7c4b71116100665780639a7c4b71146101bb578063d87854cb146101ce578063fbc0f28c146101e3578063fffd5ec4146101f6576100f5565b8063602e03b41461016d5780637f1e9cb01461018d578063888370941461019557806394985ddd146101a8576100f5565b8063378c3874116100d3578063378c387414610135578063450d11f01461013d5780634e71d92d14610145578063572b6c051461014d576100f5565b8063204b262b146100fa57806333816e0e1461010457806336585fc11461010c575b600080fd5b6101026101fe565b005b610102610300565b61011f61011a366004610c6d565b61034f565b60405161012c9190610d78565b60405180910390f35b61010261036f565b61011f610394565b6101026103a3565b61016061015b366004610b4a565b61043b565b60405161012c9190610dbc565b61018061017b366004610b4a565b610452565b60405161012c9190610dfe565b61011f610467565b6101026101a3366004610b4a565b610476565b6101026101b6366004610c4c565b6104c1565b6101026101c9366004610c9d565b610517565b6101d6610588565b60405161012c919061100b565b6101026101f1366004610b6b565b61058e565b6101d6610688565b60006007600061020c61068e565b6001600160a01b0316815260208101919091526040016000205460ff16600381111561024857634e487b7160e01b600052602160045260246000fd5b1461026e5760405162461bcd60e51b815260040161026590610f3d565b60405180910390fd5b60016007600061027c61068e565b6001600160a01b031681526020810191909152604001600020805460ff191660018360038111156102bd57634e487b7160e01b600052602160045260246000fd5b021790555060086102cc61068e565b81546001810183556000928352602090922090910180546001600160a01b0319166001600160a01b03909216919091179055565b600f5442116103215760405162461bcd60e51b815260040161026590610eb2565b610258600f60008282546103359190611014565b9250508190555061034a6004546005546106bb565b600655565b6009816005811061035f57600080fd5b01546001600160a01b0316905081565b6103783361043b565b6101fe5760405162461bcd60e51b815260040161026590610f69565b6000546001600160a01b031681565b6002600760006103b161068e565b6001600160a01b0316815260208101919091526040016000205460ff1660038111156103ed57634e487b7160e01b600052602160045260246000fd5b1461040a5760405162461bcd60e51b815260040161026590610f20565b61043961041561068e565b6040516020016104259190610d78565b6040516020818303038152906040526107fe565b565b6003546001600160a01b038281169116145b919050565b60076020526000908152604090205460ff1681565b6001546001600160a01b031681565b6001546001600160a01b03161561049f5760405162461bcd60e51b815260040161026590610fc1565b600180546001600160a01b0319166001600160a01b0392909216919091179055565b336001600160a01b037f000000000000000000000000000000000000000000000000000000000000000016146105095760405162461bcd60e51b815260040161026590610f8a565b6105138282610838565b5050565b6000546001600160a01b031633146105415760405162461bcd60e51b815260040161026590610e26565b610582848484848080601f01602080910402602001604051908101604052809392919081815260200183838082843760009201919091525061086292505050565b50505050565b600e5481565b60006007600061059c61068e565b6001600160a01b0316815260208101919091526040016000205460ff1660038111156105d857634e487b7160e01b600052602160045260246000fd5b146105f55760405162461bcd60e51b815260040161026590610f3d565b60016007600061060361068e565b6001600160a01b031681526020810191909152604001600020805460ff1916600183600381111561064457634e487b7160e01b600052602160045260246000fd5b0217905550600861065361068e565b81546001810183556000928352602090922090910180546001600160a01b0319166001600160a01b0390921691909117905550565b600f5481565b60006106993361043b565b156106ad575060131936013560601c6106b8565b6106b56108b1565b90505b90565b60007f00000000000000000000000000000000000000000000000000000000000000006001600160a01b0316634000aea07f000000000000000000000000000000000000000000000000000000000000000084866000604051602001610722929190610d6a565b6040516020818303038152906040526040518463ffffffff1660e01b815260040161074f93929190610d8c565b602060405180830381600087803b15801561076957600080fd5b505af115801561077d573d6000803e3d6000fd5b505050506040513d601f19601f820116820180604052508101906107a19190610c2c565b506000838152600260205260408120546107c0908590839030906108b5565b6000858152600260205260409020549091506107dd906001611014565b6000858152600260205260409020556107f684826108ef565b949350505050565b7f8c5261668696ce22758910d05bab8f186d6eb247ceac2af2e82c7dc17669b0368160405161082d9190610deb565b60405180910390a150565b60065482146108595760405162461bcd60e51b815260040161026590610ee9565b61051381610922565b60015482906001600160a01b038083169116146108915760405162461bcd60e51b815260040161026590610e67565b6000828060200190518101906108a79190610c85565b600e555050505050565b3390565b6000848484846040516020016108ce9493929190610dc7565b60408051601f19818403018152919052805160209091012095945050505050565b60008282604051602001610904929190610d6a565b60405160208183030381529060405280519060200120905092915050565b60005b60058110156109f1576003600760006009846005811061095557634e487b7160e01b600052603260045260246000fd5b01546001600160a01b031681526020810191909152604001600020805460ff1916600183600381111561099857634e487b7160e01b600052602160045260246000fd5b02179055506000600982600581106109c057634e487b7160e01b600052603260045260246000fd5b0180546001600160a01b0319166001600160a01b0392909216919091179055806109e98161102c565b915050610925565b5060005b600581108015610a06575060085481105b156105135760008242604051602001610a20929190610d6a565b60408051601f19818403018152919052805160209091012060088054919250600091610a4c9084611047565b81548110610a6a57634e487b7160e01b600052603260045260246000fd5b6000918252602090912001546001600160a01b0316905060016001600160a01b03821660009081526007602052604090205460ff166003811115610abe57634e487b7160e01b600052602160045260246000fd5b1415610b1f578060098460058110610ae657634e487b7160e01b600052603260045260246000fd5b0180546001600160a01b039283166001600160a01b031990911617905581166000908152600760205260409020805460ff191660021790555b610b2a600184611014565b925050506109f5565b80356001600160a01b038116811461044d57600080fd5b600060208284031215610b5b578081fd5b610b6482610b33565b9392505050565b60006020808385031215610b7d578182fd5b823567ffffffffffffffff80821115610b94578384fd5b818501915085601f830112610ba7578384fd5b813581811115610bb957610bb961107d565b83810260405185828201018181108582111715610bd857610bd861107d565b604052828152858101935084860182860187018a1015610bf6578788fd5b8795505b83861015610c1f57610c0b81610b33565b855260019590950194938601938601610bfa565b5098975050505050505050565b600060208284031215610c3d578081fd5b81518015158114610b64578182fd5b60008060408385031215610c5e578081fd5b50508035926020909101359150565b600060208284031215610c7e578081fd5b5035919050565b600060208284031215610c96578081fd5b5051919050565b60008060008060608587031215610cb2578182fd5b84359350610cc260208601610b33565b9250604085013567ffffffffffffffff80821115610cde578384fd5b818701915087601f830112610cf1578384fd5b813581811115610cff578485fd5b886020828501011115610d10578485fd5b95989497505060200194505050565b60008151808452815b81811015610d4457602081850181015186830182015201610d28565b81811115610d555782602083870101525b50601f01601f19169290920160200192915050565b918252602082015260400190565b6001600160a01b0391909116815260200190565b600060018060a01b038516825283602083015260606040830152610db36060830184610d1f565b95945050505050565b901515815260200190565b93845260208401929092526001600160a01b03166040830152606082015260800190565b600060208252610b646020830184610d1f565b6020810160048310610e2057634e487b7160e01b600052602160045260246000fd5b91905290565b60208082526021908201527f4678426173654368696c6454756e6e656c3a20494e56414c49445f53454e44456040820152602960f91b606082015260800190565b6020808252602b908201527f4678426173654368696c6454756e6e656c3a20494e56414c49445f53454e444560408201526a1497d19493d357d493d3d560aa1b606082015260800190565b60208082526018908201527f427579696e672077696e646f77207374696c6c206f70656e0000000000000000604082015260600190565b6020808252601a908201527f4261642072616e646f6d6e6573732066756c66696c6c6d656e74000000000000604082015260600190565b60208082526003908201526234303160e81b604082015260600190565b602080825260129082015271105b1c9958591e481c9959da5cdd195c995960721b604082015260600190565b6020808252600790820152664644523a34323960c81b604082015260600190565b6020808252601f908201527f4f6e6c7920565246436f6f7264696e61746f722063616e2066756c66696c6c00604082015260600190565b6020808252602a908201527f4678426173654368696c6454756e6e656c3a20524f4f545f54554e4e454c5f4160408201526913149150511657d4d15560b21b606082015260800190565b90815260200190565b6000821982111561102757611027611067565b500190565b600060001982141561104057611040611067565b5060010190565b60008261106257634e487b7160e01b81526012600452602481fd5b500690565b634e487b7160e01b600052601160045260246000fd5b634e487b7160e01b600052604160045260246000fdfea26469706673582212206b570d24acf7dd8761099663d54a1292d60468609edfc011719265e87d50b04264736f6c63430008000033",
  "devdoc": {
    "kind": "dev",
    "methods": {
      "adminBulkRegisterForDrop(address[])": {
        "details": "Registration is once per address"
      },
      "kycRegisterForDrop()": {
        "details": "Registration is once per address"
      },
      "registerForDrop()": {
        "details": "Registration is once per address"
      },
      "selectEligibleBuyers()": {
        "details": "We use a public function so anyone may call it, but use guards to ensure it can't be called too soon. This could be replaced by Chainlink keepers once available on Polygon."
      }
    },
    "version": 1
  },
  "userdoc": {
    "kind": "user",
    "methods": {
      "adminBulkRegisterForDrop(address[])": {
        "notice": "Register for drop"
      },
      "kycRegisterForDrop()": {
        "notice": "Register for drop"
      },
      "registerForDrop()": {
        "notice": "Register for drop"
      },
      "selectEligibleBuyers()": {
        "notice": "Public function for selecting next tranche of eligible minters"
      }
    },
    "version": 1
  },
  "storageLayout": {
    "storage": [
      {
        "astId": 2194,
        "contract": "contracts/FairDropRegistration/FairDropRegistration.sol:FairDropRegistration",
        "label": "fxChild",
        "offset": 0,
        "slot": "0",
        "type": "t_address"
      },
      {
        "astId": 2196,
        "contract": "contracts/FairDropRegistration/FairDropRegistration.sol:FairDropRegistration",
        "label": "fxRootTunnel",
        "offset": 0,
        "slot": "1",
        "type": "t_address"
      },
      {
        "astId": 79,
        "contract": "contracts/FairDropRegistration/FairDropRegistration.sol:FairDropRegistration",
        "label": "nonces",
        "offset": 0,
        "slot": "2",
        "type": "t_mapping(t_bytes32,t_uint256)"
      },
      {
        "astId": 3146,
        "contract": "contracts/FairDropRegistration/FairDropRegistration.sol:FairDropRegistration",
        "label": "_trustedForwarder",
        "offset": 0,
        "slot": "3",
        "type": "t_address"
      },
      {
        "astId": 6190,
        "contract": "contracts/FairDropRegistration/FairDropRegistration.sol:FairDropRegistration",
        "label": "keyHash",
        "offset": 0,
        "slot": "4",
        "type": "t_bytes32"
      },
      {
        "astId": 6192,
        "contract": "contracts/FairDropRegistration/FairDropRegistration.sol:FairDropRegistration",
        "label": "fee",
        "offset": 0,
        "slot": "5",
        "type": "t_uint256"
      },
      {
        "astId": 6194,
        "contract": "contracts/FairDropRegistration/FairDropRegistration.sol:FairDropRegistration",
        "label": "randomnessRequestId",
        "offset": 0,
        "slot": "6",
        "type": "t_bytes32"
      },
      {
        "astId": 6204,
        "contract": "contracts/FairDropRegistration/FairDropRegistration.sol:FairDropRegistration",
        "label": "registrationStatus",
        "offset": 0,
        "slot": "7",
        "type": "t_mapping(t_address,t_enum(RegistrationStatus)6199)"
      },
      {
        "astId": 6207,
        "contract": "contracts/FairDropRegistration/FairDropRegistration.sol:FairDropRegistration",
        "label": "registrants",
        "offset": 0,
        "slot": "8",
        "type": "t_array(t_address)dyn_storage"
      },
      {
        "astId": 6211,
        "contract": "contracts/FairDropRegistration/FairDropRegistration.sol:FairDropRegistration",
        "label": "currentlyEligible",
        "offset": 0,
        "slot": "9",
        "type": "t_array(t_address)5_storage"
      },
      {
        "astId": 6215,
        "contract": "contracts/FairDropRegistration/FairDropRegistration.sol:FairDropRegistration",
        "label": "remainingMints",
        "offset": 0,
        "slot": "14",
        "type": "t_uint256"
      },
      {
        "astId": 6217,
        "contract": "contracts/FairDropRegistration/FairDropRegistration.sol:FairDropRegistration",
        "label": "nextWindow",
        "offset": 0,
        "slot": "15",
        "type": "t_uint256"
      }
    ],
    "types": {
      "t_address": {
        "encoding": "inplace",
        "label": "address",
        "numberOfBytes": "20"
      },
      "t_array(t_address)5_storage": {
        "base": "t_address",
        "encoding": "inplace",
        "label": "address[5]",
        "numberOfBytes": "160"
      },
      "t_array(t_address)dyn_storage": {
        "base": "t_address",
        "encoding": "dynamic_array",
        "label": "address[]",
        "numberOfBytes": "32"
      },
      "t_bytes32": {
        "encoding": "inplace",
        "label": "bytes32",
        "numberOfBytes": "32"
      },
      "t_enum(RegistrationStatus)6199": {
        "encoding": "inplace",
        "label": "enum FairDropRegistration.RegistrationStatus",
        "numberOfBytes": "1"
      },
      "t_mapping(t_address,t_enum(RegistrationStatus)6199)": {
        "encoding": "mapping",
        "key": "t_address",
        "label": "mapping(address => enum FairDropRegistration.RegistrationStatus)",
        "numberOfBytes": "32",
        "value": "t_enum(RegistrationStatus)6199"
      },
      "t_mapping(t_bytes32,t_uint256)": {
        "encoding": "mapping",
        "key": "t_bytes32",
        "label": "mapping(bytes32 => uint256)",
        "numberOfBytes": "32",
        "value": "t_uint256"
      },
      "t_uint256": {
        "encoding": "inplace",
        "label": "uint256",
        "numberOfBytes": "32"
      }
    }
  }
}