{
  "address": "0xD03507B7eba508c0DE01A9FBdE4A0D9B5c56dDb6",
  "abi": [
    {
      "inputs": [],
      "stateMutability": "nonpayable",
      "type": "constructor"
    },
    {
      "anonymous": false,
      "inputs": [
        {
          "indexed": true,
          "internalType": "bytes32",
          "name": "role",
          "type": "bytes32"
        },
        {
          "indexed": true,
          "internalType": "bytes32",
          "name": "previousAdminRole",
          "type": "bytes32"
        },
        {
          "indexed": true,
          "internalType": "bytes32",
          "name": "newAdminRole",
          "type": "bytes32"
        }
      ],
      "name": "RoleAdminChanged",
      "type": "event"
    },
    {
      "anonymous": false,
      "inputs": [
        {
          "indexed": true,
          "internalType": "bytes32",
          "name": "role",
          "type": "bytes32"
        },
        {
          "indexed": true,
          "internalType": "address",
          "name": "account",
          "type": "address"
        },
        {
          "indexed": true,
          "internalType": "address",
          "name": "sender",
          "type": "address"
        }
      ],
      "name": "RoleGranted",
      "type": "event"
    },
    {
      "anonymous": false,
      "inputs": [
        {
          "indexed": true,
          "internalType": "bytes32",
          "name": "role",
          "type": "bytes32"
        },
        {
          "indexed": true,
          "internalType": "address",
          "name": "account",
          "type": "address"
        },
        {
          "indexed": true,
          "internalType": "address",
          "name": "sender",
          "type": "address"
        }
      ],
      "name": "RoleRevoked",
      "type": "event"
    },
    {
      "inputs": [],
      "name": "ADMIN_ROLE",
      "outputs": [
        {
          "internalType": "bytes32",
          "name": "",
          "type": "bytes32"
        }
      ],
      "stateMutability": "view",
      "type": "function"
    },
    {
      "inputs": [],
      "name": "DEFAULT_ADMIN_ROLE",
      "outputs": [
        {
          "internalType": "bytes32",
          "name": "",
          "type": "bytes32"
        }
      ],
      "stateMutability": "view",
      "type": "function"
    },
    {
      "inputs": [
        {
          "components": [
            {
              "internalType": "address",
              "name": "from",
              "type": "address"
            },
            {
              "internalType": "address",
              "name": "to",
              "type": "address"
            },
            {
              "internalType": "uint256",
              "name": "value",
              "type": "uint256"
            },
            {
              "internalType": "uint256",
              "name": "gas",
              "type": "uint256"
            },
            {
              "internalType": "uint256",
              "name": "nonce",
              "type": "uint256"
            },
            {
              "internalType": "bytes",
              "name": "data",
              "type": "bytes"
            }
          ],
          "internalType": "struct FairDropGasStation.ForwardRequest",
          "name": "req",
          "type": "tuple"
        },
        {
          "internalType": "bytes",
          "name": "signature",
          "type": "bytes"
        }
      ],
      "name": "execute",
      "outputs": [
        {
          "internalType": "bool",
          "name": "",
          "type": "bool"
        },
        {
          "internalType": "bytes",
          "name": "",
          "type": "bytes"
        }
      ],
      "stateMutability": "payable",
      "type": "function"
    },
    {
      "inputs": [
        {
          "internalType": "address",
          "name": "from",
          "type": "address"
        }
      ],
      "name": "getNonce",
      "outputs": [
        {
          "internalType": "uint256",
          "name": "",
          "type": "uint256"
        }
      ],
      "stateMutability": "view",
      "type": "function"
    },
    {
      "inputs": [
        {
          "internalType": "bytes32",
          "name": "role",
          "type": "bytes32"
        }
      ],
      "name": "getRoleAdmin",
      "outputs": [
        {
          "internalType": "bytes32",
          "name": "",
          "type": "bytes32"
        }
      ],
      "stateMutability": "view",
      "type": "function"
    },
    {
      "inputs": [
        {
          "internalType": "bytes32",
          "name": "role",
          "type": "bytes32"
        },
        {
          "internalType": "address",
          "name": "account",
          "type": "address"
        }
      ],
      "name": "grantRole",
      "outputs": [],
      "stateMutability": "nonpayable",
      "type": "function"
    },
    {
      "inputs": [
        {
          "internalType": "bytes32",
          "name": "role",
          "type": "bytes32"
        },
        {
          "internalType": "address",
          "name": "account",
          "type": "address"
        }
      ],
      "name": "hasRole",
      "outputs": [
        {
          "internalType": "bool",
          "name": "",
          "type": "bool"
        }
      ],
      "stateMutability": "view",
      "type": "function"
    },
    {
      "inputs": [
        {
          "internalType": "bytes32",
          "name": "role",
          "type": "bytes32"
        },
        {
          "internalType": "address",
          "name": "account",
          "type": "address"
        }
      ],
      "name": "renounceRole",
      "outputs": [],
      "stateMutability": "nonpayable",
      "type": "function"
    },
    {
      "inputs": [
        {
          "internalType": "bytes32",
          "name": "role",
          "type": "bytes32"
        },
        {
          "internalType": "address",
          "name": "account",
          "type": "address"
        }
      ],
      "name": "revokeRole",
      "outputs": [],
      "stateMutability": "nonpayable",
      "type": "function"
    },
    {
      "inputs": [
        {
          "internalType": "bytes4",
          "name": "interfaceId",
          "type": "bytes4"
        }
      ],
      "name": "supportsInterface",
      "outputs": [
        {
          "internalType": "bool",
          "name": "",
          "type": "bool"
        }
      ],
      "stateMutability": "view",
      "type": "function"
    },
    {
      "inputs": [
        {
          "components": [
            {
              "internalType": "address",
              "name": "from",
              "type": "address"
            },
            {
              "internalType": "address",
              "name": "to",
              "type": "address"
            },
            {
              "internalType": "uint256",
              "name": "value",
              "type": "uint256"
            },
            {
              "internalType": "uint256",
              "name": "gas",
              "type": "uint256"
            },
            {
              "internalType": "uint256",
              "name": "nonce",
              "type": "uint256"
            },
            {
              "internalType": "bytes",
              "name": "data",
              "type": "bytes"
            }
          ],
          "internalType": "struct FairDropGasStation.ForwardRequest",
          "name": "req",
          "type": "tuple"
        },
        {
          "internalType": "bytes",
          "name": "signature",
          "type": "bytes"
        }
      ],
      "name": "verify",
      "outputs": [
        {
          "internalType": "bool",
          "name": "",
          "type": "bool"
        }
      ],
      "stateMutability": "view",
      "type": "function"
    }
  ],
  "transactionHash": "0xb981aa24e0242f40a14ae4de590afea85d22ef11db8928cd87a48c51f25b8504",
  "args": [],
  "solcInputHash": "e5d9d8a8961ce6a6a13f5105b9a507b2",
  "bytecode": "0x6101206040523480156200001257600080fd5b5060408051808201825260128152712330b4b9223937b823b0b9a9ba30ba34b7b760711b602080830191825283518085019094526005845264302e302e3160d81b908401528151902060c08190527fae209a0b48f21c054280f2455d32cf309387644879d9acbd8ffc19916381188560e08190524660a0529192917f8b73c3c69bb8fe3d512ecc4cf759cc79239f7b179b0ffacaa9a75d522b39400f620000bb81848462000108565b6080526101005250620000d692506000915033905062000144565b620001027fa49807205ce4d355092ef5a8a18f56e8913cf4a201fbe287825b095693c217753362000144565b62000237565b60008383834630604051602001620001259594939291906200020b565b6040516020818303038152906040528051906020012090509392505050565b62000150828262000154565b5050565b620001608282620001de565b62000150576000828152602081815260408083206001600160a01b03851684529091529020805460ff191660011790556200019a62000207565b6001600160a01b0316816001600160a01b0316837f2f8788117e7eff1d82e926ec794901d17c78024a50270940304540a733656f0d60405160405180910390a45050565b6000918252602082815260408084206001600160a01b0393909316845291905290205460ff1690565b3390565b9485526020850193909352604084019190915260608301526001600160a01b0316608082015260a00190565b60805160a05160c05160e051610100516113ce6200027c6000396000610a3701526000610a7901526000610a58015260006109e501526000610a0e01526113ce6000f3fe60806040526004361061009c5760003560e01c806347153f821161006457806347153f821461016657806375b238fc1461018757806391d148541461019c578063a217fddf146101bc578063bf5d3bdb146101d1578063d547741f146101f15761009c565b806301ffc9a7146100a1578063248a9ca3146100d75780632d0335ab146101045780632f2ff15d1461012457806336568abe14610146575b600080fd5b3480156100ad57600080fd5b506100c16100bc366004610e34565b610211565b6040516100ce9190611005565b60405180910390f35b3480156100e357600080fd5b506100f76100f2366004610df1565b61023e565b6040516100ce9190611033565b34801561011057600080fd5b506100f761011f366004610dd7565b610253565b34801561013057600080fd5b5061014461013f366004610e09565b61026e565b005b34801561015257600080fd5b50610144610161366004610e09565b610297565b610179610174366004610e5c565b6102e6565b6040516100ce929190611010565b34801561019357600080fd5b506100f7610472565b3480156101a857600080fd5b506100c16101b7366004610e09565b610496565b3480156101c857600080fd5b506100f76104bf565b3480156101dd57600080fd5b506100c16101ec366004610e5c565b6104c4565b3480156101fd57600080fd5b5061014461020c366004610e09565b610648565b60006001600160e01b03198216637965db0b60e01b1480610236575061023682610667565b90505b919050565b60009081526020819052604090206001015490565b6001600160a01b031660009081526001602052604090205490565b6102778261023e565b61028881610283610680565b610685565b61029283836106e9565b505050565b61029f610680565b6001600160a01b0316816001600160a01b0316146102d85760405162461bcd60e51b81526004016102cf90611250565b60405180910390fd5b6102e2828261076e565b5050565b600060607fa49807205ce4d355092ef5a8a18f56e8913cf4a201fbe287825b095693c2177561031781610283610680565b6103228686866104c4565b61033e5760405162461bcd60e51b81526004016102cf90611178565b61034d608087013560016112e4565b6001600061035e60208a018a610dd7565b6001600160a01b03166001600160a01b03168152602001908152602001600020819055506000808760200160208101906103989190610dd7565b6001600160a01b0316606089013560408a01356103b860a08c018c61129f565b6103c560208e018e610dd7565b6040516020016103d793929190610f30565b60408051601f19818403018152908290526103f191610f59565b600060405180830381858888f193505050503d806000811461042f576040519150601f19603f3d011682016040523d82523d6000602084013e610434565b606091505b509092509050610449603f60608a01356112fc565b5a1161046557634e487b7160e01b600052600160045260246000fd5b9097909650945050505050565b7fa49807205ce4d355092ef5a8a18f56e8913cf4a201fbe287825b095693c2177581565b6000918252602082815260408084206001600160a01b0393909316845291905290205460ff1690565b600081565b60007fa49807205ce4d355092ef5a8a18f56e8913cf4a201fbe287825b095693c217756104f381610283610680565b60006105db85858080601f0160208091040260200160405190810160405280939291908181526020018383808284376000920191909152506105d592507fdd8f4b70b0f4393e889bd39128a30628a78b61816a9eb8199759e7a349657e489150610562905060208b018b610dd7565b61057260408c0160208d01610dd7565b8b604001358c606001358d608001358e8060a00190610591919061129f565b60405161059f929190610f20565b6040519081900381206105ba9796959493929160200161103c565b604051602081830303815290604052805190602001206107f1565b90610804565b90506080860135600160006105f360208a018a610dd7565b6001600160a01b03166001600160a01b031681526020019081526020016000205414801561063e57506106296020870187610dd7565b6001600160a01b0316816001600160a01b0316145b9695505050505050565b6106518261023e565b61065d81610283610680565b610292838361076e565b6001600160e01b031981166301ffc9a760e01b14919050565b335b90565b61068f8282610496565b6102e2576106a7816001600160a01b03166014610828565b6106b2836020610828565b6040516020016106c3929190610f90565b60408051601f198184030181529082905262461bcd60e51b82526102cf916004016110c2565b6106f38282610496565b6102e2576000828152602081815260408083206001600160a01b03851684529091529020805460ff1916600117905561072a610680565b6001600160a01b0316816001600160a01b0316837f2f8788117e7eff1d82e926ec794901d17c78024a50270940304540a733656f0d60405160405180910390a45050565b6107788282610496565b156102e2576000828152602081815260408083206001600160a01b03851684529091529020805460ff191690556107ad610680565b6001600160a01b0316816001600160a01b0316837ff6391f5c32d9c69d2a47ea670b442974b53935d1edc7fd64eb21e047a839171b60405160405180910390a45050565b60006102366107fe6109e1565b83610aa4565b60008060006108138585610ad7565b9150915061082081610b47565b509392505050565b6060600061083783600261131c565b6108429060026112e4565b67ffffffffffffffff81111561086857634e487b7160e01b600052604160045260246000fd5b6040519080825280601f01601f191660200182016040528015610892576020820181803683370190505b509050600360fc1b816000815181106108bb57634e487b7160e01b600052603260045260246000fd5b60200101906001600160f81b031916908160001a905350600f60fb1b816001815181106108f857634e487b7160e01b600052603260045260246000fd5b60200101906001600160f81b031916908160001a905350600061091c84600261131c565b6109279060016112e4565b90505b60018111156109bb576f181899199a1a9b1b9c1cb0b131b232b360811b85600f166010811061096957634e487b7160e01b600052603260045260246000fd5b1a60f81b82828151811061098d57634e487b7160e01b600052603260045260246000fd5b60200101906001600160f81b031916908160001a90535060049490941c936109b48161136b565b905061092a565b5083156109da5760405162461bcd60e51b81526004016102cf9061110c565b9392505050565b60007f0000000000000000000000000000000000000000000000000000000000000000461415610a3257507f0000000000000000000000000000000000000000000000000000000000000000610682565b610a9d7f00000000000000000000000000000000000000000000000000000000000000007f00000000000000000000000000000000000000000000000000000000000000007f0000000000000000000000000000000000000000000000000000000000000000610c77565b9050610682565b60008282604051602001610ab9929190610f75565b60405160208183030381529060405280519060200120905092915050565b600080825160411415610b0e5760208301516040840151606085015160001a610b0287828585610cb1565b94509450505050610b40565b825160401415610b385760208301516040840151610b2d868383610d91565b935093505050610b40565b506000905060025b9250929050565b6000816004811115610b6957634e487b7160e01b600052602160045260246000fd5b1415610b7457610c74565b6001816004811115610b9657634e487b7160e01b600052602160045260246000fd5b1415610bb45760405162461bcd60e51b81526004016102cf906110d5565b6002816004811115610bd657634e487b7160e01b600052602160045260246000fd5b1415610bf45760405162461bcd60e51b81526004016102cf90611141565b6003816004811115610c1657634e487b7160e01b600052602160045260246000fd5b1415610c345760405162461bcd60e51b81526004016102cf906111cc565b6004816004811115610c5657634e487b7160e01b600052602160045260246000fd5b1415610c745760405162461bcd60e51b81526004016102cf9061120e565b50565b60008383834630604051602001610c92959493929190611078565b6040516020818303038152906040528051906020012090509392505050565b6000807f7fffffffffffffffffffffffffffffff5d576e7357a4501ddfe92f46681b20a0831115610ce85750600090506003610d88565b8460ff16601b14158015610d0057508460ff16601c14155b15610d115750600090506004610d88565b600060018787878760405160008152602001604052604051610d3694939291906110a4565b6020604051602081039080840390855afa158015610d58573d6000803e3d6000fd5b5050604051601f1901519150506001600160a01b038116610d8157600060019250925050610d88565b9150600090505b94509492505050565b6000806001600160ff1b03831660ff84901c601b01610db287828885610cb1565b935093505050935093915050565b80356001600160a01b038116811461023957600080fd5b600060208284031215610de8578081fd5b6109da82610dc0565b600060208284031215610e02578081fd5b5035919050565b60008060408385031215610e1b578081fd5b82359150610e2b60208401610dc0565b90509250929050565b600060208284031215610e45578081fd5b81356001600160e01b0319811681146109da578182fd5b600080600060408486031215610e70578081fd5b833567ffffffffffffffff80821115610e87578283fd5b9085019060c08288031215610e9a578283fd5b90935060208501359080821115610eaf578283fd5b818601915086601f830112610ec2578283fd5b813581811115610ed0578384fd5b876020828501011115610ee1578384fd5b6020830194508093505050509250925092565b60008151808452610f0c81602086016020860161133b565b601f01601f19169290920160200192915050565b6000828483379101908152919050565b6000838583375060609190911b6bffffffffffffffffffffffff19169101908152601401919050565b60008251610f6b81846020870161133b565b9190910192915050565b61190160f01b81526002810192909252602282015260420190565b60007f416363657373436f6e74726f6c3a206163636f756e742000000000000000000082528351610fc881601785016020880161133b565b7001034b99036b4b9b9b4b733903937b6329607d1b6017918401918201528351610ff981602884016020880161133b565b01602801949350505050565b901515815260200190565b600083151582526040602083015261102b6040830184610ef4565b949350505050565b90815260200190565b9687526001600160a01b0395861660208801529390941660408601526060850191909152608084015260a083019190915260c082015260e00190565b9485526020850193909352604084019190915260608301526001600160a01b0316608082015260a00190565b93845260ff9290921660208401526040830152606082015260800190565b6000602082526109da6020830184610ef4565b60208082526018908201527f45434453413a20696e76616c6964207369676e61747572650000000000000000604082015260600190565b6020808252818101527f537472696e67733a20686578206c656e67746820696e73756666696369656e74604082015260600190565b6020808252601f908201527f45434453413a20696e76616c6964207369676e6174757265206c656e67746800604082015260600190565b60208082526034908201527f4661697244726f7047617353746174696f6e3a207369676e617475726520646f604082015273195cc81b9bdd081b585d18da081c995c5d595cdd60621b606082015260800190565b60208082526022908201527f45434453413a20696e76616c6964207369676e6174757265202773272076616c604082015261756560f01b606082015260800190565b60208082526022908201527f45434453413a20696e76616c6964207369676e6174757265202776272076616c604082015261756560f01b606082015260800190565b6020808252602f908201527f416363657373436f6e74726f6c3a2063616e206f6e6c792072656e6f756e636560408201526e103937b632b9903337b91039b2b63360891b606082015260800190565b6000808335601e198436030181126112b5578283fd5b83018035915067ffffffffffffffff8211156112cf578283fd5b602001915036819003821315610b4057600080fd5b600082198211156112f7576112f7611382565b500190565b60008261131757634e487b7160e01b81526012600452602481fd5b500490565b600081600019048311821515161561133657611336611382565b500290565b60005b8381101561135657818101518382015260200161133e565b83811115611365576000848401525b50505050565b60008161137a5761137a611382565b506000190190565b634e487b7160e01b600052601160045260246000fdfea2646970667358221220d0b26ed28941e8e8681787c35789d3c181c6722250b1b5414014da7b0b06244464736f6c63430008000033",
  "devdoc": {
    "kind": "dev",
    "methods": {
      "getRoleAdmin(bytes32)": {
        "details": "Returns the admin role that controls `role`. See {grantRole} and {revokeRole}. To change a role's admin, use {_setRoleAdmin}."
      },
      "grantRole(bytes32,address)": {
        "details": "Grants `role` to `account`. If `account` had not been already granted `role`, emits a {RoleGranted} event. Requirements: - the caller must have ``role``'s admin role."
      },
      "hasRole(bytes32,address)": {
        "details": "Returns `true` if `account` has been granted `role`."
      },
      "renounceRole(bytes32,address)": {
        "details": "Revokes `role` from the calling account. Roles are often managed via {grantRole} and {revokeRole}: this function's purpose is to provide a mechanism for accounts to lose their privileges if they are compromised (such as when a trusted device is misplaced). If the calling account had been granted `role`, emits a {RoleRevoked} event. Requirements: - the caller must be `account`."
      },
      "revokeRole(bytes32,address)": {
        "details": "Revokes `role` from `account`. If `account` had been granted `role`, emits a {RoleRevoked} event. Requirements: - the caller must have ``role``'s admin role."
      },
      "supportsInterface(bytes4)": {
        "details": "See {IERC165-supportsInterface}."
      }
    },
    "version": 1
  },
  "userdoc": {
    "kind": "user",
    "methods": {},
    "version": 1
  },
  "storageLayout": {
    "storage": [
      {
        "astId": 2679,
        "contract": "contracts/FairDropGasStation/FairDropGasStation.sol:FairDropGasStation",
        "label": "_roles",
        "offset": 0,
        "slot": "0",
        "type": "t_mapping(t_bytes32,t_struct(RoleData)2674_storage)"
      },
      {
        "astId": 6017,
        "contract": "contracts/FairDropGasStation/FairDropGasStation.sol:FairDropGasStation",
        "label": "_nonces",
        "offset": 0,
        "slot": "1",
        "type": "t_mapping(t_address,t_uint256)"
      }
    ],
    "types": {
      "t_address": {
        "encoding": "inplace",
        "label": "address",
        "numberOfBytes": "20"
      },
      "t_bool": {
        "encoding": "inplace",
        "label": "bool",
        "numberOfBytes": "1"
      },
      "t_bytes32": {
        "encoding": "inplace",
        "label": "bytes32",
        "numberOfBytes": "32"
      },
      "t_mapping(t_address,t_bool)": {
        "encoding": "mapping",
        "key": "t_address",
        "label": "mapping(address => bool)",
        "numberOfBytes": "32",
        "value": "t_bool"
      },
      "t_mapping(t_address,t_uint256)": {
        "encoding": "mapping",
        "key": "t_address",
        "label": "mapping(address => uint256)",
        "numberOfBytes": "32",
        "value": "t_uint256"
      },
      "t_mapping(t_bytes32,t_struct(RoleData)2674_storage)": {
        "encoding": "mapping",
        "key": "t_bytes32",
        "label": "mapping(bytes32 => struct AccessControl.RoleData)",
        "numberOfBytes": "32",
        "value": "t_struct(RoleData)2674_storage"
      },
      "t_struct(RoleData)2674_storage": {
        "encoding": "inplace",
        "label": "struct AccessControl.RoleData",
        "members": [
          {
            "astId": 2671,
            "contract": "contracts/FairDropGasStation/FairDropGasStation.sol:FairDropGasStation",
            "label": "members",
            "offset": 0,
            "slot": "0",
            "type": "t_mapping(t_address,t_bool)"
          },
          {
            "astId": 2673,
            "contract": "contracts/FairDropGasStation/FairDropGasStation.sol:FairDropGasStation",
            "label": "adminRole",
            "offset": 0,
            "slot": "1",
            "type": "t_bytes32"
          }
        ],
        "numberOfBytes": "64"
      },
      "t_uint256": {
        "encoding": "inplace",
        "label": "uint256",
        "numberOfBytes": "32"
      }
    }
  }
}