{
  "address": "0x00426C72Dd7d9196f0103e6EBcf2c25C5eB3FA82",
  "abi": [
    {
      "inputs": [
        {
          "internalType": "address",
          "name": "_vrfCoordinator",
          "type": "address"
        },
        {
          "internalType": "address",
          "name": "_linkToken",
          "type": "address"
        },
        {
          "internalType": "bytes32",
          "name": "_keyhash",
          "type": "bytes32"
        },
        {
          "internalType": "address",
          "name": "_fxChild",
          "type": "address"
        }
      ],
      "stateMutability": "nonpayable",
      "type": "constructor"
    },
    {
      "anonymous": false,
      "inputs": [
        {
          "indexed": false,
          "internalType": "bytes",
          "name": "message",
          "type": "bytes"
        }
      ],
      "name": "MessageSent",
      "type": "event"
    },
    {
      "anonymous": false,
      "inputs": [
        {
          "indexed": false,
          "internalType": "address",
          "name": "userAddress",
          "type": "address"
        },
        {
          "indexed": false,
          "internalType": "address payable",
          "name": "relayerAddress",
          "type": "address"
        },
        {
          "indexed": false,
          "internalType": "bytes",
          "name": "functionSignature",
          "type": "bytes"
        }
      ],
      "name": "MetaTransactionExecuted",
      "type": "event"
    },
    {
      "inputs": [],
      "name": "ERC712_VERSION",
      "outputs": [
        {
          "internalType": "string",
          "name": "",
          "type": "string"
        }
      ],
      "stateMutability": "view",
      "type": "function"
    },
    {
      "inputs": [
        {
          "internalType": "address",
          "name": "userAddress",
          "type": "address"
        },
        {
          "internalType": "bytes",
          "name": "functionSignature",
          "type": "bytes"
        },
        {
          "internalType": "bytes32",
          "name": "sigR",
          "type": "bytes32"
        },
        {
          "internalType": "bytes32",
          "name": "sigS",
          "type": "bytes32"
        },
        {
          "internalType": "uint8",
          "name": "sigV",
          "type": "uint8"
        }
      ],
      "name": "executeMetaTransaction",
      "outputs": [
        {
          "internalType": "bytes",
          "name": "",
          "type": "bytes"
        }
      ],
      "stateMutability": "payable",
      "type": "function"
    },
    {
      "inputs": [],
      "name": "fxChild",
      "outputs": [
        {
          "internalType": "address",
          "name": "",
          "type": "address"
        }
      ],
      "stateMutability": "view",
      "type": "function"
    },
    {
      "inputs": [],
      "name": "fxRootTunnel",
      "outputs": [
        {
          "internalType": "address",
          "name": "",
          "type": "address"
        }
      ],
      "stateMutability": "view",
      "type": "function"
    },
    {
      "inputs": [],
      "name": "getChainId",
      "outputs": [
        {
          "internalType": "uint256",
          "name": "",
          "type": "uint256"
        }
      ],
      "stateMutability": "view",
      "type": "function"
    },
    {
      "inputs": [],
      "name": "getDomainSeperator",
      "outputs": [
        {
          "internalType": "bytes32",
          "name": "",
          "type": "bytes32"
        }
      ],
      "stateMutability": "view",
      "type": "function"
    },
    {
      "inputs": [
        {
          "internalType": "address",
          "name": "user",
          "type": "address"
        }
      ],
      "name": "getNonce",
      "outputs": [
        {
          "internalType": "uint256",
          "name": "nonce",
          "type": "uint256"
        }
      ],
      "stateMutability": "view",
      "type": "function"
    },
    {
      "inputs": [],
      "name": "nextWindow",
      "outputs": [
        {
          "internalType": "uint256",
          "name": "",
          "type": "uint256"
        }
      ],
      "stateMutability": "view",
      "type": "function"
    },
    {
      "inputs": [
        {
          "internalType": "uint256",
          "name": "stateId",
          "type": "uint256"
        },
        {
          "internalType": "address",
          "name": "rootMessageSender",
          "type": "address"
        },
        {
          "internalType": "bytes",
          "name": "data",
          "type": "bytes"
        }
      ],
      "name": "processMessageFromRoot",
      "outputs": [],
      "stateMutability": "nonpayable",
      "type": "function"
    },
    {
      "inputs": [
        {
          "internalType": "bytes32",
          "name": "requestId",
          "type": "bytes32"
        },
        {
          "internalType": "uint256",
          "name": "randomness",
          "type": "uint256"
        }
      ],
      "name": "rawFulfillRandomness",
      "outputs": [],
      "stateMutability": "nonpayable",
      "type": "function"
    },
    {
      "inputs": [],
      "name": "registerForDrop",
      "outputs": [],
      "stateMutability": "nonpayable",
      "type": "function"
    },
    {
      "inputs": [
        {
          "internalType": "address",
          "name": "",
          "type": "address"
        }
      ],
      "name": "registrationStatus",
      "outputs": [
        {
          "internalType": "enum FairDropRegistration.RegistrationStatus",
          "name": "",
          "type": "uint8"
        }
      ],
      "stateMutability": "view",
      "type": "function"
    },
    {
      "inputs": [],
      "name": "remainingMints",
      "outputs": [
        {
          "internalType": "uint256",
          "name": "",
          "type": "uint256"
        }
      ],
      "stateMutability": "view",
      "type": "function"
    },
    {
      "inputs": [],
      "name": "selectEligibleBuyers",
      "outputs": [],
      "stateMutability": "nonpayable",
      "type": "function"
    },
    {
      "inputs": [
        {
          "internalType": "address",
          "name": "_fxRootTunnel",
          "type": "address"
        }
      ],
      "name": "setFxRootTunnel",
      "outputs": [],
      "stateMutability": "nonpayable",
      "type": "function"
    }
  ],
  "transactionHash": "0x393c757673b54083460ba4662d1439a9142c881948fc0b5da7fb4e841d3036fb",
  "args": [
    "0x8C7382F9D8f56b33781fE506E897a4F1e2d17255",
    "0x326C977E6efc84E512bB9C30f76E30c160eD06FB",
    "0x6e75b569a01ef56d18cab6a8e71e6600d6ce853834d4a5748b720d06f878b3a4",
    "0xCf73231F28B7331BBe3124B907840A94851f9f11"
  ],
  "solcInputHash": "424e2e0b291b11215e8353f5558286c2",
  "bytecode": "0x60c06040526000805460ff191690556005600c553480156200002057600080fd5b50604051620016bc380380620016bc8339810160408190526200004391620001f1565b600380546001600160a01b0383166001600160a01b03199091161790556001600160601b0319606085811b821660a05284901b1660805260408051808201909152601481527f4661697244726f70526567697374726174696f6e0000000000000000000000006020820152620000b990620000e4565b6006829055655af3107a4000600755620000d64261012c62000298565b600d5550620002bd92505050565b60005460ff1615620001135760405162461bcd60e51b81526004016200010a9062000270565b60405180910390fd5b6200011e816200012e565b506000805460ff19166001179055565b6040518060800160405280604f81526020016200166d604f913980516020918201208251838301206040805180820190915260018152603160f81b930192909252907fc89efdaa54c0f20c7adf612882df0950f5a951637e0307cdcb4c672f298b8bc6306200019c620001d0565b604051620001b295949392919060200162000244565b60408051601f19818403018152919052805160209091012060015550565b4690565b80516001600160a01b0381168114620001ec57600080fd5b919050565b6000806000806080858703121562000207578384fd5b6200021285620001d4565b93506200022260208601620001d4565b9250604085015191506200023960608601620001d4565b905092959194509250565b948552602085019390935260408401919091526001600160a01b03166060830152608082015260a00190565b6020808252600e908201526d185b1c9958591e481a5b9a5d195960921b604082015260600190565b60008219821115620002b857634e487b7160e01b81526011600452602481fd5b500190565b60805160601c60a05160601c61137d620002f0600039600081816105ed015261076a0152600061073b015261137d6000f3fe6080604052600436106100e85760003560e01c8063450d11f01161008a57806394985ddd1161005957806394985ddd146102325780639a7c4b7114610252578063d87854cb14610272578063fffd5ec414610287576100e8565b8063450d11f0146101ae578063602e03b4146101d05780637f1e9cb0146101fd5780638883709414610212576100e8565b8063204b262b116100c6578063204b262b1461014d5780632d0335ab1461016457806333816e0e146101845780633408e47014610199576100e8565b80630c53c51c146100ed5780630f7e59701461011657806320379ee51461012b575b600080fd5b6101006100fb366004610ce9565b61029c565b60405161010d9190610fb6565b60405180910390f35b34801561012257600080fd5b50610100610425565b34801561013757600080fd5b50610140610442565b60405161010d9190610f6b565b34801561015957600080fd5b50610162610448565b005b34801561017057600080fd5b5061014061017f366004610ccf565b6104f5565b34801561019057600080fd5b50610162610510565b3480156101a557600080fd5b50610140610560565b3480156101ba57600080fd5b506101c3610564565b60405161010d9190610efb565b3480156101dc57600080fd5b506101f06101eb366004610ccf565b610573565b60405161010d9190610fc9565b34801561020957600080fd5b506101c3610588565b34801561021e57600080fd5b5061016261022d366004610ccf565b610597565b34801561023e57600080fd5b5061016261024d366004610d82565b6105e2565b34801561025e57600080fd5b5061016261026d366004610dbb565b610638565b34801561027e57600080fd5b50610140610672565b34801561029357600080fd5b50610140610678565b60408051606081810183526001600160a01b038816600081815260026020908152908590205484528301529181018690526102da878287878761067e565b6102ff5760405162461bcd60e51b81526004016102f690611193565b60405180910390fd5b6001600160a01b038716600090815260026020526040902054610323906001610724565b6001600160a01b0388166000908152600260205260409081902091909155517f5845892132946850460bff5a0083f71031bc5bf9aadcd40f1de79423eac9b10b9061037390899033908a90610f0f565b60405180910390a1600080306001600160a01b0316888a60405160200161039b929190610ea9565b60408051601f19818403018152908290526103b591610e8d565b6000604051808303816000865af19150503d80600081146103f2576040519150601f19603f3d011682016040523d82523d6000602084013e6103f7565b606091505b5091509150816104195760405162461bcd60e51b81526004016102f6906110b4565b98975050505050505050565b604051806040016040528060018152602001603160f81b81525081565b60015490565b3360009081526009602052604081205460ff16600381111561047a57634e487b7160e01b600052602160045260246000fd5b146104975760405162461bcd60e51b81526004016102f690611122565b336000818152600960205260408120805460ff19166001908117909155600a805491820181559091527fc65a7bb8d6351c1cf70c95a316cc6a92839c986682d98bc35f958f4883f9d2a80180546001600160a01b0319169091179055565b6001600160a01b031660009081526002602052604090205490565b600d5442116105315760405162461bcd60e51b81526004016102f69061107d565b62015180600d60008282546105469190611255565b9250508190555061055b600654600754610737565b600855565b4690565b6003546001600160a01b031681565b60096020526000908152604090205460ff1681565b6004546001600160a01b031681565b6004546001600160a01b0316156105c05760405162461bcd60e51b81526004016102f69061120b565b600480546001600160a01b0319166001600160a01b0392909216919091179055565b336001600160a01b037f0000000000000000000000000000000000000000000000000000000000000000161461062a5760405162461bcd60e51b81526004016102f6906111d4565b610634828261087a565b5050565b6003546001600160a01b031633146106625760405162461bcd60e51b81526004016102f690610ff1565b61066d838383610ac6565b505050565b600c5481565b600d5481565b60006001600160a01b0386166106a65760405162461bcd60e51b81526004016102f69061114e565b60016106b96106b487610b15565b610b74565b838686604051600081526020016040526040516106d99493929190610f98565b6020604051602081039080840390855afa1580156106fb573d6000803e3d6000fd5b505050602060405103516001600160a01b0316866001600160a01b031614905095945050505050565b60006107308284611255565b9392505050565b60007f00000000000000000000000000000000000000000000000000000000000000006001600160a01b0316634000aea07f00000000000000000000000000000000000000000000000000000000000000008486600060405160200161079e929190610e7f565b6040516020818303038152906040526040518463ffffffff1660e01b81526004016107cb93929190610f44565b602060405180830381600087803b1580156107e557600080fd5b505af11580156107f9573d6000803e3d6000fd5b505050506040513d601f19601f8201168201806040525081019061081d9190610d62565b5060008381526005602052604081205461083c90859083903090610b90565b600085815260056020526040902054909150610859906001611255565b6000858152600560205260409020556108728482610bca565b949350505050565b600854821461089b5760405162461bcd60e51b81526004016102f6906110eb565b60005b600b5481101561096c57600360096000600b84815481106108cf57634e487b7160e01b600052603260045260246000fd5b60009182526020808320909101546001600160a01b031683528201929092526040019020805460ff1916600183600381111561091b57634e487b7160e01b600052602160045260246000fd5b0217905550600b818154811061094157634e487b7160e01b600052603260045260246000fd5b600091825260209091200180546001600160a01b0319169055806109648161129d565b91505061089e565b505b600b5460051115610a9d576000814260405160200161098e929190610e7f565b60408051601f198184030181529190528051602090910120600a80549192506000916109ba90846112b8565b815481106109d857634e487b7160e01b600052603260045260246000fd5b6000918252602090912001546001600160a01b0316905060016001600160a01b03821660009081526009602052604090205460ff166003811115610a2c57634e487b7160e01b600052602160045260246000fd5b1415610a9657600b8054600181019091557f0175b7a638427703f0dbe7bb9bbf987a2551717b34e79f33b5b1008d1fa01db90180546001600160a01b0383166001600160a01b031990911681179091556000908152600960205260409020805460ff191660021790555b505061096e565b610634600b604051602001610ab29190610e3c565b604051602081830303815290604052610bfd565b60045482906001600160a01b03808316911614610af55760405162461bcd60e51b81526004016102f690611032565b600082806020019051810190610b0b9190610da3565b600c555050505050565b60006040518060800160405280604381526020016113056043913980516020918201208351848301516040808701518051908601209051610b569501610f74565b6040516020818303038152906040528051906020012090505b919050565b6000610b7e610442565b82604051602001610b56929190610ee0565b600084848484604051602001610ba99493929190610f74565b60408051601f19818403018152919052805160209091012095945050505050565b60008282604051602001610bdf929190610e7f565b60405160208183030381529060405280519060200120905092915050565b7f8c5261668696ce22758910d05bab8f186d6eb247ceac2af2e82c7dc17669b03681604051610c2c9190610fb6565b60405180910390a150565b80356001600160a01b0381168114610b6f57600080fd5b600082601f830112610c5e578081fd5b813567ffffffffffffffff80821115610c7957610c796112ee565b604051601f8301601f191681016020018281118282101715610c9d57610c9d6112ee565b604052828152848301602001861015610cb4578384fd5b82602086016020830137918201602001929092529392505050565b600060208284031215610ce0578081fd5b61073082610c37565b600080600080600060a08688031215610d00578081fd5b610d0986610c37565b9450602086013567ffffffffffffffff811115610d24578182fd5b610d3088828901610c4e565b9450506040860135925060608601359150608086013560ff81168114610d54578182fd5b809150509295509295909350565b600060208284031215610d73578081fd5b81518015158114610730578182fd5b60008060408385031215610d94578182fd5b50508035926020909101359150565b600060208284031215610db4578081fd5b5051919050565b600080600060608486031215610dcf578283fd5b83359250610ddf60208501610c37565b9150604084013567ffffffffffffffff811115610dfa578182fd5b610e0686828701610c4e565b9150509250925092565b60008151808452610e2881602086016020860161126d565b601f01601f19169290920160200192915050565b60008183548391508483526020808420845b83811015610e735781546001600160a01b031685529382019360019182019101610e4e565b50929695505050505050565b918252602082015260400190565b60008251610e9f81846020870161126d565b9190910192915050565b60008351610ebb81846020880161126d565b60609390931b6bffffffffffffffffffffffff19169190920190815260140192915050565b61190160f01b81526002810192909252602282015260420190565b6001600160a01b0391909116815260200190565b6001600160a01b03848116825283166020820152606060408201819052600090610f3b90830184610e10565b95945050505050565b600060018060a01b038516825283602083015260606040830152610f3b6060830184610e10565b90815260200190565b93845260208401929092526001600160a01b03166040830152606082015260800190565b93845260ff9290921660208401526040830152606082015260800190565b6000602082526107306020830184610e10565b6020810160048310610feb57634e487b7160e01b600052602160045260246000fd5b91905290565b60208082526021908201527f4678426173654368696c6454756e6e656c3a20494e56414c49445f53454e44456040820152602960f91b606082015260800190565b6020808252602b908201527f4678426173654368696c6454756e6e656c3a20494e56414c49445f53454e444560408201526a1497d19493d357d493d3d560aa1b606082015260800190565b60208082526018908201527f427579696e672077696e646f77207374696c6c206f70656e0000000000000000604082015260600190565b6020808252601c908201527f46756e6374696f6e2063616c6c206e6f74207375636365737366756c00000000604082015260600190565b6020808252601a908201527f4261642072616e646f6d6e6573732066756c66696c6c6d656e74000000000000604082015260600190565b602080825260129082015271105b1c9958591e481c9959da5cdd195c995960721b604082015260600190565b60208082526025908201527f4e61746976654d6574615472616e73616374696f6e3a20494e56414c49445f5360408201526424a3a722a960d91b606082015260800190565b60208082526021908201527f5369676e657220616e64207369676e617475726520646f206e6f74206d6174636040820152600d60fb1b606082015260800190565b6020808252601f908201527f4f6e6c7920565246436f6f7264696e61746f722063616e2066756c66696c6c00604082015260600190565b6020808252602a908201527f4678426173654368696c6454756e6e656c3a20524f4f545f54554e4e454c5f4160408201526913149150511657d4d15560b21b606082015260800190565b60008219821115611268576112686112d8565b500190565b60005b83811015611288578181015183820152602001611270565b83811115611297576000848401525b50505050565b60006000198214156112b1576112b16112d8565b5060010190565b6000826112d357634e487b7160e01b81526012600452602481fd5b500690565b634e487b7160e01b600052601160045260246000fd5b634e487b7160e01b600052604160045260246000fdfe4d6574615472616e73616374696f6e2875696e74323536206e6f6e63652c616464726573732066726f6d2c62797465732066756e6374696f6e5369676e617475726529a2646970667358221220b0e49c48b14f78a026c4bcf7afdbf576e7aeb5e9c57148050424187a4aae975d64736f6c63430008000033454950373132446f6d61696e28737472696e67206e616d652c737472696e672076657273696f6e2c6164647265737320766572696679696e67436f6e74726163742c627974657333322073616c7429",
  "devdoc": {
    "kind": "dev",
    "methods": {
      "registerForDrop()": {
        "details": "Registration is once per address"
      },
      "selectEligibleBuyers()": {
        "details": "We use a public function so anyone may call it, but use guards to ensure it can't be called too soon. This could be replaced by Chainlink keepers once available on Polygon."
      }
    },
    "version": 1
  },
  "userdoc": {
    "kind": "user",
    "methods": {
      "registerForDrop()": {
        "notice": "Register for drop"
      },
      "selectEligibleBuyers()": {
        "notice": "Public function for selecting next tranche of eligible minters"
      }
    },
    "version": 1
  },
  "storageLayout": {
    "storage": [
      {
        "astId": 5131,
        "contract": "contracts/FairDropRegistration/FairDropRegistration.sol:FairDropRegistration",
        "label": "inited",
        "offset": 0,
        "slot": "0",
        "type": "t_bool"
      },
      {
        "astId": 5038,
        "contract": "contracts/FairDropRegistration/FairDropRegistration.sol:FairDropRegistration",
        "label": "domainSeperator",
        "offset": 0,
        "slot": "1",
        "type": "t_bytes32"
      },
      {
        "astId": 5177,
        "contract": "contracts/FairDropRegistration/FairDropRegistration.sol:FairDropRegistration",
        "label": "nonces",
        "offset": 0,
        "slot": "2",
        "type": "t_mapping(t_address,t_uint256)"
      },
      {
        "astId": 5366,
        "contract": "contracts/FairDropRegistration/FairDropRegistration.sol:FairDropRegistration",
        "label": "fxChild",
        "offset": 0,
        "slot": "3",
        "type": "t_address"
      },
      {
        "astId": 5368,
        "contract": "contracts/FairDropRegistration/FairDropRegistration.sol:FairDropRegistration",
        "label": "fxRootTunnel",
        "offset": 0,
        "slot": "4",
        "type": "t_address"
      },
      {
        "astId": 79,
        "contract": "contracts/FairDropRegistration/FairDropRegistration.sol:FairDropRegistration",
        "label": "nonces",
        "offset": 0,
        "slot": "5",
        "type": "t_mapping(t_bytes32,t_uint256)"
      },
      {
        "astId": 4702,
        "contract": "contracts/FairDropRegistration/FairDropRegistration.sol:FairDropRegistration",
        "label": "keyHash",
        "offset": 0,
        "slot": "6",
        "type": "t_bytes32"
      },
      {
        "astId": 4704,
        "contract": "contracts/FairDropRegistration/FairDropRegistration.sol:FairDropRegistration",
        "label": "fee",
        "offset": 0,
        "slot": "7",
        "type": "t_uint256"
      },
      {
        "astId": 4706,
        "contract": "contracts/FairDropRegistration/FairDropRegistration.sol:FairDropRegistration",
        "label": "randomnessRequestId",
        "offset": 0,
        "slot": "8",
        "type": "t_bytes32"
      },
      {
        "astId": 4716,
        "contract": "contracts/FairDropRegistration/FairDropRegistration.sol:FairDropRegistration",
        "label": "registrationStatus",
        "offset": 0,
        "slot": "9",
        "type": "t_mapping(t_address,t_enum(RegistrationStatus)4711)"
      },
      {
        "astId": 4719,
        "contract": "contracts/FairDropRegistration/FairDropRegistration.sol:FairDropRegistration",
        "label": "registrants",
        "offset": 0,
        "slot": "10",
        "type": "t_array(t_address)dyn_storage"
      },
      {
        "astId": 4722,
        "contract": "contracts/FairDropRegistration/FairDropRegistration.sol:FairDropRegistration",
        "label": "currentlyEligible",
        "offset": 0,
        "slot": "11",
        "type": "t_array(t_address)dyn_storage"
      },
      {
        "astId": 4726,
        "contract": "contracts/FairDropRegistration/FairDropRegistration.sol:FairDropRegistration",
        "label": "remainingMints",
        "offset": 0,
        "slot": "12",
        "type": "t_uint256"
      },
      {
        "astId": 4728,
        "contract": "contracts/FairDropRegistration/FairDropRegistration.sol:FairDropRegistration",
        "label": "nextWindow",
        "offset": 0,
        "slot": "13",
        "type": "t_uint256"
      }
    ],
    "types": {
      "t_address": {
        "encoding": "inplace",
        "label": "address",
        "numberOfBytes": "20"
      },
      "t_array(t_address)dyn_storage": {
        "base": "t_address",
        "encoding": "dynamic_array",
        "label": "address[]",
        "numberOfBytes": "32"
      },
      "t_bool": {
        "encoding": "inplace",
        "label": "bool",
        "numberOfBytes": "1"
      },
      "t_bytes32": {
        "encoding": "inplace",
        "label": "bytes32",
        "numberOfBytes": "32"
      },
      "t_enum(RegistrationStatus)4711": {
        "encoding": "inplace",
        "label": "enum FairDropRegistration.RegistrationStatus",
        "numberOfBytes": "1"
      },
      "t_mapping(t_address,t_enum(RegistrationStatus)4711)": {
        "encoding": "mapping",
        "key": "t_address",
        "label": "mapping(address => enum FairDropRegistration.RegistrationStatus)",
        "numberOfBytes": "32",
        "value": "t_enum(RegistrationStatus)4711"
      },
      "t_mapping(t_address,t_uint256)": {
        "encoding": "mapping",
        "key": "t_address",
        "label": "mapping(address => uint256)",
        "numberOfBytes": "32",
        "value": "t_uint256"
      },
      "t_mapping(t_bytes32,t_uint256)": {
        "encoding": "mapping",
        "key": "t_bytes32",
        "label": "mapping(bytes32 => uint256)",
        "numberOfBytes": "32",
        "value": "t_uint256"
      },
      "t_uint256": {
        "encoding": "inplace",
        "label": "uint256",
        "numberOfBytes": "32"
      }
    }
  }
}