{
  "address": "0x957e3EcB1D9F6967250c5c682863d6d3f0defE70",
  "abi": [
    {
      "inputs": [
        {
          "internalType": "address",
          "name": "_vrfCoordinator",
          "type": "address"
        },
        {
          "internalType": "address",
          "name": "_linkToken",
          "type": "address"
        },
        {
          "internalType": "bytes32",
          "name": "_keyhash",
          "type": "bytes32"
        },
        {
          "internalType": "address",
          "name": "_fxChild",
          "type": "address"
        },
        {
          "internalType": "address",
          "name": "forwarder",
          "type": "address"
        }
      ],
      "stateMutability": "nonpayable",
      "type": "constructor"
    },
    {
      "anonymous": false,
      "inputs": [
        {
          "indexed": false,
          "internalType": "bytes",
          "name": "message",
          "type": "bytes"
        }
      ],
      "name": "MessageSent",
      "type": "event"
    },
    {
      "anonymous": false,
      "inputs": [
        {
          "indexed": true,
          "internalType": "address",
          "name": "previousOwner",
          "type": "address"
        },
        {
          "indexed": true,
          "internalType": "address",
          "name": "newOwner",
          "type": "address"
        }
      ],
      "name": "OwnershipTransferred",
      "type": "event"
    },
    {
      "anonymous": false,
      "inputs": [
        {
          "indexed": false,
          "internalType": "bytes32",
          "name": "requestId",
          "type": "bytes32"
        }
      ],
      "name": "RequestedRandom",
      "type": "event"
    },
    {
      "inputs": [
        {
          "internalType": "address[]",
          "name": "addresses",
          "type": "address[]"
        }
      ],
      "name": "adminBulkRegisterForDrop",
      "outputs": [],
      "stateMutability": "nonpayable",
      "type": "function"
    },
    {
      "inputs": [],
      "name": "claim",
      "outputs": [],
      "stateMutability": "nonpayable",
      "type": "function"
    },
    {
      "inputs": [
        {
          "internalType": "address",
          "name": "entrant",
          "type": "address"
        }
      ],
      "name": "eligible",
      "outputs": [
        {
          "internalType": "bool",
          "name": "",
          "type": "bool"
        }
      ],
      "stateMutability": "view",
      "type": "function"
    },
    {
      "inputs": [],
      "name": "fxChild",
      "outputs": [
        {
          "internalType": "address",
          "name": "",
          "type": "address"
        }
      ],
      "stateMutability": "view",
      "type": "function"
    },
    {
      "inputs": [],
      "name": "fxRootTunnel",
      "outputs": [
        {
          "internalType": "address",
          "name": "",
          "type": "address"
        }
      ],
      "stateMutability": "view",
      "type": "function"
    },
    {
      "inputs": [
        {
          "internalType": "address",
          "name": "forwarder",
          "type": "address"
        }
      ],
      "name": "isTrustedForwarder",
      "outputs": [
        {
          "internalType": "bool",
          "name": "",
          "type": "bool"
        }
      ],
      "stateMutability": "view",
      "type": "function"
    },
    {
      "inputs": [],
      "name": "kycRegisterForDrop",
      "outputs": [],
      "stateMutability": "nonpayable",
      "type": "function"
    },
    {
      "inputs": [],
      "name": "nextWindow",
      "outputs": [
        {
          "internalType": "uint256",
          "name": "",
          "type": "uint256"
        }
      ],
      "stateMutability": "view",
      "type": "function"
    },
    {
      "inputs": [],
      "name": "owner",
      "outputs": [
        {
          "internalType": "address",
          "name": "",
          "type": "address"
        }
      ],
      "stateMutability": "view",
      "type": "function"
    },
    {
      "inputs": [
        {
          "internalType": "uint256",
          "name": "stateId",
          "type": "uint256"
        },
        {
          "internalType": "address",
          "name": "rootMessageSender",
          "type": "address"
        },
        {
          "internalType": "bytes",
          "name": "data",
          "type": "bytes"
        }
      ],
      "name": "processMessageFromRoot",
      "outputs": [],
      "stateMutability": "nonpayable",
      "type": "function"
    },
    {
      "inputs": [
        {
          "internalType": "bytes32",
          "name": "requestId",
          "type": "bytes32"
        },
        {
          "internalType": "uint256",
          "name": "randomness",
          "type": "uint256"
        }
      ],
      "name": "rawFulfillRandomness",
      "outputs": [],
      "stateMutability": "nonpayable",
      "type": "function"
    },
    {
      "inputs": [],
      "name": "registerForDrop",
      "outputs": [],
      "stateMutability": "nonpayable",
      "type": "function"
    },
    {
      "inputs": [
        {
          "internalType": "address",
          "name": "",
          "type": "address"
        }
      ],
      "name": "registrationIndex",
      "outputs": [
        {
          "internalType": "uint256",
          "name": "",
          "type": "uint256"
        }
      ],
      "stateMutability": "view",
      "type": "function"
    },
    {
      "inputs": [],
      "name": "remainingMints",
      "outputs": [
        {
          "internalType": "uint256",
          "name": "",
          "type": "uint256"
        }
      ],
      "stateMutability": "view",
      "type": "function"
    },
    {
      "inputs": [],
      "name": "renounceOwnership",
      "outputs": [],
      "stateMutability": "nonpayable",
      "type": "function"
    },
    {
      "inputs": [],
      "name": "selectEligibleBuyers",
      "outputs": [
        {
          "internalType": "bytes32",
          "name": "",
          "type": "bytes32"
        }
      ],
      "stateMutability": "nonpayable",
      "type": "function"
    },
    {
      "inputs": [
        {
          "internalType": "address",
          "name": "_fxRootTunnel",
          "type": "address"
        }
      ],
      "name": "setFxRootTunnel",
      "outputs": [],
      "stateMutability": "nonpayable",
      "type": "function"
    },
    {
      "inputs": [
        {
          "internalType": "address",
          "name": "newOwner",
          "type": "address"
        }
      ],
      "name": "transferOwnership",
      "outputs": [],
      "stateMutability": "nonpayable",
      "type": "function"
    }
  ],
  "transactionHash": "0x2f62a7a01e6ed7e1722983e3049cee0794ce562e9dad0cf6cfc6f310b3020c4a",
  "args": [
    "0x8C7382F9D8f56b33781fE506E897a4F1e2d17255",
    "0x326C977E6efc84E512bB9C30f76E30c160eD06FB",
    "0x6e75b569a01ef56d18cab6a8e71e6600d6ce853834d4a5748b720d06f878b3a4",
    "0xCf73231F28B7331BBe3124B907840A94851f9f11",
    "0xD03507B7eba508c0DE01A9FBdE4A0D9B5c56dDb6"
  ],
  "solcInputHash": "739340220d05dc3cf21efd71bb08114a",
  "bytecode": "0x60c06040526005600c553480156200001657600080fd5b5060405162001512380380620015128339810160408190526200003991620001e5565b80858584620000516200004b620000e3565b62000121565b600180546001600160a01b03199081166001600160a01b0393841617909155606093841b6001600160601b031990811660a0529290931b9091166080526004805490921692169190911790556005839055655af3107a4000600655620000bb62015180426200024b565b600d81905550620000d8600b6200017160201b6200087b1760201c565b505050505062000270565b6000620000f0336200017a565b1562000106575060131936013560601c6200011e565b6200011b6200019160201b620008841760201c565b90505b90565b600080546001600160a01b038381166001600160a01b0319831681178455604051919092169283917f8be0079c531659141344cd1fd0a4f28419497f9722a3daafe3b4186f6b6457e09190a35050565b80546001019055565b6004546001600160a01b038281169116145b919050565b60006200019e336200017a565b15620001b4575060131936013560601c6200011e565b6200011b620001c960201b620008b21760201c565b3390565b80516001600160a01b03811681146200018c57600080fd5b600080600080600060a08688031215620001fd578081fd5b6200020886620001cd565b94506200021860208701620001cd565b9350604086015192506200022f60608701620001cd565b91506200023f60808701620001cd565b90509295509295909350565b600082198211156200026b57634e487b7160e01b81526011600452602481fd5b500190565b60805160601c60a05160601c61126f620002a36000396000818161062c0152610929015260006108fa015261126f6000f3fe608060405234801561001057600080fd5b50600436106101165760003560e01c80637f1e9cb0116100a25780639a7c4b71116100715780639a7c4b71146101ec578063d87854cb146101ff578063f2fde38b14610207578063fbc0f28c1461021a578063fffd5ec41461022d57610116565b80637f1e9cb0146101b657806388837094146101be5780638da5cb5b146101d157806394985ddd146101d957610116565b8063450d11f0116100e9578063450d11f01461016b5780634e71d92d14610180578063572b6c05146101885780635e35ff9d1461019b578063715018a6146101ae57610116565b80630713b1391461011b578063204b262b1461014457806333816e0e1461014e578063378c387414610163575b600080fd5b61012e610129366004610bfa565b610235565b60405161013b9190610e88565b60405180910390f35b61014c610325565b005b6101566103ad565b60405161013b9190610e93565b61014c6104bc565b6101736104e1565b60405161013b9190610e2b565b61014c6104f0565b61012e610196366004610bfa565b610548565b6101566101a9366004610bfa565b61055c565b61014c61056e565b6101736105b7565b61014c6101cc366004610bfa565b6105c6565b610173610611565b61014c6101e7366004610cfe565b610621565b61014c6101fa366004610d4e565b610677565b6101566106e8565b61014c610215366004610bfa565b6106ee565b61014c610228366004610c1d565b61075f565b610156610875565b600061023f6108b6565b1561024c57506001610320565b60006009600062015180600d54610263919061119c565b8152602080820192909252604090810160009081206001600160a01b03871682526008909352205481549192509081158061029d57508082115b156102ae5760009350505050610320565b60008360010154826102c09190611188565b905060008185600201546102d491906111ce565b9050806102e260018661119c565b10156102f657600095505050505050610320565b818161030360018761119c565b61030d919061119c565b61031791906111ce565b15955050505050505b919050565b600860006103316108cb565b6001600160a01b03168152602081019190915260400160002054156103715760405162461bcd60e51b815260040161036890611013565b60405180910390fd5b61037b600b6108f2565b600860006103876108cb565b6001600160a01b031681526020810191909152604001600020556103ab600b61087b565b565b6000600d5442116103d05760405162461bcd60e51b815260040161036890610f5f565b600d546000908152600a6020526040902054156103ff5760405162461bcd60e51b8152600401610368906110cc565b60405180606001604052806001610416600b6108f2565b610420919061119c565b8152600c5460208083019190915260006040928301819052600d548152600982528290208351815590830151600182015591015160029091015560055460065461046a91906108f6565b6007819055600d546000908152600a602052604090819020829055517fc71577e8f0ec680aa109fb19838da0873901404355cd91164e2f79f5642bf13b916104b191610e93565b60405180910390a190565b6104c533610548565b6103255760405162461bcd60e51b81526004016103689061103f565b6001546001600160a01b031681565b6104f933610235565b6105155760405162461bcd60e51b815260040161036890611103565b6103ab6105206108cb565b600d54604051602001610534929190610e3f565b604051602081830303815290604052610a39565b6004546001600160a01b0390811691161490565b60086020526000908152604090205481565b6105766108cb565b6001600160a01b0316610587610611565b6001600160a01b0316146105ad5760405162461bcd60e51b815260040161036890611060565b6103ab6000610a73565b6002546001600160a01b031681565b6002546001600160a01b0316156105ef5760405162461bcd60e51b815260040161036890611126565b600280546001600160a01b0319166001600160a01b0392909216919091179055565b6000546001600160a01b03165b90565b336001600160a01b037f000000000000000000000000000000000000000000000000000000000000000016146106695760405162461bcd60e51b815260040161036890611095565b6106738282610ac3565b5050565b6001546001600160a01b031633146106a15760405162461bcd60e51b815260040161036890610ed3565b6106e2848484848080601f016020809104026020016040519081016040528093929190818152602001838380828437600092019190915250610b1292505050565b50505050565b600c5481565b6106f66108cb565b6001600160a01b0316610707610611565b6001600160a01b03161461072d5760405162461bcd60e51b815260040161036890611060565b6001600160a01b0381166107535760405162461bcd60e51b815260040161036890610f96565b61075c81610a73565b50565b6107676108cb565b6001600160a01b0316610778610611565b6001600160a01b03161461079e5760405162461bcd60e51b815260040161036890611060565b60005b815181101561067357600860008383815181106107ce57634e487b7160e01b600052603260045260246000fd5b60200260200101516001600160a01b03166001600160a01b03168152602001908152602001600020546000141561086357610809600b6108f2565b6008600084848151811061082d57634e487b7160e01b600052603260045260246000fd5b60200260200101516001600160a01b03166001600160a01b0316815260200190815260200160002081905550610863600b61087b565b8061086d816111b3565b9150506107a1565b600d5481565b80546001019055565b600061088f33610548565b156108a3575060131936013560601c61061e565b6108ab6108b2565b905061061e565b3390565b60006108c2600b6108f2565b600c5411905090565b60006108d633610548565b156108ea575060131936013560601c61061e565b6108ab610884565b5490565b60007f00000000000000000000000000000000000000000000000000000000000000006001600160a01b0316634000aea07f00000000000000000000000000000000000000000000000000000000000000008486600060405160200161095d929190610e1d565b6040516020818303038152906040526040518463ffffffff1660e01b815260040161098a93929190610e58565b602060405180830381600087803b1580156109a457600080fd5b505af11580156109b8573d6000803e3d6000fd5b505050506040513d601f19601f820116820180604052508101906109dc9190610cde565b506000838152600360205260408120546109fb90859083903090610b82565b600085815260036020526040902054909150610a18906001611170565b600085815260036020526040902055610a318482610bbc565b949350505050565b7f8c5261668696ce22758910d05bab8f186d6eb247ceac2af2e82c7dc17669b03681604051610a689190610ec0565b60405180910390a150565b600080546001600160a01b038381166001600160a01b0319831681178455604051919092169283917f8be0079c531659141344cd1fd0a4f28419497f9722a3daafe3b4186f6b6457e09190a35050565b6007548214610ae45760405162461bcd60e51b815260040161036890610fdc565b600d8054600090815260096020526040902060020182905554610b0b906201518090611170565b600d555050565b60025482906001600160a01b03808316911614610b415760405162461bcd60e51b815260040161036890610f14565b60008083806020019051810190610b589190610d1f565b600c919091556001600160a01b031660009081526008602052604090206000199055505050505050565b600084848484604051602001610b9b9493929190610e9c565b60408051601f19818403018152919052805160209091012095945050505050565b60008282604051602001610bd1929190610e1d565b60405160208183030381529060405280519060200120905092915050565b803561032081611224565b600060208284031215610c0b578081fd5b8135610c1681611224565b9392505050565b60006020808385031215610c2f578182fd5b823567ffffffffffffffff80821115610c46578384fd5b818501915085601f830112610c59578384fd5b813581811115610c6b57610c6b61120e565b83810260405185828201018181108582111715610c8a57610c8a61120e565b604052828152858101935084860182860187018a1015610ca8578788fd5b8795505b83861015610cd157610cbd81610bef565b855260019590950194938601938601610cac565b5098975050505050505050565b600060208284031215610cef578081fd5b81518015158114610c16578182fd5b60008060408385031215610d10578081fd5b50508035926020909101359150565b60008060408385031215610d31578182fd5b825191506020830151610d4381611224565b809150509250929050565b60008060008060608587031215610d63578182fd5b843593506020850135610d7581611224565b9250604085013567ffffffffffffffff80821115610d91578384fd5b818701915087601f830112610da4578384fd5b813581811115610db2578485fd5b886020828501011115610dc3578485fd5b95989497505060200194505050565b60008151808452815b81811015610df757602081850181015186830182015201610ddb565b81811115610e085782602083870101525b50601f01601f19169290920160200192915050565b918252602082015260400190565b6001600160a01b0391909116815260200190565b6001600160a01b03929092168252602082015260400190565b600060018060a01b038516825283602083015260606040830152610e7f6060830184610dd2565b95945050505050565b901515815260200190565b90815260200190565b93845260208401929092526001600160a01b03166040830152606082015260800190565b600060208252610c166020830184610dd2565b60208082526021908201527f4678426173654368696c6454756e6e656c3a20494e56414c49445f53454e44456040820152602960f91b606082015260800190565b6020808252602b908201527f4678426173654368696c6454756e6e656c3a20494e56414c49445f53454e444560408201526a1497d19493d357d493d3d560aa1b606082015260800190565b60208082526018908201527f427579696e672077696e646f77207374696c6c206f70656e0000000000000000604082015260600190565b60208082526026908201527f4f776e61626c653a206e6577206f776e657220697320746865207a65726f206160408201526564647265737360d01b606082015260800190565b6020808252601a908201527f4261642072616e646f6d6e6573732066756c66696c6c6d656e74000000000000604082015260600190565b602080825260129082015271105b1c9958591e481c9959da5cdd195c995960721b604082015260600190565b6020808252600790820152664644523a34323960c81b604082015260600190565b6020808252818101527f4f776e61626c653a2063616c6c6572206973206e6f7420746865206f776e6572604082015260600190565b6020808252601f908201527f4f6e6c7920565246436f6f7264696e61746f722063616e2066756c66696c6c00604082015260600190565b6020808252601f908201527f52616e646f6d6e6573732072657175657374656420666f722077696e646f7700604082015260600190565b6020808252600990820152684644523a633a34303160b81b604082015260600190565b6020808252602a908201527f4678426173654368696c6454756e6e656c3a20524f4f545f54554e4e454c5f4160408201526913149150511657d4d15560b21b606082015260800190565b60008219821115611183576111836111e2565b500190565b600082611197576111976111f8565b500490565b6000828210156111ae576111ae6111e2565b500390565b60006000198214156111c7576111c76111e2565b5060010190565b6000826111dd576111dd6111f8565b500690565b634e487b7160e01b600052601160045260246000fd5b634e487b7160e01b600052601260045260246000fd5b634e487b7160e01b600052604160045260246000fd5b6001600160a01b038116811461075c57600080fdfea2646970667358221220f912e16c71e74bbdcb62f3b6ff5acf3037047f9179eb587ac7ca5b1b1f99af6364736f6c63430008000033",
  "devdoc": {
    "kind": "dev",
    "methods": {
      "adminBulkRegisterForDrop(address[])": {
        "details": "Registration is once per address. This function is only callable by the contract owner, and can be used to bulk add addresses collected off-chain"
      },
      "claim()": {
        "details": "using the registrationStatus mapping, your frontend can display a button to perform this transaction for eligible minters. Once performed, the transaction will be checkpointed on L1 in ~15 minutes. Once checkpointed, use the Matic JS SDK to generate a proof to submit to the L1 contract."
      },
      "eligible(address)": {
        "details": "We treat an NFT drop as TOKEN_SUPPLY raffles, where we divide the total registrants by remaining tokens to create raffle groups. Using Chainlinkn VRF, we find an index offset for a raffle group, and use that same index across all groups. If 100 addresses register for 5 tokens, we might generate an index offset of 8. Addresses at indices 8, 28, 48, 68 and 88 would then be eligible to mint."
      },
      "kycRegisterForDrop()": {
        "details": "Registration is once per address. Registration with a metatransaction allows the proejct to cover gas fees for registrants, while also allowing the project to perform KYC or anti-bot checks, such as requiring an email registration."
      },
      "owner()": {
        "details": "Returns the address of the current owner."
      },
      "registerForDrop()": {
        "details": "Registration is once per address. This function is the most decentralized approach, but there is no Sybil resistance and may be flooded by bots."
      },
      "renounceOwnership()": {
        "details": "Leaves the contract without owner. It will not be possible to call `onlyOwner` functions anymore. Can only be called by the current owner. NOTE: Renouncing ownership will leave the contract without an owner, thereby removing any functionality that is only available to the owner."
      },
      "selectEligibleBuyers()": {
        "details": "We use a public function so anyone may call it, but use guards to ensure it can't be called too soon. This could be replaced by Chainlink keepers once available on Polygon."
      },
      "transferOwnership(address)": {
        "details": "Transfers ownership of the contract to a new account (`newOwner`). Can only be called by the current owner."
      }
    },
    "version": 1
  },
  "userdoc": {
    "kind": "user",
    "methods": {
      "adminBulkRegisterForDrop(address[])": {
        "notice": "Register bulk addresses for drop."
      },
      "claim()": {
        "notice": "Claim mint pass by asking Polygon to checkpoint this tx to L1"
      },
      "eligible(address)": {
        "notice": "Get mint eligibility for the calling address"
      },
      "kycRegisterForDrop()": {
        "notice": "Register for drop via signed message"
      },
      "registerForDrop()": {
        "notice": "Register for drop"
      },
      "selectEligibleBuyers()": {
        "notice": "Public function for selecting next tranche of eligible minters"
      }
    },
    "version": 1
  },
  "storageLayout": {
    "storage": [
      {
        "astId": 3042,
        "contract": "contracts/FairDropRegistration/FairDropRegistration.sol:FairDropRegistration",
        "label": "_owner",
        "offset": 0,
        "slot": "0",
        "type": "t_address"
      },
      {
        "astId": 2194,
        "contract": "contracts/FairDropRegistration/FairDropRegistration.sol:FairDropRegistration",
        "label": "fxChild",
        "offset": 0,
        "slot": "1",
        "type": "t_address"
      },
      {
        "astId": 2196,
        "contract": "contracts/FairDropRegistration/FairDropRegistration.sol:FairDropRegistration",
        "label": "fxRootTunnel",
        "offset": 0,
        "slot": "2",
        "type": "t_address"
      },
      {
        "astId": 79,
        "contract": "contracts/FairDropRegistration/FairDropRegistration.sol:FairDropRegistration",
        "label": "nonces",
        "offset": 0,
        "slot": "3",
        "type": "t_mapping(t_bytes32,t_uint256)"
      },
      {
        "astId": 3146,
        "contract": "contracts/FairDropRegistration/FairDropRegistration.sol:FairDropRegistration",
        "label": "_trustedForwarder",
        "offset": 0,
        "slot": "4",
        "type": "t_address"
      },
      {
        "astId": 6201,
        "contract": "contracts/FairDropRegistration/FairDropRegistration.sol:FairDropRegistration",
        "label": "keyHash",
        "offset": 0,
        "slot": "5",
        "type": "t_bytes32"
      },
      {
        "astId": 6203,
        "contract": "contracts/FairDropRegistration/FairDropRegistration.sol:FairDropRegistration",
        "label": "fee",
        "offset": 0,
        "slot": "6",
        "type": "t_uint256"
      },
      {
        "astId": 6205,
        "contract": "contracts/FairDropRegistration/FairDropRegistration.sol:FairDropRegistration",
        "label": "randomnessRequestId",
        "offset": 0,
        "slot": "7",
        "type": "t_bytes32"
      },
      {
        "astId": 6216,
        "contract": "contracts/FairDropRegistration/FairDropRegistration.sol:FairDropRegistration",
        "label": "registrationIndex",
        "offset": 0,
        "slot": "8",
        "type": "t_mapping(t_address,t_uint256)"
      },
      {
        "astId": 6221,
        "contract": "contracts/FairDropRegistration/FairDropRegistration.sol:FairDropRegistration",
        "label": "mintWindows",
        "offset": 0,
        "slot": "9",
        "type": "t_mapping(t_uint256,t_struct(MintWindow)6212_storage)"
      },
      {
        "astId": 6225,
        "contract": "contracts/FairDropRegistration/FairDropRegistration.sol:FairDropRegistration",
        "label": "windowRequestIds",
        "offset": 0,
        "slot": "10",
        "type": "t_mapping(t_uint256,t_bytes32)"
      },
      {
        "astId": 6228,
        "contract": "contracts/FairDropRegistration/FairDropRegistration.sol:FairDropRegistration",
        "label": "_registrationIndex",
        "offset": 0,
        "slot": "11",
        "type": "t_struct(Counter)5166_storage"
      },
      {
        "astId": 6232,
        "contract": "contracts/FairDropRegistration/FairDropRegistration.sol:FairDropRegistration",
        "label": "remainingMints",
        "offset": 0,
        "slot": "12",
        "type": "t_uint256"
      },
      {
        "astId": 6234,
        "contract": "contracts/FairDropRegistration/FairDropRegistration.sol:FairDropRegistration",
        "label": "nextWindow",
        "offset": 0,
        "slot": "13",
        "type": "t_uint256"
      }
    ],
    "types": {
      "t_address": {
        "encoding": "inplace",
        "label": "address",
        "numberOfBytes": "20"
      },
      "t_bytes32": {
        "encoding": "inplace",
        "label": "bytes32",
        "numberOfBytes": "32"
      },
      "t_mapping(t_address,t_uint256)": {
        "encoding": "mapping",
        "key": "t_address",
        "label": "mapping(address => uint256)",
        "numberOfBytes": "32",
        "value": "t_uint256"
      },
      "t_mapping(t_bytes32,t_uint256)": {
        "encoding": "mapping",
        "key": "t_bytes32",
        "label": "mapping(bytes32 => uint256)",
        "numberOfBytes": "32",
        "value": "t_uint256"
      },
      "t_mapping(t_uint256,t_bytes32)": {
        "encoding": "mapping",
        "key": "t_uint256",
        "label": "mapping(uint256 => bytes32)",
        "numberOfBytes": "32",
        "value": "t_bytes32"
      },
      "t_mapping(t_uint256,t_struct(MintWindow)6212_storage)": {
        "encoding": "mapping",
        "key": "t_uint256",
        "label": "mapping(uint256 => struct FairDropRegistration.MintWindow)",
        "numberOfBytes": "32",
        "value": "t_struct(MintWindow)6212_storage"
      },
      "t_struct(Counter)5166_storage": {
        "encoding": "inplace",
        "label": "struct Counters.Counter",
        "members": [
          {
            "astId": 5165,
            "contract": "contracts/FairDropRegistration/FairDropRegistration.sol:FairDropRegistration",
            "label": "_value",
            "offset": 0,
            "slot": "0",
            "type": "t_uint256"
          }
        ],
        "numberOfBytes": "32"
      },
      "t_struct(MintWindow)6212_storage": {
        "encoding": "inplace",
        "label": "struct FairDropRegistration.MintWindow",
        "members": [
          {
            "astId": 6207,
            "contract": "contracts/FairDropRegistration/FairDropRegistration.sol:FairDropRegistration",
            "label": "registrationsCount",
            "offset": 0,
            "slot": "0",
            "type": "t_uint256"
          },
          {
            "astId": 6209,
            "contract": "contracts/FairDropRegistration/FairDropRegistration.sol:FairDropRegistration",
            "label": "remainingMints",
            "offset": 0,
            "slot": "1",
            "type": "t_uint256"
          },
          {
            "astId": 6211,
            "contract": "contracts/FairDropRegistration/FairDropRegistration.sol:FairDropRegistration",
            "label": "seed",
            "offset": 0,
            "slot": "2",
            "type": "t_uint256"
          }
        ],
        "numberOfBytes": "96"
      },
      "t_uint256": {
        "encoding": "inplace",
        "label": "uint256",
        "numberOfBytes": "32"
      }
    }
  }
}