{
  "address": "0xDFf2aF0570AbE5D93E97e0AED87aC9A1F6BA73B6",
  "abi": [
    {
      "inputs": [
        {
          "internalType": "address",
          "name": "_vrfCoordinator",
          "type": "address"
        },
        {
          "internalType": "address",
          "name": "_linkToken",
          "type": "address"
        },
        {
          "internalType": "bytes32",
          "name": "_keyhash",
          "type": "bytes32"
        },
        {
          "internalType": "address",
          "name": "_fxChild",
          "type": "address"
        }
      ],
      "stateMutability": "nonpayable",
      "type": "constructor"
    },
    {
      "anonymous": false,
      "inputs": [
        {
          "indexed": false,
          "internalType": "bytes",
          "name": "message",
          "type": "bytes"
        }
      ],
      "name": "MessageSent",
      "type": "event"
    },
    {
      "anonymous": false,
      "inputs": [
        {
          "indexed": false,
          "internalType": "address",
          "name": "userAddress",
          "type": "address"
        },
        {
          "indexed": false,
          "internalType": "address payable",
          "name": "relayerAddress",
          "type": "address"
        },
        {
          "indexed": false,
          "internalType": "bytes",
          "name": "functionSignature",
          "type": "bytes"
        }
      ],
      "name": "MetaTransactionExecuted",
      "type": "event"
    },
    {
      "inputs": [],
      "name": "ERC712_VERSION",
      "outputs": [
        {
          "internalType": "string",
          "name": "",
          "type": "string"
        }
      ],
      "stateMutability": "view",
      "type": "function"
    },
    {
      "inputs": [
        {
          "internalType": "uint256",
          "name": "",
          "type": "uint256"
        }
      ],
      "name": "currentlyEligible",
      "outputs": [
        {
          "internalType": "address",
          "name": "",
          "type": "address"
        }
      ],
      "stateMutability": "view",
      "type": "function"
    },
    {
      "inputs": [
        {
          "internalType": "address",
          "name": "userAddress",
          "type": "address"
        },
        {
          "internalType": "bytes",
          "name": "functionSignature",
          "type": "bytes"
        },
        {
          "internalType": "bytes32",
          "name": "sigR",
          "type": "bytes32"
        },
        {
          "internalType": "bytes32",
          "name": "sigS",
          "type": "bytes32"
        },
        {
          "internalType": "uint8",
          "name": "sigV",
          "type": "uint8"
        }
      ],
      "name": "executeMetaTransaction",
      "outputs": [
        {
          "internalType": "bytes",
          "name": "",
          "type": "bytes"
        }
      ],
      "stateMutability": "payable",
      "type": "function"
    },
    {
      "inputs": [],
      "name": "fxChild",
      "outputs": [
        {
          "internalType": "address",
          "name": "",
          "type": "address"
        }
      ],
      "stateMutability": "view",
      "type": "function"
    },
    {
      "inputs": [],
      "name": "fxRootTunnel",
      "outputs": [
        {
          "internalType": "address",
          "name": "",
          "type": "address"
        }
      ],
      "stateMutability": "view",
      "type": "function"
    },
    {
      "inputs": [],
      "name": "getChainId",
      "outputs": [
        {
          "internalType": "uint256",
          "name": "",
          "type": "uint256"
        }
      ],
      "stateMutability": "view",
      "type": "function"
    },
    {
      "inputs": [],
      "name": "getDomainSeperator",
      "outputs": [
        {
          "internalType": "bytes32",
          "name": "",
          "type": "bytes32"
        }
      ],
      "stateMutability": "view",
      "type": "function"
    },
    {
      "inputs": [
        {
          "internalType": "address",
          "name": "user",
          "type": "address"
        }
      ],
      "name": "getNonce",
      "outputs": [
        {
          "internalType": "uint256",
          "name": "nonce",
          "type": "uint256"
        }
      ],
      "stateMutability": "view",
      "type": "function"
    },
    {
      "inputs": [],
      "name": "nextWindow",
      "outputs": [
        {
          "internalType": "uint256",
          "name": "",
          "type": "uint256"
        }
      ],
      "stateMutability": "view",
      "type": "function"
    },
    {
      "inputs": [
        {
          "internalType": "uint256",
          "name": "stateId",
          "type": "uint256"
        },
        {
          "internalType": "address",
          "name": "rootMessageSender",
          "type": "address"
        },
        {
          "internalType": "bytes",
          "name": "data",
          "type": "bytes"
        }
      ],
      "name": "processMessageFromRoot",
      "outputs": [],
      "stateMutability": "nonpayable",
      "type": "function"
    },
    {
      "inputs": [
        {
          "internalType": "bytes32",
          "name": "requestId",
          "type": "bytes32"
        },
        {
          "internalType": "uint256",
          "name": "randomness",
          "type": "uint256"
        }
      ],
      "name": "rawFulfillRandomness",
      "outputs": [],
      "stateMutability": "nonpayable",
      "type": "function"
    },
    {
      "inputs": [],
      "name": "registerForDrop",
      "outputs": [],
      "stateMutability": "nonpayable",
      "type": "function"
    },
    {
      "inputs": [
        {
          "internalType": "address",
          "name": "",
          "type": "address"
        }
      ],
      "name": "registrationStatus",
      "outputs": [
        {
          "internalType": "enum FairDropRegistration.RegistrationStatus",
          "name": "",
          "type": "uint8"
        }
      ],
      "stateMutability": "view",
      "type": "function"
    },
    {
      "inputs": [],
      "name": "remainingMints",
      "outputs": [
        {
          "internalType": "uint256",
          "name": "",
          "type": "uint256"
        }
      ],
      "stateMutability": "view",
      "type": "function"
    },
    {
      "inputs": [],
      "name": "selectEligibleBuyers",
      "outputs": [],
      "stateMutability": "nonpayable",
      "type": "function"
    },
    {
      "inputs": [
        {
          "internalType": "address",
          "name": "_fxRootTunnel",
          "type": "address"
        }
      ],
      "name": "setFxRootTunnel",
      "outputs": [],
      "stateMutability": "nonpayable",
      "type": "function"
    }
  ],
  "transactionHash": "0xac7ccb2db3ce16394be7a46c013c875d811149a0e70b561ebeb0f86f52e32969",
  "args": [
    "0x8C7382F9D8f56b33781fE506E897a4F1e2d17255",
    "0x326C977E6efc84E512bB9C30f76E30c160eD06FB",
    "0x6e75b569a01ef56d18cab6a8e71e6600d6ce853834d4a5748b720d06f878b3a4",
    "0xCf73231F28B7331BBe3124B907840A94851f9f11"
  ],
  "solcInputHash": "b643a01d20aa662d743157b7b6e4655d",
  "bytecode": "0x60c06040526000805460ff191690556005600c553480156200002057600080fd5b5060405162001729380380620017298339810160408190526200004391620001f1565b600380546001600160a01b0383166001600160a01b03199091161790556001600160601b0319606085811b821660a05284901b1660805260408051808201909152601481527f4661697244726f70526567697374726174696f6e0000000000000000000000006020820152620000b990620000e4565b6006829055655af3107a4000600755620000d64261012c62000298565b600d5550620002bd92505050565b60005460ff1615620001135760405162461bcd60e51b81526004016200010a9062000270565b60405180910390fd5b6200011e816200012e565b506000805460ff19166001179055565b6040518060800160405280604f8152602001620016da604f913980516020918201208251838301206040805180820190915260018152603160f81b930192909252907fc89efdaa54c0f20c7adf612882df0950f5a951637e0307cdcb4c672f298b8bc6306200019c620001d0565b604051620001b295949392919060200162000244565b60408051601f19818403018152919052805160209091012060015550565b4690565b80516001600160a01b0381168114620001ec57600080fd5b919050565b6000806000806080858703121562000207578384fd5b6200021285620001d4565b93506200022260208601620001d4565b9250604085015191506200023960608601620001d4565b905092959194509250565b948552602085019390935260408401919091526001600160a01b03166060830152608082015260a00190565b6020808252600e908201526d185b1c9958591e481a5b9a5d195960921b604082015260600190565b60008219821115620002b857634e487b7160e01b81526011600452602481fd5b500190565b60805160601c60a05160601c6113ea620002f06000396000818161064201526107bf0152600061079001526113ea6000f3fe6080604052600436106100f35760003560e01c8063450d11f01161008a57806394985ddd1161005957806394985ddd1461025d5780639a7c4b711461027d578063d87854cb1461029d578063fffd5ec4146102b2576100f3565b8063450d11f0146101e6578063602e03b4146101fb5780637f1e9cb014610228578063888370941461023d576100f3565b80632d0335ab116100c65780632d0335ab1461016f57806333816e0e1461018f5780633408e470146101a457806336585fc1146101b9576100f3565b80630c53c51c146100f85780630f7e59701461012157806320379ee514610136578063204b262b14610158575b600080fd5b61010b610106366004610d3e565b6102c7565b6040516101189190611023565b60405180910390f35b34801561012d57600080fd5b5061010b610450565b34801561014257600080fd5b5061014b61046d565b6040516101189190610fd8565b34801561016457600080fd5b5061016d610473565b005b34801561017b57600080fd5b5061014b61018a366004610d24565b610520565b34801561019b57600080fd5b5061016d61053b565b3480156101b057600080fd5b5061014b61058b565b3480156101c557600080fd5b506101d96101d4366004610df8565b61058f565b6040516101189190610f68565b3480156101f257600080fd5b506101d96105b9565b34801561020757600080fd5b5061021b610216366004610d24565b6105c8565b6040516101189190611036565b34801561023457600080fd5b506101d96105dd565b34801561024957600080fd5b5061016d610258366004610d24565b6105ec565b34801561026957600080fd5b5061016d610278366004610dd7565b610637565b34801561028957600080fd5b5061016d610298366004610e28565b61068d565b3480156102a957600080fd5b5061014b6106c7565b3480156102be57600080fd5b5061014b6106cd565b60408051606081810183526001600160a01b0388166000818152600260209081529085902054845283015291810186905261030587828787876106d3565b61032a5760405162461bcd60e51b815260040161032190611200565b60405180910390fd5b6001600160a01b03871660009081526002602052604090205461034e906001610779565b6001600160a01b0388166000908152600260205260409081902091909155517f5845892132946850460bff5a0083f71031bc5bf9aadcd40f1de79423eac9b10b9061039e90899033908a90610f7c565b60405180910390a1600080306001600160a01b0316888a6040516020016103c6929190610f16565b60408051601f19818403018152908290526103e091610efa565b6000604051808303816000865af19150503d806000811461041d576040519150601f19603f3d011682016040523d82523d6000602084013e610422565b606091505b5091509150816104445760405162461bcd60e51b815260040161032190611121565b98975050505050505050565b604051806040016040528060018152602001603160f81b81525081565b60015490565b3360009081526009602052604081205460ff1660038111156104a557634e487b7160e01b600052602160045260246000fd5b146104c25760405162461bcd60e51b81526004016103219061118f565b336000818152600960205260408120805460ff19166001908117909155600a805491820181559091527fc65a7bb8d6351c1cf70c95a316cc6a92839c986682d98bc35f958f4883f9d2a80180546001600160a01b0319169091179055565b6001600160a01b031660009081526002602052604090205490565b600d54421161055c5760405162461bcd60e51b8152600401610321906110ea565b62015180600d600082825461057191906112c2565b9250508190555061058660065460075461078c565b600855565b4690565b600b818154811061059f57600080fd5b6000918252602090912001546001600160a01b0316905081565b6003546001600160a01b031681565b60096020526000908152604090205460ff1681565b6004546001600160a01b031681565b6004546001600160a01b0316156106155760405162461bcd60e51b815260040161032190611278565b600480546001600160a01b0319166001600160a01b0392909216919091179055565b336001600160a01b037f0000000000000000000000000000000000000000000000000000000000000000161461067f5760405162461bcd60e51b815260040161032190611241565b61068982826108cf565b5050565b6003546001600160a01b031633146106b75760405162461bcd60e51b81526004016103219061105e565b6106c2838383610b1b565b505050565b600c5481565b600d5481565b60006001600160a01b0386166106fb5760405162461bcd60e51b8152600401610321906111bb565b600161070e61070987610b6a565b610bc9565b8386866040516000815260200160405260405161072e9493929190611005565b6020604051602081039080840390855afa158015610750573d6000803e3d6000fd5b505050602060405103516001600160a01b0316866001600160a01b031614905095945050505050565b600061078582846112c2565b9392505050565b60007f00000000000000000000000000000000000000000000000000000000000000006001600160a01b0316634000aea07f0000000000000000000000000000000000000000000000000000000000000000848660006040516020016107f3929190610eec565b6040516020818303038152906040526040518463ffffffff1660e01b815260040161082093929190610fb1565b602060405180830381600087803b15801561083a57600080fd5b505af115801561084e573d6000803e3d6000fd5b505050506040513d601f19601f820116820180604052508101906108729190610db7565b5060008381526005602052604081205461089190859083903090610be5565b6000858152600560205260409020549091506108ae9060016112c2565b6000858152600560205260409020556108c78482610c1f565b949350505050565b60085482146108f05760405162461bcd60e51b815260040161032190611158565b60005b600b548110156109c157600360096000600b848154811061092457634e487b7160e01b600052603260045260246000fd5b60009182526020808320909101546001600160a01b031683528201929092526040019020805460ff1916600183600381111561097057634e487b7160e01b600052602160045260246000fd5b0217905550600b818154811061099657634e487b7160e01b600052603260045260246000fd5b600091825260209091200180546001600160a01b0319169055806109b98161130a565b9150506108f3565b505b600b5460051115610af257600081426040516020016109e3929190610eec565b60408051601f198184030181529190528051602090910120600a8054919250600091610a0f9084611325565b81548110610a2d57634e487b7160e01b600052603260045260246000fd5b6000918252602090912001546001600160a01b0316905060016001600160a01b03821660009081526009602052604090205460ff166003811115610a8157634e487b7160e01b600052602160045260246000fd5b1415610aeb57600b8054600181019091557f0175b7a638427703f0dbe7bb9bbf987a2551717b34e79f33b5b1008d1fa01db90180546001600160a01b0383166001600160a01b031990911681179091556000908152600960205260409020805460ff191660021790555b50506109c3565b610689600b604051602001610b079190610ea9565b604051602081830303815290604052610c52565b60045482906001600160a01b03808316911614610b4a5760405162461bcd60e51b81526004016103219061109f565b600082806020019051810190610b609190610e10565b600c555050505050565b60006040518060800160405280604381526020016113726043913980516020918201208351848301516040808701518051908601209051610bab9501610fe1565b6040516020818303038152906040528051906020012090505b919050565b6000610bd361046d565b82604051602001610bab929190610f4d565b600084848484604051602001610bfe9493929190610fe1565b60408051601f19818403018152919052805160209091012095945050505050565b60008282604051602001610c34929190610eec565b60405160208183030381529060405280519060200120905092915050565b7f8c5261668696ce22758910d05bab8f186d6eb247ceac2af2e82c7dc17669b03681604051610c819190611023565b60405180910390a150565b80356001600160a01b0381168114610bc457600080fd5b600082601f830112610cb3578081fd5b813567ffffffffffffffff80821115610cce57610cce61135b565b604051601f8301601f191681016020018281118282101715610cf257610cf261135b565b604052828152848301602001861015610d09578384fd5b82602086016020830137918201602001929092529392505050565b600060208284031215610d35578081fd5b61078582610c8c565b600080600080600060a08688031215610d55578081fd5b610d5e86610c8c565b9450602086013567ffffffffffffffff811115610d79578182fd5b610d8588828901610ca3565b9450506040860135925060608601359150608086013560ff81168114610da9578182fd5b809150509295509295909350565b600060208284031215610dc8578081fd5b81518015158114610785578182fd5b60008060408385031215610de9578182fd5b50508035926020909101359150565b600060208284031215610e09578081fd5b5035919050565b600060208284031215610e21578081fd5b5051919050565b600080600060608486031215610e3c578283fd5b83359250610e4c60208501610c8c565b9150604084013567ffffffffffffffff811115610e67578182fd5b610e7386828701610ca3565b9150509250925092565b60008151808452610e958160208601602086016112da565b601f01601f19169290920160200192915050565b60008183548391508483526020808420845b83811015610ee05781546001600160a01b031685529382019360019182019101610ebb565b50929695505050505050565b918252602082015260400190565b60008251610f0c8184602087016112da565b9190910192915050565b60008351610f288184602088016112da565b60609390931b6bffffffffffffffffffffffff19169190920190815260140192915050565b61190160f01b81526002810192909252602282015260420190565b6001600160a01b0391909116815260200190565b6001600160a01b03848116825283166020820152606060408201819052600090610fa890830184610e7d565b95945050505050565b600060018060a01b038516825283602083015260606040830152610fa86060830184610e7d565b90815260200190565b93845260208401929092526001600160a01b03166040830152606082015260800190565b93845260ff9290921660208401526040830152606082015260800190565b6000602082526107856020830184610e7d565b602081016004831061105857634e487b7160e01b600052602160045260246000fd5b91905290565b60208082526021908201527f4678426173654368696c6454756e6e656c3a20494e56414c49445f53454e44456040820152602960f91b606082015260800190565b6020808252602b908201527f4678426173654368696c6454756e6e656c3a20494e56414c49445f53454e444560408201526a1497d19493d357d493d3d560aa1b606082015260800190565b60208082526018908201527f427579696e672077696e646f77207374696c6c206f70656e0000000000000000604082015260600190565b6020808252601c908201527f46756e6374696f6e2063616c6c206e6f74207375636365737366756c00000000604082015260600190565b6020808252601a908201527f4261642072616e646f6d6e6573732066756c66696c6c6d656e74000000000000604082015260600190565b602080825260129082015271105b1c9958591e481c9959da5cdd195c995960721b604082015260600190565b60208082526025908201527f4e61746976654d6574615472616e73616374696f6e3a20494e56414c49445f5360408201526424a3a722a960d91b606082015260800190565b60208082526021908201527f5369676e657220616e64207369676e617475726520646f206e6f74206d6174636040820152600d60fb1b606082015260800190565b6020808252601f908201527f4f6e6c7920565246436f6f7264696e61746f722063616e2066756c66696c6c00604082015260600190565b6020808252602a908201527f4678426173654368696c6454756e6e656c3a20524f4f545f54554e4e454c5f4160408201526913149150511657d4d15560b21b606082015260800190565b600082198211156112d5576112d5611345565b500190565b60005b838110156112f55781810151838201526020016112dd565b83811115611304576000848401525b50505050565b600060001982141561131e5761131e611345565b5060010190565b60008261134057634e487b7160e01b81526012600452602481fd5b500690565b634e487b7160e01b600052601160045260246000fd5b634e487b7160e01b600052604160045260246000fdfe4d6574615472616e73616374696f6e2875696e74323536206e6f6e63652c616464726573732066726f6d2c62797465732066756e6374696f6e5369676e617475726529a26469706673582212204488e46906b648bb14483a447b7e1857091549ab2043ba2b96316a6a4e27ae2864736f6c63430008000033454950373132446f6d61696e28737472696e67206e616d652c737472696e672076657273696f6e2c6164647265737320766572696679696e67436f6e74726163742c627974657333322073616c7429",
  "devdoc": {
    "kind": "dev",
    "methods": {
      "registerForDrop()": {
        "details": "Registration is once per address"
      },
      "selectEligibleBuyers()": {
        "details": "We use a public function so anyone may call it, but use guards to ensure it can't be called too soon. This could be replaced by Chainlink keepers once available on Polygon."
      }
    },
    "version": 1
  },
  "userdoc": {
    "kind": "user",
    "methods": {
      "registerForDrop()": {
        "notice": "Register for drop"
      },
      "selectEligibleBuyers()": {
        "notice": "Public function for selecting next tranche of eligible minters"
      }
    },
    "version": 1
  },
  "storageLayout": {
    "storage": [
      {
        "astId": 5131,
        "contract": "contracts/FairDropRegistration/FairDropRegistration.sol:FairDropRegistration",
        "label": "inited",
        "offset": 0,
        "slot": "0",
        "type": "t_bool"
      },
      {
        "astId": 5038,
        "contract": "contracts/FairDropRegistration/FairDropRegistration.sol:FairDropRegistration",
        "label": "domainSeperator",
        "offset": 0,
        "slot": "1",
        "type": "t_bytes32"
      },
      {
        "astId": 5177,
        "contract": "contracts/FairDropRegistration/FairDropRegistration.sol:FairDropRegistration",
        "label": "nonces",
        "offset": 0,
        "slot": "2",
        "type": "t_mapping(t_address,t_uint256)"
      },
      {
        "astId": 5366,
        "contract": "contracts/FairDropRegistration/FairDropRegistration.sol:FairDropRegistration",
        "label": "fxChild",
        "offset": 0,
        "slot": "3",
        "type": "t_address"
      },
      {
        "astId": 5368,
        "contract": "contracts/FairDropRegistration/FairDropRegistration.sol:FairDropRegistration",
        "label": "fxRootTunnel",
        "offset": 0,
        "slot": "4",
        "type": "t_address"
      },
      {
        "astId": 79,
        "contract": "contracts/FairDropRegistration/FairDropRegistration.sol:FairDropRegistration",
        "label": "nonces",
        "offset": 0,
        "slot": "5",
        "type": "t_mapping(t_bytes32,t_uint256)"
      },
      {
        "astId": 4702,
        "contract": "contracts/FairDropRegistration/FairDropRegistration.sol:FairDropRegistration",
        "label": "keyHash",
        "offset": 0,
        "slot": "6",
        "type": "t_bytes32"
      },
      {
        "astId": 4704,
        "contract": "contracts/FairDropRegistration/FairDropRegistration.sol:FairDropRegistration",
        "label": "fee",
        "offset": 0,
        "slot": "7",
        "type": "t_uint256"
      },
      {
        "astId": 4706,
        "contract": "contracts/FairDropRegistration/FairDropRegistration.sol:FairDropRegistration",
        "label": "randomnessRequestId",
        "offset": 0,
        "slot": "8",
        "type": "t_bytes32"
      },
      {
        "astId": 4716,
        "contract": "contracts/FairDropRegistration/FairDropRegistration.sol:FairDropRegistration",
        "label": "registrationStatus",
        "offset": 0,
        "slot": "9",
        "type": "t_mapping(t_address,t_enum(RegistrationStatus)4711)"
      },
      {
        "astId": 4719,
        "contract": "contracts/FairDropRegistration/FairDropRegistration.sol:FairDropRegistration",
        "label": "registrants",
        "offset": 0,
        "slot": "10",
        "type": "t_array(t_address)dyn_storage"
      },
      {
        "astId": 4722,
        "contract": "contracts/FairDropRegistration/FairDropRegistration.sol:FairDropRegistration",
        "label": "currentlyEligible",
        "offset": 0,
        "slot": "11",
        "type": "t_array(t_address)dyn_storage"
      },
      {
        "astId": 4726,
        "contract": "contracts/FairDropRegistration/FairDropRegistration.sol:FairDropRegistration",
        "label": "remainingMints",
        "offset": 0,
        "slot": "12",
        "type": "t_uint256"
      },
      {
        "astId": 4728,
        "contract": "contracts/FairDropRegistration/FairDropRegistration.sol:FairDropRegistration",
        "label": "nextWindow",
        "offset": 0,
        "slot": "13",
        "type": "t_uint256"
      }
    ],
    "types": {
      "t_address": {
        "encoding": "inplace",
        "label": "address",
        "numberOfBytes": "20"
      },
      "t_array(t_address)dyn_storage": {
        "base": "t_address",
        "encoding": "dynamic_array",
        "label": "address[]",
        "numberOfBytes": "32"
      },
      "t_bool": {
        "encoding": "inplace",
        "label": "bool",
        "numberOfBytes": "1"
      },
      "t_bytes32": {
        "encoding": "inplace",
        "label": "bytes32",
        "numberOfBytes": "32"
      },
      "t_enum(RegistrationStatus)4711": {
        "encoding": "inplace",
        "label": "enum FairDropRegistration.RegistrationStatus",
        "numberOfBytes": "1"
      },
      "t_mapping(t_address,t_enum(RegistrationStatus)4711)": {
        "encoding": "mapping",
        "key": "t_address",
        "label": "mapping(address => enum FairDropRegistration.RegistrationStatus)",
        "numberOfBytes": "32",
        "value": "t_enum(RegistrationStatus)4711"
      },
      "t_mapping(t_address,t_uint256)": {
        "encoding": "mapping",
        "key": "t_address",
        "label": "mapping(address => uint256)",
        "numberOfBytes": "32",
        "value": "t_uint256"
      },
      "t_mapping(t_bytes32,t_uint256)": {
        "encoding": "mapping",
        "key": "t_bytes32",
        "label": "mapping(bytes32 => uint256)",
        "numberOfBytes": "32",
        "value": "t_uint256"
      },
      "t_uint256": {
        "encoding": "inplace",
        "label": "uint256",
        "numberOfBytes": "32"
      }
    }
  }
}